:020000040800F2
:10000000E8040020CD360008D5360008D7360008B1
:10001000D9360008DB360008DD3600080000000095
:10002000000000000000000000000000DF360008B3
:10003000E136000800000000E3360008E53600085D
:10004000E7360008E7360008E7360008E73600081C
:10005000E7360008E73600087925000899250008EA
:10006000B9250008D9250008F9250008E736000859
:10007000E7360008E7360008E7360008E7360008EC
:10008000E7360008E7360008E7360008E7360008DC
:10009000E7360008E7360008E736000819260008AA
:1000A000E7360008E7360008E7360008E7360008BC
:1000B000B32F0008CF2F0008E92F0008E73600080B
:1000C000E7360008E7360008E7360008E73600089C
:1000D000E73600088B230008B3230008DB23000861
:1000E000B9260008E7360008E7360008DFF80CD02C
:1000F00003F0CAFF0048004701010008E80400209F
:100100002DE9F84302F08EF901F078FF1022510238
:10011000022001F045FE012002231A464FF4165139
:10012000009001F0F8FF02F077FF03F0EFF803F022
:1001300003F918B134A003F0C9FF05E037A003F0BC
:10014000C5FF0020BDE8F883394803F0FFF800241C
:1001500007E03748143030F9141036A003F0B6FF2A
:10016000641C032CF5DB31A003F0B0FF4AE03048FB
:1001700003F056F92E49B1F9060003F002FE80465D
:100180004FF066322F4B03F084FD064603F01DFE50
:100190000546284603F006FE064632460B462AA0D0
:1001A00003F094FF002407E02148801D30F914106B
:1001B00028A003F08BFF641C032CF5DB1BA003F0CD
:1001C00085FF002406E01A4830F9141024A003F03B
:1001D0007DFF641C032CF6DB1548B0F90C1023A03E
:1001E00003F074FF11A003F071FF002021490860A3
:1001F000214801F022FF01202049C1F8B401204824
:1002000001F01BFFB3E70000204D5055363035306C
:100210005F436865636B204F4B0A00004E4F204DD3
:100220005055363035305F436865636B0A00000017
:1002300030000020206779725F6F66663A25640D92
:100240000000000066664040206B203D2025660DC2
:100250000A000000206779723A25640D0000000052
:10026000206163633A25640D0000000074656D3AF7
:1002700020256400B4012242A08601000000224231
:10028000400D030031490143314A1160704770B598
:10029000002100230F22C47804B32D4C246804F4F9
:1002A000E064C4F5E064210AC1F10403CA40447863
:1002B00004FA03F18478144021430901254C06789F
:1002C000A155047804F01F050124AC4005786D1198
:1002D000AD0005F1E025C5F8004109E0047804F01F
:1002E0001F050124AC401C4D0678761145F82640C8
:1002F00070BD1A4A0A400243154B1B1F1A60704713
:1003000039B1134A121D12680243114B1B1D1A60AA
:1003100006E00F4A121D126882430D4B1B1D1A6026
:100320007047042808D14FF0E021096941F0040129
:100330004FF0E022116107E04FF0E021096921F060
:1003400004014FF0E0221161704700000000FA053F
:100350000CED00E000E400E080E100E080FFFF1F22
:10036000002044490860091D0860091D0860091D36
:10037000086041483F4914310860704700213D49F9
:100380008279002A3AD00A46126803689A430B46DB
:100390001A600A1D126803689A430B1D1A600279DD
:1003A00011440A6803681A430A60324A0832126824
:1003B00003689A432F4B08331A601A1D12680368AA
:1003C0009A432C4B0C331A604279102A0ED11A1F13
:1003D000126803681A43274B08331A601A1D126803
:1003E00003681A43234B0C331A600DE0214942790C
:1003F00011440A6803681A430A6005E0027911444F
:100400000A6803689A430A6070470021016001711D
:100410000C21417100218171704716491031096822
:100420000143144A10321160704701460020114AFE
:10043000143212680A400AB1012000E0002070471F
:100440000C49143108607047014600200022094B16
:100450001B6803EA0102074B14331B680B4013B1FE
:100460000AB1012000E00020704702491431086001
:100470007047000000040140FFFF0F0010B5044664
:10048000CC48844208D10121042000F02DFB00213A
:10049000042000F029FB46E0C748844208D101212E
:1004A000082000F021FB0021082000F01DFB3AE0AD
:1004B000C248844208D10121102000F015FB002120
:1004C000102000F011FB2EE0BD48844208D101212C
:1004D000202000F009FB0021202000F005FB22E095
:1004E000B848844208D10121402000F0FDFA0021E3
:1004F000402000F0F9FA16E0B348844208D1012107
:10050000802000F0F1FA0021802000F0EDFA0AE0EE
:10051000AE48844207D10121801500F0E5FA0021A0
:10052000A01500F0E1FA10BD10B50121084600F059
:10053000DBFA0021012000F0D7FA10BD2DE9F041CF
:10054000024600250026002000230024002791F801
:1005500003C00CF00F0591F803C00CF0100CBCF1B7
:10056000000F03D091F802C04CEA050591F800C0D5
:10057000BCF1000F31D0146800202BE04FF0010CCB
:100580000CFA00F3B1F800C00CEA03069E4220D139
:1005900083004FF00F0C0CFA03F7BC4305FA03FC81
:1005A0004CEA040491F803C0BCF1280F06D14FF0C7
:1005B000010C0CFA00FCC2F814C00AE091F803C068
:1005C000BCF1480F05D14FF0010C0CFA00FCC2F849
:1005D00010C0401C0828D1D31460B1F800C0BCF191
:1005E000FF0F34DD546800202EE000F1080C4FF0BE
:1005F000010808FA0CF3B1F800C00CEA03069E42A9
:1006000021D183004FF00F0C0CFA03F7BC4305FA1D
:1006100003FC4CEA040491F803C0BCF1280F05D197
:1006200000F1080C08FA0CF8C2F8148091F803C025
:10063000BCF1480F07D100F1080C4FF0010808FA8F
:100640000CF8C2F81080401C0828CED35460BDE8D6
:10065000F0814FF6FF710180022181700421C17089
:1006600070470246002093680B400BB1012000E068
:10067000002070470146886880B27047024600201B
:10068000D3680B400BB1012000E000207047014609
:10069000C86880B2704701617047416170470AB114
:1006A000016100E041617047C16070474FF48032E2
:1006B0000A43826181618261826982697047024670
:1006C0000020434B18684FF68073184040EA021030
:1006D00008433F4B186070473E49C8617047F0B50A
:1006E0000A46002300240021002500F00046B6F150
:1006F000004F02D1364EF16901E0354E7168C0F30A
:10070000034583B200F44016B6F5401F08D121F02E
:1007100070612F4E766826F070662D4F7E6012E075
:1007200000F48016B6F5801F06D1032606FA05F4FC
:10073000A14341F0706106E0460D360103FA06F66A
:10074000B14341F0706122B1460D360103FA06F65D
:10075000314300F00046B6F1004F02D11C4EF1616A
:1007600001E01B4E7160F0BD30B500228B071C0FFD
:100770000F2303FA04F2164B08338C1053F824307D
:100780009343134C08348D1044F8253023468C10C5
:1007900053F824308C07240F00FA04F423430C4C44
:1007A00008348D1044F8253030BD0A49DC3108602A
:1007B0007047000000080140000C0140001001409B
:1007C0000014014000180140001C014000200140BD
:1007D0000000014000002042DF48006840F00100B6
:1007E000DD49086008464068DC490840DA4948604D
:1007F00008460068DA490840D7490860084600689A
:1008000020F4802008600846406820F4FE0048601C
:100810004FF41F0088607047CF49096821F4803188
:10082000CD4A11601146096821F480211160B0F5AC
:10083000803F03D0B0F5802F0ED106E0C64909688D
:1008400041F48031C44A116007E0C349096841F4AA
:10085000A021C14A116000E000BF00BF704710B581
:1008600001460022002300204A11012A02D1BA4C7D
:10087000236806E0022A02D1B74C236A01E0B64C95
:10088000636A01F01F02012494401C400CB1012056
:1008900000E0002010BD38B50020009000240025A5
:1008A00000BF3120FFF7DBFF05460098401C009099
:1008B0000098B0F5A06F01D0002DF2D03120FFF7E5
:1008C000CEFF08B1012400E00024204638BD0146D7
:1008D0000020A14A106820F0F80040EAC100106032
:1008E0007047A04908607047024600209A4B58683C
:1008F00020F47C1042EA01031843974B586070477C
:1009000098490866704701460020934A506820F0D5
:1009100003000843506070478F48406800F00C00A7
:100920007047014600208C4A506820F0F0000843D0
:100930005060704701460020874A506820F4E0600C
:1009400008435060704701460020834A506820F4F5
:10095000605040EAC1005060704729B17E4A527A27
:1009600002437D4B5A7204E07B4A527A82437A4BAF
:100970005A7270477B49D8310860704701460020A1
:10098000754A506820F44040084350607047002189
:10099000714A20321170704A82F82010012802D06A
:1009A00004280AD104E001216B4A2032117005E0CD
:1009B0000521694A2032117000E000BF00BF704776
:1009C0006949086070476449096A0143624A1162D3
:1009D0007047654944390860704730B500210022EE
:1009E000002400235C4D6D6805F00C0121B1042941
:1009F00005D0082923D105E05C4D056022E05B4D60
:100A000005601FE0544D6D6805F47012524D6D681D
:100A100005F48034022505EB92421CB9544D554330
:100A200005600BE04C4D6D6805F400351DB1504D6F
:100A30005543056002E04D4D5543056002E04B4DC6
:100A4000056000BF00BF444D6D6805F0F001090965
:100A5000484D6B5C0568DD4045603F4D6D6805F4B1
:100A6000E061090A434D6B5C4568DD4085603A4DA5
:100A70006D6805F46051C90A3E4D6B5C4568DD4008
:100A8000C560354D6D6805F44041890B3A4D6B5C8E
:100A9000C568B5FBF3F5056130BD29B12E4A526931
:100AA00002432D4B5A6104E02B4A526982432A4B80
:100AB0005A61704729B1284A92690243264B9A61CC
:100AC00004E0254A92698243234B9A61704729B119
:100AD000214AD2690243204BDA6104E01E4AD269FE
:100AE00082431D4BDA61704729B11B4AD268024329
:100AF000194BDA6004E0184AD2688243164BDA6078
:100B0000704729B1144A12690243134B1A6104E079
:100B1000114A12698243104B1A61704712494039D9
:100B2000086070470F49C86470470B49C871704727
:100B30000948406A40F080700749486270470146A2
:100B40000020054A92680A400AB1012000E0002016
:100B50007047014988727047001002400000FFF89A
:100B6000FFFFF6FE000042428004424200127A007B
:100B700000093D00000000201000002010B50446D0
:100B8000FE48844208D10121C014FFF7ADFF0021C7
:100B9000E014FFF7A9FFC4E0B4F1804F08D10121B0
:100BA0000846FFF7AEFF00210120FFF7AAFFB8E0DB
:100BB000F348844208D101210220FFF7A2FF00215F
:100BC0000220FFF79EFFACE0EE48844208D10121ED
:100BD0000420FFF796FF00210420FFF792FFA0E01A
:100BE000E948844208D101210820FFF78AFF00214B
:100BF0000820FFF786FF94E0E448844208D10121F1
:100C00001020FFF77EFF00211020FFF77AFF88E019
:100C1000DF48844208D101212020FFF772FF002124
:100C20002020FFF76EFF7CE0DA48844208D10121E2
:100C30004014FFF759FF00216014FFF755FF70E0E3
:100C4000D548844209D10121C804FFF74DFF002196
:100C50004FF40020FFF748FF63E0D048844209D1F9
:100C600001210805FFF740FF00214FF48010FFF736
:100C70003BFF56E0CA48844209D101214805FFF7ED
:100C800033FF00214FF40010FFF72EFF49E0C54865
:100C9000844208D101214020FFF733FF002140208A
:100CA000FFF72FFF3DE0C048844208D1012180209A
:100CB000FFF727FF00218020FFF723FF31E0BB482B
:100CC000844208D101218015FFF71BFF0021A015E8
:100CD000FFF717FF25E0B648844209D10121080437
:100CE000FFF702FF00214FF48030FFF7FDFE18E010
:100CF000B048844209D101214804FFF7F5FE0021E4
:100D00004FF40030FFF7F0FE0BE0AB48844208D10F
:100D100001218804FFF7E8FE00214FF48020FFF74F
:100D2000E3FE10BD00220288944B98420ED0994BEE
:100D300098420BD0B0F1804F08D0914B984205D02B
:100D4000904B984202D0904B984204D14FF68F734B
:100D50001A404B881A438D4B984207D08C4B9842CF
:100D600004D04FF6FF431A40CB881A4302808B8889
:100D700083850B880385814B98420BD0854B984225
:100D800008D08B4B984205D08A4B984202D08A4BB0
:100D9000984201D10B7A038601238382704770B594
:100DA000002400220023058C4FF6FE763540058492
:100DB000028C8388048B4FF68F752C40B51E2C4017
:100DC0000D882C43751E2A400D892A434D882A43DD
:100DD0006A4DA8420BD06F4DA84208D0744DA8426E
:100DE00005D0744DA84202D0734DA84213D14FF6DE
:100DF000F7752A404D892A434FF6FB752A408D88A6
:100E00002A434FF6FF652B404FF6FF552B408D8947
:100E10002B43CD892B4383800483CD888586028430
:100E200070BD70B5002400220023058C4FF6EF76CC
:100E300035400584028C8388048B48F6FF752C406E
:100E40004FF6FF452C400D884FF6FF7606EA052544
:100E50002C434FF6DF752A400D8906EA05152A4313
:100E60004D8806EA05152A43444DA84202D0494D53
:100E7000A8421DD14FF67F752A404D894FF6FF7667
:100E800006EA05152A434FF6BF752A408D8806EA03
:100E900005152A434FF6FF352B404FF2FF752B40C7
:100EA0008D8906EA85052B43CD8906EA85052B4306
:100EB00083800483CD880587028470BD70B50024CB
:100EC00000220023058C4FF6FF6635400584028C16
:100ED0008388848B4FF68F752C404FF6FC752C4021
:100EE0000D882C434FF6FF552A400D894FF6FF76AB
:100EF00006EA05252A434D8806EA05252A431F4DA3
:100F0000A84202D0234DA8421DD14FF2FF752A40BE
:100F10004D894FF6FF7606EA05252A434FF6FF3541
:100F20002A408D8806EA05252A434EF6FF752B4098
:100F30004DF6FF752B408D8906EA05152B43CD89AB
:100F400006EA05152B4383808483CD888587028438
:100F500070BD70B5002200230024058C4EF6FF768C
:100F600035400584038C8488828B48F6FF752A40BF
:100F70004FF6FF452A400D8820E00000002C01407C
:100F80000004004000080040000C00400010004039
:100F90000014004000340140004C0140005001406A
:100FA0000054014000180040001C00400020004098
:100FB0000040014000440140004801404FF6FF76E8
:100FC00006EA05252A434DF6FF752B400D8906EAF2
:100FD00005352B434D8806EA05352B43FA4DA842CB
:100FE00002D0FA4DA84208D14BF6FF752C408D89EE
:100FF0004FF6FF7606EA85152C4384808283CD88E0
:10100000A0F84050038470BD828B4FF2FF331A402A
:101010008283828B4FF6FF7303EA01231A43828394
:101020007047F0B50C461546002200210026078CBB
:101030004EF6FF7C07EA0C070784828B018C4FF683
:10104000FF7707EA043640F6FF473A404FF6FF774E
:1010500007EA05273A434FF6FF7707EA03373A4393
:10106000D94FB8420ED0D94FB8420BD0B0F1804F13
:1010700008D0D74FB84205D0D64FB84202D0D64F8D
:10108000B84206D14DF6FF77394046F480573943D0
:1010900005E047F6FF57394044F4805739438283CF
:1010A0000184F0BD828B4FF6F3731A408283828BEA
:1010B0000A4382837047F0B50C4615460022002192
:1010C0000026078C4FF6FF6C07EA0C070784828B1B
:1010D000018C4FF6FF7707EA04264FF60C773A406B
:1010E0004FF6FF7707EA03172F433A43B64FB8424C
:1010F0000ED0B64FB8420BD0B0F1804F08D0B44FED
:10110000B84205D0B34FB84202D0B34FB84206D16F
:101110004FF6FF57394046F48077394305E04FF2E8
:10112000FF57394044F48077394382830184F0BD0E
:10113000028B4FF2FF331A400283028B4FF6FF738C
:1011400003EA01231A4302837047F0B50C461546A3
:10115000002200210026078C4FF6EF7C07EA0C07DF
:101160000784028B018C4FF6FF7707EA041640F6DE
:10117000FF473A404FF6FF7707EA03373A434FF607
:10118000FF7707EA05273A438F4FB8420ED08F4FBB
:10119000B8420BD0B0F1804F08D08D4FB84205D087
:1011A0008C4FB84202D08C4FB84206D14FF6DF7751
:1011B000394046F01007394305E04FF65F77394074
:1011C00044F01007394302830184F0BD028B4FF6CF
:1011D000F3731A400283028B0A4302837047F0B50F
:1011E0000C46154600220021068C4FF6FE773E4045
:1011F0000684028B018C4FF60C7632407E1C06EA88
:1012000003162E433243704EB0420ED06F4EB042A2
:101210000BD0B0F1804F08D06D4EB04205D06D4E6E
:10122000B04202D06C4EB04206D14FF6FD7631404E
:1012300044F00106314305E04FF6F576314044F0C5
:101240000106314302830184F0BD70B505460C46AA
:101250005D4885420ED05D4885420BD0B5F1804F88
:1012600008D05B48854205D05A48854202D05A488A
:10127000854200D100E000BF208850B92389A288B0
:1012800061882846FFF7ABFFE1882846FFF79EFFFD
:1012900025E0208804280AD12389A288618828466D
:1012A000FFF753FFE1882846FFF742FF17E0208849
:1012B00008280AD12389A28861882846FFF7FBFE07
:1012C000E1882846FFF7EEFE09E02389A2886188BD
:1012D0002846FFF7A6FEE1882846FFF795FE70BD79
:1012E0002DE9F04105460C4600260127608808B923
:1012F000022600E00026A088012801D1022700E094
:1013000001272088A0B92389A28861882846FFF791
:1013100066FFE1882846FFF759FF23893A463146A0
:101320002846FFF712FFE1882846FFF701FF13E088
:101330002389A28861882846FFF707FFE1882846AD
:10134000FFF7F6FE23893A4631462846FFF747FF66
:10135000E1882846FFF73AFFBDE8F0810A884B880C
:101360001A438B881A43CB881A430B891A434B893B
:101370001A438B891A43A0F8442070474FF6FF7137
:10138000818000210180C18041800172704700216D
:10139000018041808180C180018141818181C18141
:1013A0007047002101804180012181800021C1809E
:1013B000018170470021018041808180C1800181CD
:1013C0004181818170470000002C014000340140C0
:1013D0000004004000080040000C004021B10288D9
:1013E00042F00102028004E002884FF6FE731A40C8
:1013F0000280704731B1B0F8442042F40042A0F8B6
:10140000442005E0B0F84420C2F30E02A0F84420C6
:1014100070471AB183890B43838102E083898B4330
:10142000838170478182704741EA0203A0F8483007
:1014300070471AB183890B43838102E083898B4310
:101440008381704701894FF6F8721140018170471E
:101450000A46002101894FF68F731940114301811B
:10146000704730B504460D4629462046FFF7F0FF89
:10147000208940F00700208130BD2DE9F04104466D
:101480000D4616461F46602D06D13B4601223146C9
:101490002046FFF75AFE05E03B4601223146204632
:1014A000FFF79DFE29462046FFF7D2FF208940F036
:1014B00007002081BDE8F08130B50C46002101898C
:1014C000C9B24FF6FF7505EA0325154325432943A5
:1014D000018130BD2DE9F04105460E46174698467C
:1014E000002443463A4631462846FFF7E5FF2C895B
:1014F0004FF6F870044044F007044FF68F70044034
:1015000044F070042C81BDE8F081F0B504460D462E
:1015100016461F463B46324629462046FFF7CCFF7B
:10152000208940F480402081F0BD0185828270478F
:101530000A46002101884FF68F731940114301803C
:101540007047F0B50C4615461E46002100220023C8
:101550000189028B038C4FF6F877394021434FF60F
:10156000FC473A4040F201173A434FF6DD773B40E3
:101570004FF6FF7707EA06172F433B4301810283AB
:101580000384F0BD0A460021018B4FF68F7319408A
:101590001143018370470A460021018B48F6FF730F
:1015A00019404FF6FF7303EA022319430183704782
:1015B0000A460021818B4FF68F73194011438183B6
:1015C00070470A460021818B48F6FF7319404FF699
:1015D000FF7303EA022319438183704721B1028814
:1015E00042F08002028004E002884FF67F731A40C6
:1015F0000280704721B1828842F00402828004E0B8
:1016000082884FF6FB731A408280704721B182882E
:1016100042F00802828004E082884FF6F7731A4095
:101620008280704721B1828842F00102828004E00A
:1016300082884FF6FE731A40828070470A46002166
:10164000018B4FF6F77319401143018370470A4627
:101650000021018B4FF2FF7319404FF6FF7303EA2D
:1016600002231943018370470A460021818B4FF6FC
:10167000F77319401143818370470A460021818B1B
:101680004FF2FF7319404FF6FF7303EA0223194329
:10169000818370470A460021018B4FF6FB73194086
:1016A0001143018370470A460021018B4FF6FF3337
:1016B00019404FF6FF7303EA022319430183704771
:1016C0000A460021818B4FF6FB7319401143818339
:1016D00070470A460021818B4FF6FF3319404FF6C1
:1016E000FF7303EA02231943818370470A460021EE
:1016F000018B4FF67F7319401143018370470A46EF
:101700000021018BC1F30E014FF6FF7303EA0223A0
:101710001943018370470A460021818B4FF67F737E
:1017200019401143818370470A460021818BC1F320
:101730000E014FF6FF7303EA0223194381837047BA
:101740000A460021018C4FF6FD73194011430184B4
:1017500070470A460021018C4FF6F7731940114378
:10176000018470470A460021018C4FF6DF7319404F
:101770004FF6FF7303EA02131943018470470A46C8
:101780000021018C4FF67F7319404FF6FF7303EA77
:1017900002131943018470470A460021018C4FF659
:1017A000FF5319404FF6FF7303EA022319430184E4
:1017B00070470A460021018C4FF2FF7319404FF623
:1017C000FF7303EA02231943018470470A4600218C
:1017D000018C4DF6FF7319404FF6FF7303EA023395
:1017E00019430184704730B5002301248C40A3B213
:1017F000048C9C430484048C02FA01F5ADB22C43A2
:10180000048430BD30B5002304248C40A3B2048C82
:101810009C430484048C02FA01F5ADB22C43048489
:1018200030BD70B50346002000241846183001254D
:101830008D40ACB21D8CA5431D8409B1082909D186
:1018400000EB6100056825F070050560056815432B
:1018500005600EE00D1FC5F34E052844056825F40C
:10186000E045056005684FF6FF7606EA0226354337
:10187000056070BD21B1028842F00202028004E0DE
:1018800002884FF6FD731A400280704721B102882A
:1018900042F00402028004E002884FF6FB731A4013
:1018A0000280704721B1828842F08002828004E089
:1018B00082884FF67F731A408280704702884FF605
:1018C000F7731A40028002880A43028070478288B8
:1018D0004FF68F731A40828082880A438280704755
:1018E00002894FF6F8731A40028102890A43028185
:1018F000704702894FF67F731A40028102890A43BA
:101900000281704781847047818570478186704766
:101910000187704781877047A0F8401070470288A0
:101920004FF6FF431A40028002880A430280704744
:101930000146888E70470146088F70470146888FA0
:1019400070470146B1F8400070470146888C7047E7
:101950000146088D704702460020138A0B400BB1E8
:10196000012000E000207047CA430282704730B572
:101970000246002000230024158A05EA0103958908
:1019800005EA010413B10CB1012000E0002030BDD4
:10199000CA4302827047000010B50446FB488442E7
:1019A00009D101218803FFF79FF800214FF48040FF
:1019B000FFF79AF832E0F648844209D10121480441
:1019C000FFF79FF800214FF40030FFF79AF825E069
:1019D000F048844209D101218804FFF792F80021E0
:1019E0004FF48020FFF78DF818E0EB48844209D1CE
:1019F0000121C804FFF785F800214FF40020FFF70C
:101A000080F80BE0E548844208D101210805FFF782
:101A100078F800214FF48010FFF773F810BD2DE91E
:101A2000F04786B005460E460024A24600BFA146F8
:101A30000027B08900B100BF2F462C8A4CF6FF70FA
:101A40000440F08804432C82AC894EF6F310044025
:101A5000B08831890843718908430443AC81AC8A5A
:101A60004FF6FF400440B0890443AC8201A8FEF762
:101A7000B4FFC648874202D1DDF810A001E0DDF8CE
:101A80000CA0A88900F4004040B10AEBCA0000EBAA
:101A90000A1031684900B0FBF1F807E00AEBCA0010
:101AA00000EB0A1031688900B0FBF1F86420B8FB44
:101AB000F0F004012009642101FB1089A88900F4D9
:101AC000004040B1322000EBC900B0FBF1F000F063
:101AD0000700044308E0322000EB09106421B0FB4A
:101AE000F1F000F00F0004432C8106B0BDE8F08750
:101AF0004FF41651016000218180C18001810C21C9
:101B0000418100218181704710B502460020108A72
:101B10004FF2FF0318400B884C8823438C882343E3
:101B2000CC8823431843108210BD002101804180DE
:101B30008180C180704721B1828942F40052828144
:101B400004E082894DF6FF731A4082817047F0B538
:101B50000346002400260025002040F66A17B942FB
:101B600000D100BF1846C1F3421401F01F0601273F
:101B700007FA06F5012C01D10C3004E0022C01D14A
:101B8000103000E014301AB107682F43076002E0FC
:101B90000768AF430760F0BD1AB1838A0B438382A5
:101BA00002E0838A8B4383827047028A4FF6F07388
:101BB0001A400282028A0A430282704782894FF2E7
:101BC000FF731A40828182890A438281704721B162
:101BD000828942F00202828104E082894FF6FD731D
:101BE0001A4082817047028A4FF6DF731A400282E0
:101BF000028A0A430282704721B1028A42F480427B
:101C0000028204E0028A4BF6FF731A400282704798
:101C1000C1F308028280704701468888C0F308003B
:101C20007047818941F0010181817047028BD2B2F6
:101C30000283028B42EA012202837047028B02F484
:101C40007F420283028B0A430283704721B1828A5A
:101C500042F02002828204E0828A4FF6DF731A404B
:101C60008282704721B1828A42F01002828204E0AF
:101C7000828A4FF6EF731A408282704721B1828ABE
:101C800042F00802828204E0828A4FF6F7731A401B
:101C90008282704721B1828942F40042828103E04E
:101CA0008289C2F30E028281704721B1828A42F496
:101CB0000062828204E0828A4FF2FF731A408282BD
:101CC0007047828A4FF6FB731A408282828A0A43E7
:101CD0008282704721B1828A42F00202828204E04D
:101CE000828A4FF6FD731A408282704702460020B6
:101CF000B1F5007F00D100BF13880B400BB101206C
:101D000000E00020704701F40072B2F5007F00D1BE
:101D100000BFCA430280704770B50246002400230A
:101D20000025002040F66A16B14200D100BFC1F381
:101D3000421501F01F03012606FA03F3012D02D11B
:101D40009689334006E0022D02D1168A334001E025
:101D5000968A33400C12012606FA04F416883440A1
:101D600013B10CB1012000E0002070BD10B50022BD
:101D7000002340F66A14A14200D100BF0A120124D8
:101D80009440A3B2DC43048010BD00000038014041
:101D90000044004000480040004C0040005000401B
:101DA000F8B506460C461546052E59D2DFE806F072
:101DB00003142536470001210420FEF77BFEA0B264
:101DC000ADF800008DF8035003208DF8020069463D
:101DD0005D48FEF7B3FB45E001210820FEF76AFEEF
:101DE000A0B2ADF800008DF8035003208DF802007A
:101DF00069465648FEF7A2FB34E001211020FEF7A9
:101E000059FEA0B2ADF800008DF8035003208DF804
:101E1000020069464E48FEF791FB23E00121202095
:101E2000FEF748FEA0B2ADF800008DF80350032085
:101E30008DF8020069464748FEF780FB12E0012159
:101E40004020FEF737FEA0B2ADF800008DF8035039
:101E500003208DF8020069463F48FEF76FFB01E062
:101E60000020F8BD00BF0120FBE705282FD2DFE8E6
:101E700000F0030C151C25001AB1334B1033196008
:101E800002E0314B1433196022E01AB12F4B1033AA
:101E9000196002E02D4B1433196019E012B12C4B7C
:101EA000196101E02A4B596112E01AB1294B103334
:101EB000196002E0274B1433196009E01AB1264B70
:101EC0001033196002E0244B1433196000E000BFA6
:101ED00000BF704702460020052A31D2DFE802F039
:101EE000030C151E2700184B08331B680B400BB161
:101EF000012000E0002024E0134B08331B680B4056
:101F00000BB1012000E000201BE00F4B08331B68E1
:101F10000B400BB1012000E0002012E00D4B083314
:101F20001B680B400BB1012000E0002009E00A4BC8
:101F300008331B680B400BB1012000E0002000E0DB
:101F400000BF00BF7047000000080140000C0140C6
:101F500000100140001401400018014010B5044673
:101F60004FF0E020006940F004004FF0E0210861EC
:101F70006FF00400FEF7D5F9544800685449B0FBEF
:101F8000F1F0544908700846007800EB4001C1EBBD
:101F9000C0104FF6FF7101EAC0004F4908804D485C
:101FA000007860434FF0E021486110BD012808D15E
:101FB0004FF0E021096941F002014FF0E022116188
:101FC00007E04FF0E021096921F002014FF0E02223
:101FD00011617047012808D14FF0E021096941F0F3
:101FE00001014FF0E022116107E04FF0E0210969A3
:101FF00021F001014FF0E0221161704710B56FF040
:102000000400FEF78EF9314800683149B0FBF1F069
:10201000304908700846007800EB4001C1EBC01061
:102020004FF6FF7101EAC0002B4908800120FFF73D
:10203000D1FF0020FFF7BAFF10BD0146254A1278F4
:102040004A434FF0E0235A6100229A611A4612690E
:1020500042F001021A6100BF4FF0E022106900F067
:1020600001021AB100F48032002AF5D04FF0E022CC
:10207000126922F001024FF0E0231A6100229A61F6
:10208000704710B50146144B1B884FF0E024636184
:1020900023461B6943F00103236100220FE0002364
:1020A0004FF0E024A36100BF4FF0E023186900F077
:1020B00001031BB100F48033002BF5D0521C8A427F
:1020C000EDD310BD4FF0E02080697047180000206C
:1020D00000127A00140000201600002070B504469B
:1020E0000D46E1B2C748FFF793FD00BF4021C54848
:1020F000FFF7FCFD0028F9D0204670BD00BFC148A5
:10210000008800F020000028F9D0BE48001D00889B
:10211000C0F3080070472DE9F04186B080460C46B8
:1021200015461E460C9FB8F1010F06D0B8F1020FFC
:102130004ED0B8F1030F7CD194E0012144F20400A9
:10214000FEF7B8FCAF48FFF727FC4FF40070ADF87E
:10215000140003208DF8160018208DF8170005A92B
:10216000A948FEF7EBF94FF48060ADF814000420A5
:102170008DF8170005A9A448FEF7E0F925208DF891
:102180000000E8B28DF80100F0B28DF802008DF881
:1021900003706846FEF77BF801940020ADF8080054
:1021A000ADF80A00ADF80C00ADF810000C20ADF849
:1021B0000E0001A99348FFF732FC3A4640F2255140
:1021C0009048FFF7C4FC01218E48FFF7B4FC00BF24
:1021D00001218E48FEF76EFC8D48FFF7DDFB0420E1
:1021E000ADF8140003208DF8160018208DF81700A4
:1021F00005A98548FEF7A2F90820ADF814000420CF
:102200008DF8170005A98048FEF798F926208DF86B
:102210000000E8B28DF80100F0B28DF802008DF8F0
:1022200003706846FEF733F801940020ADF808000B
:1022300000E061E0ADF80A00ADF80C00ADF8100068
:102240000C20ADF80E0001A97148FFF7E8FB3A46F3
:1022500040F225516E48FFF77AFC01216C48FFF7E8
:102260006AFC4DE001216B48FEF724FC6A48FFF749
:1022700093FB4FF48060ADF8140003208DF8160036
:1022800018208DF8170005A96448FEF757F94FF498
:102290000060ADF8140004208DF8170005A95F4810
:1022A000FEF74CF927208DF80000E8B28DF8010008
:1022B000F0B28DF802008DF803706846FDF7E7FF75
:1022C00001940020ADF80800ADF80A00ADF80C004C
:1022D000ADF810000C20ADF80E0001A94E48FFF734
:1022E0009EFB3A4640F225514648FFF730FC01215B
:1022F0004948FFF720FC03E0002006B0BDE8F0816C
:1023000000BF0120F9E70246012A04D0022A09D0C1
:10231000032A15D10DE03B48001D0088C0F30800DA
:1023200008800FE03A48001D0088C0F308000880CC
:1023300008E03948001D0088C0F30800088001E06B
:102340000020704700BF0120FBE7012804D00228CD
:1023500008D0032812D10BE0C1F30802294B1B1D42
:102360001A800BE0C1F30802294B1B1D1A8005E0FF
:10237000C1F30802284B1B1D1A8000BF00BF704725
:1023800011B1274A42F82010704708B540F2255194
:102390001C48FFF7C1FC58B169460120FFF7B3FFA5
:1023A0001F48406820B11E484168BDF800008847BA
:1023B00008BD08B540F225511548FFF7ADFC58B1EE
:1023C00069460220FFF79FFF1548806820B1144836
:1023D0008168BDF80000884708BD08B540F2255166
:1023E0000D48FFF799FC58B169460320FFF78BFFB2
:1023F0000B48C06820B10A48C168BDF80000884792
:1024000008BD00000038014000080140040002003F
:10241000004400400800040000480040000C014057
:102420008000002010B54FF4A060FDF72BFF10BD19
:102430002DE9FE4306460D4617469846012000FA50
:1024400005F148223046FFF7ABFC01210846FEF7B4
:1024500031FBE9B2F0B2FEF787F90120A840019004
:1024600000208DF808000C208DF8090001208DF85F
:102470000A0001A8FDF782FF102D29D2DFE805F040
:10248000080A0C0E10121416181A1C1E20222426DC
:1024900006241EE007241CE008241AE0092418E0A2
:1024A0000A2416E0172414E0172412E0172410E081
:1024B00017240EE017240CE028240AE0282408E062
:1024C000282406E0282404E0282402E0282400E050
:1024D00000BF00BFE0B28DF80000F8B28DF8010037
:1024E00008F0FF008DF8020001208DF80300684617
:1024F000FDF7CDFEBDE8FE83F8B507460D4616464E
:10250000102D29D2DFE805F0080A0C0E101214165F
:10251000181A1C1E2022242606241EE007241CE074
:1025200008241AE0092418E00A2416E0172414E00D
:10253000172412E0172410E017240EE017240CE0F3
:1025400028240AE0282408E0282406E0282404E0BF
:10255000282402E0282400E000BF00BFE0B28DF88C
:1025600000008DF803606846FDF791FEF8BD11B1DB
:10257000854A42F82010704710B50120FDF764FF2E
:10258000012808D18048006810B17F490868804759
:102590000120FDF76AFF10BD10B50220FDF754FFC2
:1025A000012808D17848406810B1774948688047C9
:1025B0000220FDF75AFF10BD10B50420FDF744FFBF
:1025C000012808D17048806810B16F498868804739
:1025D0000420FDF74AFF10BD10B50820FDF734FFB9
:1025E000012808D16848C06810B16749C8688047A9
:1025F0000820FDF73AFF10BD10B51020FDF724FFAD
:10260000012808D16048006910B15F490869804716
:102610001020FDF72AFF10BD10B52020FDF714FF94
:10262000012809D15848406910B157494869804785
:102630002020FDF71AFF3EE04020FDF705FF0128AE
:1026400009D15148806910B14F49886980474020BD
:10265000FDF70BFF2FE08020FDF7F6FE012809D1E2
:102660004948C06910B14849C86980478020FDF7D2
:10267000FCFE20E04FF48070FDF7E6FE01280AD151
:102680004148006A10B14049086A80474FF48070A1
:10269000FDF7EBFE0FE04FF40070FDF7D5FE0128CB
:1026A00009D13948406A10B13749486A80474FF428
:1026B0000070FDF7DAFE10BD10B54FF48060FDF735
:1026C000C3FE01280AD13048806A10B12E49886AB9
:1026D00080474FF48060FDF7C8FE53E04FF4006080
:1026E000FDF7B2FE01280AD12748C06A10B1264979
:1026F000C86A80474FF40060FDF7B7FE42E04FF430
:102700008050FDF7A1FE01280AD11F48006B10B1CF
:102710001D49086B80474FF48050FDF7A6FE31E05D
:102720004FF40050FDF790FE01280AD11648406B87
:1027300010B11549486B80474FF40050FDF795FEE6
:1027400020E04FF48040FDF77FFE01280AD10E48BB
:10275000806B10B10C49886B80474FF48040FDF7C7
:1027600084FE0FE04FF40040FDF76EFE012809D112
:102770000548C06B10B10449C86B80474FF4004056
:10278000FDF773FE10BD0000900000202DE9FF4F03
:1027900085B005468A469B46129F0AEBCA004FEA5F
:1027A000C00944F62060B9FBF0F084B2012C03DCD0
:1027B00000241FFA89F814E0012C0ADD42F210709F
:1027C000844206DC601E84B2B9FBF4F01FFA80F884
:1027D00007E042F21070844203DD002009B0BDE83A
:1027E000F08FB5F1804F05D11C2601210846FEF778
:1027F0006EF910E0FE48854205D11D260121022018
:10280000FEF765F907E0FB48854204D11E26012149
:102810000420FEF75CF9ADF80C80ADF8084000200C
:10282000ADF80E00ADF80A0002A92846FEF77AFAC4
:102830003A4628460799FEF7ECFDF0B28DF8040001
:1028400000208DF805000BF0FF008DF806008DF8D4
:10285000077001A8FDF71BFD39462846FEF7BEFDAF
:102860000120BBE72DE9FF4F85B005468A469B4610
:10287000129FE1480AFB00F947F23050B9FBF0F033
:1028800084B2012C03DC00241FFA89F817E0012C24
:102890000ADD49F64040844206DC601E84B2B9FB82
:1028A000F4F01FFA80F80AE044F62060844206DD66
:1028B000D2A001F00BFC002009B0BDE8F08FB5F10B
:1028C000804F05D11C2601210846FEF700F910E0D3
:1028D000C748854205D11D2601210220FEF7F7F8E1
:1028E00007E0C448854204D11E2601210420FEF7DA
:1028F000EEF8ADF80C80ADF808400020ADF80E0001
:10290000ADF80A0002A92846FEF70CFA3A46284616
:102910000799FEF77EFDF0B28DF8040000208DF8D7
:1029200005000BF0FF008DF806008DF8077001A878
:10293000FDF7ADFC3A4628460799FEF76AFD394691
:102940002846FEF74BFD0120B6E72DE9F843044683
:10295000884617461E46324641462046FEF759FD38
:10296000B4F1804F01D11C2508E0A148844201D177
:102970001D2503E09F48844200D11E25E8B28DF852
:10298000000000208DF80100F8B28DF802008DF8EB
:1029900003606846FDF77BFCBDE8F8837FB505461C
:1029A0000C466020ADF800000120ADF802000020C8
:1029B000ADF80800012C06D0022C0DD0032C14D049
:1029C000042C24D11AE069462846FEF7E8F90821CC
:1029D0002846FEF733FE1BE069462846FEF721FA3B
:1029E00008212846FEF733FE12E069462846FEF726
:1029F00065FA08212846FEF737FE09E069462846B1
:102A0000FEF7A7FA08212846FEF737FE00E000BFD0
:102A100000BF7FBD2DE9FE4305460E469146B046F8
:102A200044F62060B8FBF0F084B2012C05DC0024F1
:102A3000A8F10100804687B216E0012C0ADD42F2BF
:102A40001070844206DCB8FBF4F0401E87B2601EB2
:102A500084B209E042F21070844205DD6CA001F0FE
:102A600035FB0020BDE8FE83B5F1804F04D1012184
:102A70000846FEF72CF80EE05D48854204D101219E
:102A80000220FEF724F806E05A48854203D10121CE
:102A90000420FEF71CF8ADF80470ADF800400020EB
:102AA000ADF80600ADF8020069462846FEF73AF98F
:102AB00049462846FEF792FC0120D3E770B505464B
:102AC0000C46B5F1804F22D1012C06D0022C0AD041
:102AD000032C0ED0042C18D111E018220121002063
:102AE000FFF75EF912E0182202210020FFF758F9E3
:102AF0000CE0182204210020FFF752F906E018220A
:102B000008210020FFF74CF900E000BF4DE03848F5
:102B1000854222D1012C06D0022C0AD0032C0ED0E3
:102B2000042C18D111E0182240210020FFF738F9B9
:102B300012E0182280210020FFF732F90CE0182261
:102B400001210846FFF72CF906E018220221012096
:102B5000FFF726F900E000BF27E02648854224D190
:102B6000012C06D0022C0AD0032C0ED0042C1AD132
:102B700012E0182240210120FFF712F914E0182278
:102B800080210120FFF70CF90EE018224FF480712C
:102B90000120FFF705F907E018224FF4007101202A
:102BA000FFF7FEF800E000BF00BF70BD2DE9F04761
:102BB0000746884614461D461A48B0FBF4F6B0FB9B
:102BC000F4F104FB1109B9EB540F00D3761C414614
:102BD0003846FFF773FF2A4631463846FFF71AFF9B
:102BE00041463846FFF7DAFE294638461CE0000029
:102BF00000040040000800404019010054696D5F66
:102C00006D7320697320746F6F206D7563680000A9
:102C100054696D5F757320697320746F6F206D75D3
:102C20006368000000A24A04FEF7D8FBBDE8F08705
:102C30002DE9F04105460E46144642F210708442DA
:102C400002D90020BDE8F081AF8D781C604342F2CC
:102C50001071B0FBF1F4012E06D0022E09D0032E24
:102C60000CD0042E14D10EE0A1B22846FEF74EFE81
:102C70000FE0A1B22846FEF74BFE0AE0A1B22846BB
:102C8000FEF748FE05E0A1B22846FEF745FE00E04B
:102C900000BF00BF0120D5E72DE9FF4704460E46DF
:102CA00017469846DDF83090B4F1804F05D11C25C9
:102CB00001210846FDF70BFF10E0D248844205D100
:102CC0001D2501210220FDF702FF07E0CE488442C6
:102CD00004D11E2501210420FDF7F9FEADF808609E
:102CE000ADF804700020ADF80A00ADF8060001A9A7
:102CF0002046FEF717F8E8B28DF8000002208DF8A4
:102D0000010008F0FF008DF8020001208DF803009B
:102D10006846FDF7BCFA49462046FEF75FFB0020F7
:102D200004B0BDE8F0872DE9F04107460E46B7F143
:102D3000804F42D101210846FDF7C9FE0121042040
:102D4000FDF7B8FE012E06D0022E10D0032E1AD0A9
:102D5000042E30D123E0282201210020FFF720F8A3
:102D60000121AA48FDF799FC0024022524E028222D
:102D700002210020FFF714F80221A448FDF78DFC82
:102D80000424042518E0282204210020FFF708F875
:102D900004219E48FDF781FC082408250CE0282228
:102DA00008210020FEF7FCFF08219848FDF775FC7C
:102DB0000C24102500E000BF93E09248874246D1E2
:102DC00001210220FDF783FE01210820FDF772FE9C
:102DD00001210420FDF76EFE012E06D0022E10D038
:102DE000032E1AD0042E30D123E0282240210020C7
:102DF000FEF7D6FF40218548FDF74FFC0024022551
:102E000024E0282280210020FEF7CAFF80217F488D
:102E1000FDF743FC0424042518E02822012108467C
:102E2000FEF7BEFF01217A48FDF737FC082408258C
:102E30000CE0282202210120FEF7B2FF0221744893
:102E4000FDF72BFC0C24102500E000BF49E06E4884
:102E5000874246D101210420FDF739FE01210820D7
:102E6000FDF728FE012E06D0022E10D0032E1AD018
:102E7000042E34D125E0282240210120FEF790FFC6
:102E800040216348FDF709FC0024022528E02822A0
:102E900080210120FEF784FF80215D48FDF7FDFBC6
:102EA000042404251CE028224FF480710120FEF741
:102EB00077FF4FF480715648FDF7EFFB0824082593
:102EC0000EE028224FF400710120FEF769FF4FF455
:102ED00000714F48FDF7E1FB0C24102500E000BF16
:102EE00000BF04EB0540BDE8F0812DE9FF47074630
:102EF0000C4615461E46DDE90C8921463846FFF78B
:102F000012FF1FFA80FA01204346324629460090FC
:102F10003846FFF7C1FE012C06D0022C0AD0032C44
:102F20000ED0042C18D111E0012203213846FEF7FF
:102F300070FA12E0012205213846FEF76AFA0CE029
:102F4000012209213846FEF764FA06E00122112128
:102F50003846FEF75EFA00E000BF00BF01210A46D6
:102F60003846FEF756FA0AF0FF00ADF804000020DC
:102F7000ADF806000120ADF808000020ADF80A0009
:102F8000ADF80C9001A93846FEF75FF901213846EB
:102F9000FEF724FABDE8FF8711B11E4A42F820105F
:102FA000704770B504460D4629462046FEF716FACE
:102FB00070BD10B51748806818B1164988688047F9
:102FC00004E003214FF08040FEF7E2FC10BD10B595
:102FD0001048C06818B10F49C868804703E0032152
:102FE0000848FEF7D5FC10BD10B50A48006918B1B5
:102FF00008490869804703E003210348FEF7C8FC3D
:1030000010BD00000004004000080040000801401E
:10301000000C0140D000002008B501210820FDF778
:1030200049FD4FF44060ADF8000010208DF803001A
:1030300003208DF8020069469748FDF77FFA4FF4A8
:1030400040619548FDF727FB08BD10B59248001D6B
:10305000006820F470409049091D08600846006827
:1030600040F44050086001208C4908608C49C1F848
:10307000A8010420FEF7E1FF002088490860042031
:10308000FEF7DBFF00208649C1F8A80110BD10B58E
:103090008148001D006820F470407F49091D0860C8
:1030A0000846006840F44050086000207B49091F32
:1030B00008607B49C1F8AC010420FEF7BEFF012087
:1030C0007649091F08607649C1F8AC010420FEF773
:1030D000B4FF10BD10B500246F48001D006820F437
:1030E00070406D49091D08600846006840F40040C2
:1030F0000860012069490860FEF79FFF01206849C8
:10310000C1F8A801FEF799FF07E0601CC4B2FA2CD1
:1031100003DDFFF7BCFF012010BD60488038006868
:103120000028F2D15D49091F086000BFF4E710B51F
:1031300000205A49091F08605748001D006820F404
:1031400070405549091D08600846006840F4405029
:10315000086000205249C1F8AC010220FEF76DFF63
:1031600001204E49091F08600220FEF766FF00207B
:103170004B49C1F8A80110BD10B500204749091FEF
:1031800008604548001D006820F470404249091D50
:1031900008600846006840F440500860012040493B
:1031A000C1F8AC010220FEF748FF01203B49091F8E
:1031B00008600220FEF741FF00203949C1F8A8014C
:1031C00010BD70B504463448001D006820F47040FE
:1031D0003149091D08600846006840F44050086005
:1031E00000202E49091F086000251DE0E00918B1E4
:1031F00001202A49086002E0002028490860600692
:10320000040E0220FEF719FF01202449091F08605F
:103210000220FEF712FF00202149C1F8A801022078
:10322000FEF70BFF681CC5B2082DDFDB70BD70B563
:10323000054600241848001D006820F47040164917
:10324000091D08600846006840F400400860002638
:1032500017E000201149091F08600220FEF7EDFE6B
:1032600001200F49C1F8A8016006040E0B48803800
:10327000006808B1601CC4B20120FEF7DEFE701CBD
:10328000C6B2082EE5DB15B9FFF776FF01E0FFF7C0
:103290004EFF204670BD0000000C0140AC81214271
:1032A0000080214270B505460C46FFF7CEFED020C7
:1032B000FFF787FFFFF70EFF2846FFF782FFFFF7B4
:1032C00009FF2046FFF77DFFFFF704FFFFF7DFFE52
:1032D00070BD70B50446FFF7B8FED020FFF771FF50
:1032E000FFF7F8FE2046FFF76CFFFFF7F3FEFFF74E
:1032F000ACFED120FFF765FFFFF7ECFE0020FFF7E3
:1033000096FF0546FFF7C3FE284670BD10B50021A5
:103310006B20FFF7C7FF07211920FFF7C3FF062126
:103320001A20FFF7BFFF18211B20FFF7BBFF012169
:103330001C20FFF7B7FF10BD10B57520FFF7C9FFC0
:10334000682801D1012010BD0020FCE770B50446BB
:1033500000260020A0820021E1822183E0812182D9
:103360006182A081002514E00020A0824320FFF7A5
:10337000B0FFA082207D000200B2A0824420FFF7AF
:10338000A8FFB4F914100843A082B4F9140006444D
:103390006D1CB5F5FA6FE7DB96FBF5F000B2A08285
:1033A0000026002514E00021E1824520FFF791FF6F
:1033B000E082A07D000201B2E1824620FFF789FF92
:1033C000B4F916100843E082B4F9160006446D1CE7
:1033D000B5F5FA6FE7DB96FBF5F001B2E182002666
:1033E000002514E0002121834720FFF772FF20838E
:1033F000207E000201B221834820FFF76AFFB4F962
:10340000181008432083B4F9180006446D1CB5F564
:10341000FA6FE7DB96FBF5F001B22183002670BD61
:1034200010B504464320FFF754FFE080A079000266
:1034300000B2E0804420FFF74CFFB4F906100843C7
:10344000E080E088A18A401A00B2E0804520FFF7C2
:1034500040FF2081207A000201B221814620FFF73F
:1034600038FFB4F90810084320812189E08A081A3E
:1034700001B221814720FFF72CFF6081A07A000272
:1034800001B261814820FFF724FFB4F90A10084314
:1034900060816189208B081A01B261813B20FFF7AE
:1034A00018FF20802078000200B220803C20FFF727
:1034B00010FFB4F90010084320802088E189401AE9
:1034C00000B220803D20FFF704FF6080A07800025A
:1034D00000B260803E20FFF7FCFEB4F90210084302
:1034E00060806188208A081A00B260803F20FFF760
:1034F000F0FEA0802079000200B2A0804020FFF7FB
:10350000E8FEB4F904100843A080A188608A081A74
:1035100000B2A0804120FFF7DCFEA081207B0002EA
:1035200000B2A0814220FFF7D4FEB4F90C1008438A
:10353000A08110BD2DE9F84F8246BAF90010494329
:10354000BAF9022002FB0211BAF9042002FB0210B0
:1035500000F00EFC044600F081F88346BAF9000042
:1035600000F006FC0446594600F03CFACAF8380060
:10357000BAF9020000F0FCFB0446594600F032FAAA
:10358000CAF83C00BAF9040000F0F2FB04465946C0
:1035900000F028FACAF84000DAF84010DAF83800EB
:1035A00000F020FA009000F0FDFB804601F06CFA7C
:1035B0000646274A274B00F0FAFA044600F005FCBD
:1035C000CAF83800DAE90F0100F00CFA009000F0B8
:1035D000E9FB064601F058FA80461D4A1D4B00F0F3
:1035E000E6FA044600F0F1FBCAF83C00BDE8F88FAB
:1035F0002DE9F0410446B4F9060000F0C2FB07468D
:103600004FF06632144B00F044FB054600F0DDFB42
:103610006064B4F9080000F0B4FB07464FF066326E
:103620000D4B00F036FB054600F0CFFBA064B4F96B
:103630000A0000F0A6FB07464FF06632064B00F08A
:1036400028FB054600F0C1FBA064BDE8F081000046
:10365000CC4DCC6194A94C40666630402DE9F05FBA
:1036600004464FF07F594FF07C51204600F088F916
:10367000824625462E461448A0EB66063546294666
:10368000504600F07DF98346294600F079F98046DE
:10369000494600F072F90746294600F071F90546DF
:1036A0002946504600F06CF98346294600F068F937
:1036B0008046494600F061F90746294600F060F966
:1036C00005462846BDE8F09FDF59375F064880472A
:1036D00006480047FEE7FEE7FEE7FEE7FEE7FEE7F7
:1036E000FEE7FEE7FEE7FEE7CF370008ED00000843
:1036F0000CB50020019000906C48006840F48030C8
:103700006A49086000BF6948006800F40030009012
:103710000198401C0190009818B90198B0F5A06F6D
:10372000F1D16248006800F4003010B1012000902F
:1037300001E0002000900098012843D15C48006817
:1037400040F010005A4908600846006820F0030065
:1037500008600846006840F002000860534840686E
:10376000524948600846406848600846406840F44E
:10377000806048600846406820F47C104860084635
:10378000406840F4E81048600846006840F08070E7
:10379000086000BF4548006800F000700028F9D0BC
:1037A0004248406820F003004049486008464068AD
:1037B00040F00200486000BF3C48406800F00C0048
:1037C0000828F9D10CBD10B5FFF792FF10BD10B558
:1037D0003648006840F001003449086008464068F7
:1037E0003449084031494860084600683249084079
:1037F0002E4908600846006820F4802008600846CA
:10380000406820F4FE0048604FF41F008860FFF716
:10381000DAFF4FF000602949086010BD10B50021A3
:1038200000200022214B5B6803F00C0121B1042928
:1038300006D0082928D107E0214B224C236027E03D
:103840001F4B204C236023E0184B5B6803F470107F
:10385000164B5B6803F48032022303EB904022B9DD
:10386000194B4343174C23600DE0104B5B6803F486
:10387000003323B1144B4343124C236003E0104B3D
:103880004343104C236003E00D4B0E4C236000BFFC
:1038900000BF064B5B68C3F303130C4CE15C094BA0
:1038A0001B68CB40074C236010BD00000010024095
:1038B000002002400000FFF8FFFFF6FE08ED00E0E8
:1038C00000127A001800002000093D001C000020B2
:1038D000F0B480EA0102D40F4200B2EB410F02D2F1
:1038E0000246084611464A0042D0C30DDDB2C1F37C
:1038F000C752AD1A202D35DAC1F3160141F400028A
:1039000004B15242C5F1200602FA06F12A411044E0
:10391000B3EBD05F23D0C4B1012DA0EBC35009DCC1
:10392000F0BC4FF0004202EAC352DBB200F50000E7
:1039300000F0D8BA400000F1807000EBC350A0F155
:10394000807040EAD170490009E0490841EAC0713D
:10395000A0EBC35000F50000400800EBC350F0BCE2
:1039600000F0B7BA6142012202EB4101001BF6E709
:10397000F0BC704781F00041AAE780F00040A7E763
:1039800080EA010210B502F00043400022D04A0054
:103990001FD0010E01EB1261C0F35600C2F35602B4
:1039A00040F4000042F40002A0FB022000047F3932
:1039B000140400D0401C50EA124001D44000491EBB
:1039C000C2B20C0604EBD010401C4008802A02D082
:1039D00003E0002010BD20F00100002900DA0020E3
:1039E000184310BD30B480EA010202F0004530F007
:1039F000004221F0004013D090B1C30DD40DC2F3AA
:103A00001601C0F31600E41A41F4000140F400026C
:103A10007D34914201D3641C00E04900002C02DA9D
:103A200030BC002070474FF400000023914201D3C6
:103A3000891A034340084FEA4101F7D151B191423D
:103A400002D14FF0004105E002D24FF0010101E048
:103A50006FF0010103EBC450284430BC00F039BAC8
:103A60002DE9FE4F804681EA0300C00F0C4600900E
:103A700021F0004123F00045B8EB0200A94105D236
:103A80004046214690461C460B46024623F0004025
:103A9000104347D0270DC7F30A00C3F30A51029021
:103AA000401A019040286BDAC3F3130040F4801BE6
:103AB0000098924620B10023D2EB030A63EB0B0B74
:103AC00001985946C0F14002504600F0E1F906461F
:103AD0000D4650465946019A00F0E9F910EB0800EE
:103AE0006141002487EA115284EAE7731A4340D007
:103AF000009A62B3019A012A4FEA075215DC001BB3
:103B000061EB02014FF0004202EA0752CDE90042A8
:103B1000001C41F5801132462B4600F020FA03B01C
:103B2000BDE8F08F40462146F9E7001B61EB02013A
:103B3000001C41F5801300185B412018A2F5001706
:103B400047EB030140EAD570B6196D4111E06D08ED
:103B50004FEA360645EAC0754FEA0752001B61EB93
:103B60000201001C41F5801149084FEA300000199C
:103B7000514132462B4603B0BDE8F04F00F0E0B9AA
:103B80000098012240000023D0EB020263EBE073B7
:103B9000009821464FEAE074B8EB000061EB0401A5
:103BA000E9E783F000435BE781F0004158E72DE946
:103BB000FE4F81EA030404F0004421F00041009428
:103BC0004FF0000B23F0004350EA01045ED052EAAC
:103BD00003045BD0C3F30A54C1F30A552C44A4F286
:103BE000F3340194A0FB0254C1F3130141F480119A
:103BF000C3F3130343F4801301FB024400FB034EA1
:103C0000840A970A44EA815447EA8357A4FB076869
:103C100002958D0A05FB07854FEA932C04FB0C5493
:103C20002705029D4FEA065847EA1637B5EB080507
:103C30006EEB070C870E920E47EA811742EA831259
:103C4000A7FB0201B6EB0B0164EB00042B0D43EA6A
:103C50000C335E1844EB1C50DA465146E7FB020178
:103C6000C5F313044FEA0B3343EA14534FEA04320B
:103C7000019C43EA0603A4F10C040294009CCDE9E4
:103C800000B400F06CF903B0BDE8F08F00200146ED
:103C9000F9E72DE9F04D81EA030404F0004B21F02F
:103CA000004514464FF0000A23F0004150EA050297
:103CB00020D054EA01021DD0C5F30A570246C5F3CD
:103CC0001303C1F31300C1F30A5640F4801543F403
:103CD0008013A7EB0608101BD64608F2FD3873EBDD
:103CE000050002D308F1010801E092185B41B8F128
:103CF000000F03DA00200146BDE8F08D00204FF4EC
:103D00008011064684460EE0171B73EB050705D3AA
:103D1000121B63EB050306434CEA010C49084FEA0A
:103D2000300092185B4150EA0107EDD152EA0300DE
:103D300012D082EA040083EA0501084305D0101B73
:103D4000AB4106D20122002306E000224FF00043DF
:103D500002E06FF0010253101AEB06004CEB085121
:103D600010EB0A0041EB0B01BDE8F04D00F0E8B8A4
:103D7000C10F80EAE0700844CA079623002100F0D2
:103D8000B1B80EB5C10F80EAE0700844CA0700213F
:103D900040F233438DE80E000A460B4600F0DFF890
:103DA00003B000BD00F0004230F000400AD0C10D69
:103DB00001F56071C0F3160042EA0151C2084007E4
:103DC0001143704700200146704701F0004330B4B2
:103DD00021F0004150EA010206D00A0DA2F56072FE
:103DE000C1F31301002A02DC30BC00207047440FED
:103DF00044EAC104C100E01830BC00EBC25000F03E
:103E000068B830B50B46014600202022012409E0A5
:103E100021FA02F59D4205D303FA02F5491B04FA83
:103E200002F52844151EA2F10102F1DC30BD2DE996
:103E3000F05F0546002092469B468846064681462E
:103E400040241BE0284641464746224600F02EF912
:103E500053465A46C01A914110D31146184622467D
:103E600000F016F82D1A67EB01084F462246012094
:103E7000002100F00DF817EB00094E41201EA4F1BF
:103E80000104DFDC484631462A464346BDE8F09F40
:103E9000202A04DB203A00FA02F10020704791400A
:103EA000C2F1200320FA03F3194390407047202AFF
:103EB00006DBCB17203A41FA02F043EAE07306E052
:103EC00041FA02F3D040C2F1200291400843194662
:103ED00070470029A8BF7047401C490008BF20F068
:103EE0000100704710B4B0FA80FC00FA0CF050EA00
:103EF000010404BF10BC704749B1CCF1200421FA81
:103F000004F411FA0CF118BF012121430843A3EB7B
:103F10000C01CB1D4FEA00614FEA102042BF002088
:103F200010BC704700EBC35010440029A4BF10BC64
:103F30007047401C490008BF20F0010010BC7047CA
:103F400010B5141E73F1000408DA401C41F10001A1
:103F500092185B411A4301D120F0010010BD2DE9F8
:103F6000F04D92469B4611B1B1FA81F202E0B0FAEF
:103F700080F220329046FFF78BFF04460F4640EA5E
:103F80000A0041EA0B0153465A46084313D0114632
:103F900053EA010019D0C8F14002504600F086F8FB
:103FA00005460E46504659464246FFF771FF084304
:103FB00005D0012004E020463946BDE8F08D002000
:103FC000054346EAE0762C4337430A986305E40A42
:103FD000A0EB08000022FD0A44EA47540A3002D54B
:103FE00000200146E9E7010510196941DDE90845AE
:103FF00000196941BDE8F04DA2E770B521F000431A
:1040000003430CD0C1F30A550024D5EB040564EB3F
:104010000403D617AD1AB34102DB0020014670BD80
:10402000201841EB025170BDC1F30A52C1F31301D4
:1040300040F2FF3341F480119A4202DA0020014637
:10404000704740F233439A42A2F2334202DC5242BA
:1040500000F02CB8FFF71CBF30B5041E71F100044E
:1040600004DB4FF00044404264EB0101141E73F185
:10407000000405DB1C464FF00043524263EB04038F
:10408000994208BF904230BD064C074D06E0E068FB
:1040900040F0010394E8070098471034AC42F6D38F
:1040A000FCF728F8404D0008604D0008202A04DB8A
:1040B000203A21FA02F00021704721FA02F3D040A1
:1040C000C2F1200291400843194670470FB4054BD6
:1040D00010B503A9044A029800F03EF910BC5DF83F
:1040E00014FB0000DD2000082C000020490050EAED
:1040F000C12018BF04204A0D18BF40F0010040F253
:10410000FF72B2EB515F08BF40F00200012808BF08
:10411000052070472DE9F0414F1E00EBC701044612
:10412000D1E9000115461E4637F006020DD02A4699
:104130003346FFF73CFD7F1E04EBC703D3E90023A2
:10414000FFF78EFC37F00602F1D1022F25D0042FA5
:1041500013D0062F18BFBDE8F0812A463346FFF77B
:1041600026FDD4E90A23FFF77BFC2A463346FFF7F6
:104170001EFDD4E90823FFF773FC2A463346FFF7F8
:1041800016FDD4E90623FFF76BFC2A463346FFF7FA
:104190000EFDD4E90423FFF763FC2A463346FFF7FC
:1041A00006FDD4E90223FFF75BFC2A463346FFF7FE
:1041B000FEFCD4E90023BDE8F041FFF751BC012229
:1041C000FFF71BBF024A00201107FFF716BF0000D0
:1041D00001FDFFFF02E008C8121F08C1002AFAD142
:1041E00070477047002001E001C1121F002AFBD177
:1041F000704700002DE9FF5FDDE90220010DDDF8C9
:1042000038B0024318D044F61050A1F2FF314143B8
:104210000D140F98012820D0A5EB0B00401C5FEA7D
:10422000000A4FF00004474EDFF81C91A0465046AC
:1042300016D5CAF1000728E00F98012443A20128EF
:1042400008D0002100980F9BC0E90021C0E902437B
:10425000BDE8FF9F6FEA0B01F4E7CBF10000DEE75A
:10426000074612E0F80707D0224633464046494643
:10427000FFF79DFC80468946224633461046194684
:10428000FFF795FC04460E467F10002FEAD1DDE9CA
:104290000201BAF1000F42464B4602DAFFF787FCF3
:1042A00001E0FFF7F6FC04460E460022284BFFF71C
:1042B000D3FE03D84FF0FF30014607E00022254B24
:1042C00020463146FFF7CCFBFFF7AEFE102409E095
:1042D000002C0ADB0A220023FFF7A9FD019B3032E4
:1042E0001A55641E50EA0102F2D1641C019AC4F10D
:1042F000110314440F9A012A03D0012208430DD15F
:104300000AE0084304D000204FF0110B0F9080E723
:10431000A3EB0B056D1E0DE05B4504DD4FF00002C5
:1043200005F1010504E003DA4FF00002A5F10105F3
:10433000002AECD000980F99C0E90231C0E900458D
:1043400086E70000000024400000F03F300000003D
:104350000000F0430000E03F2DE9FF4F95B09B4681
:104360008946064600250FE2252877D100242746F6
:10437000F84A0121059400E0044316F8013F203B70
:1043800001FA03F01042F7D130782A2811D06FF0EB
:104390002F033078A0F13002092A16D8059A44F08C
:1043A000020402EB820203EB42021044761C0590E9
:1043B000EFE759F8042B0592002A03DA504244F43F
:1043C0000054059044F00204761C30782E2816D153
:1043D00016F8010F44F004042A280DD06FF02F02C4
:1043E0003078A0F13003092B09D807EB870302EBE3
:1043F0004303C718761CF3E759F8047B761C307822
:104400006C280FD006DC4C2817D068280DD06A28FD
:1044100014D104E0742810D07A280FD10DE044F4B0
:1044200000140AE044F4801401E044F4401472786B
:10443000824202D104F58014761C761C30786628FE
:104440000BD013DC582877D009DC002875D045281C
:10445000F6D04628F4D047281AD19DE118E0632809
:1044600035D0642879D0652812D195E1702873D0B1
:1044700008DC6728F1D069286FD06E280DD06F282E
:1044800006D1B5E073282CD0752875D0782874D063
:104490005A46179990476D1C75E1C4F302500228E3
:1044A00009D003280DD0D9F8001004280DD00D60D4
:1044B00009F1040967E1D9F80010EA17C1E90052CF
:1044C000F6E7D9F800100D80F2E70D70F0E719F863
:1044D000041B8DF8001000208DF80100EA46012031
:1044E00003E059F804AB4FF0FF3061074FF00001D3
:1044F00002D40DE008F101018846B9420FDA804587
:10450000F8DB1AF808100029F4D108E008F10101DD
:1045100088468142FADB1AF808100029F6D105987E
:104520005B46A0EB080721463846179A00F094FA3C
:10453000284400EB080507E04DE029E10DE01AF8FA
:10454000010B5A4617999047B8F10108F7D25B461C
:1045500021463846179A13E142E00A220092C4F33A
:1045600002524FF0000A022A08D059F804CB032A5D
:104570004FEAEC710AD00DE029E02AE009F10701C9
:1045800021F00702F2E802C1914609E00FFA8CFC23
:104590004FEAEC71042A03D14FFA8CFC4FEAEC711C
:1045A000002907DA0A460021DCF1000C61EB020168
:1045B0002D2202E0220504D52B228DF804200122B1
:1045C00003E0E20701D02022F7E7904659E00A21F4
:1045D00002E010220DE010214FF0000A00910BE0E4
:1045E00010224FF0000A44F004040827009203E070
:1045F00008224FF0000A0092C4F30252022A05D0AA
:1046000059F804CB0021032A08D009E009F1070179
:1046100021F00702F2E802C1914605E01FFA8CFC86
:10462000042A01D10CF0FF0C4FF00008220728D516
:10463000702806D0009B83F0100353EA0A0305D0CC
:104640000EE040228DF80420012208E05CEA01021D
:1046500006D030228DF804208DF805000222904605
:10466000009B83F0080353EA0A030AD15CEA0102C3
:1046700001D1620705D530228DF804204FF00108E2
:104680007F1E582804D034A003900EA802900DE09D
:1046900036A0F9E753466046009AFFF7C8FB844608
:1046A0000398825C0298401E029002705CEA01004E
:1046B000F0D1029806A9081A00F1200A600702D575
:1046C00024F4803400E00127574502DDA7EB0A00FF
:1046D00000E0002000EB0A01009005984144401AD8
:1046E0000590E00306D45B462146179A059800F032
:1046F000B3F90544002706E001A85A46C05D1799A2
:1047000090476D1C7F1C4745F6DBE0030CD55B46EC
:104710002146179A059800F09FF9054404E03020DF
:104720005A46179990476D1C0099481E0090002921
:10473000F5DC08E0029802995A460078491C02917B
:10474000179990476D1CBAF10001AAF1010AF1DC3A
:1047500065E1000009280100303132333435363745
:1047600038396162636465660000000030313233BD
:10477000343536373839414243444546000000005D
:1047800000F058F90544761C307800287FF4ECAD31
:1047900019B02846BDE8F08F620700D4062709F15A
:1047A000070222F0070CFCE80223E14603F0004870
:1047B0005FEA080C02D00FF2702C0DE05FEA045C97
:1047C00002D50FF2682C07E05FEAC47C02D00FF23A
:1047D000602C01E0AFF2700C4FF0FF3823F0004383
:1047E000CDF850C065280CD006DC452809D04628F5
:1047F0001DD047283DD13DE0662818D067287ED1DE
:1048000038E00021112F01DB112000E0781CCDE9F8
:10481000000106A90EA8FFF7EDFCDDE90F010E9AD5
:1048200003910021009207F1010A04914DE04FF03D
:1048300000400097CDE9011006A90EA8FFF7DAFCA9
:10484000DDE90F0203920E9B11990022DDF80CA006
:104850000093049211B9791C00EB010AB7EB0A002E
:1048600004D4C0F1FF3007F1010A0490AAEB07005D
:10487000019044E0012F00DA01270021112F01DD12
:10488000112000E03846CDE9000106A90EA8FFF787
:10489000B1FCDDE90F010E9A039100210491009211
:1048A000BA4621070CD40399514500DA8A46BAF179
:1048B000010F05DD009AAAF10101515C302908D0F1
:1048C000B84202DA10F1040F06DA0121CDE9011035
:1048D00015E0AAF10101E9E7002805DC049901448B
:1048E0000491AAEB000102E0411C514500DD8A461B
:1048F0000499401A401C01904FF00040029020079C
:1049000004D40198504501DBCDF8048000208DF8D7
:104910004F0002980DF14F07B0F1004F25D02B202A
:104920000E9002984FF0020800280CDA40420290E4
:104930002D200E9007E00A210298FFF762FA30312D
:10494000029007F8011DB8F10001A8F10108F2DC9E
:1049500002980028EFD1791E0E980870307800F088
:10496000200040F0450007F8020D12A8C01B00F11E
:1049700007081498007800B1012000EB0A010198A3
:1049800001EBE07105984144401A401E0590E00398
:1049900006D45B462146179A059800F05DF8054459
:1049A0001498007818B15A46179990476D1CE00387
:1049B00024D55B462146179A059800F04DF805442A
:1049C0001CE00498002807DBDDE90301884203DDD1
:1049D0000098405C179901E0179930205A4690479B
:1049E000049805F10105401C04900198401E0190B7
:1049F00004D12E205A46179990476D1CBAF1000138
:104A0000AAF1010ADDDC05E017F8010B5A461799F7
:104A100090476D1CB8F10001A8F10108F4DC5B4679
:104A20002146179A0598ABE62D0000002B000000E8
:104A3000200000002DE9F041044600251E461746DF
:104A4000880404D405E039462020B0476D1C641E5C
:104A5000F9D52846BDE8F0812DE9F041044600254E
:104A60001E469046C80301D5302700E02027880461
:104A700004D505E041463846B0476D1C641EF9D5A3
:104A80002846BDE8F08100002DE9F84F04460D46A8
:104A900021F0004000917349814211DC7249884243
:104AA00001DC06D12CB120462946BDE8F84FFFF7BE
:104AB00086BB6E48002DCCBF6D496E49BDE8F88FAE
:104AC0006D49814211DD6D498142D8BF4FF0FF36FB
:104AD0006DDD20462946FFF709FB042808BFFFF7D4
:104AE00071FB20462946BDE8F88F6549654F25F0E2
:104AF0000045814233DD6449814219DD002632469A
:104B00004FF0804320462946FEF7AAFF80468A469A
:104B1000012220462946FFF770FA00223B46FFF7A4
:104B200040F842465346FFF7B4F804460D463EE0CF
:104B300001260022BA463B4620462946FEF790FF52
:104B400080460F460022534620462946FFF729F8A3
:104B500042463B46FFF79DF804460D4627E04B4989
:104B600081421BDDDFF828A10226002253462046A1
:104B70002946FFF71CF800223B46FEF771FF8046EE
:104B80000F460022534620462946FFF70AF84246C0
:104B90003B46FFF77EF804460D4608E00326224612
:104BA0002B4600203B49FFF774F804460D46224689
:104BB0002B4610461946FEF7FAFF8B468246024600
:104BC0000B46FEF7F4FF07460246334888460B467D
:104BD00006217844FFF79EFA52465B46FEF7E7FF50
:104BE00082462E488B463A46434605217844FFF7D5
:104BF00091FA3A464346FEF7DAFF02460B46002E8C
:104C0000504659460CDAFEF72BFF22462B46FEF79C
:104C1000CEFF01B022462B46BDE8F04FFEF7C4BFE1
:104C2000FEF71EFF22462B46FEF7C1FF1C4A7A44C0
:104C300002EBC603D3E90023FEF7B3FF22462B465F
:104C4000FEF7AFFF174A7A4402EBC603D3E900230D
:104C5000FEF7AAFF009A002AB8BF81F00041BDE824
:104C6000F88F0000000010440000F07F182D44541D
:104C7000FB21F93FFB21F9BF0000DC3F0000203E93
:104C80000000F33F0000F03F0000E63F00800340DB
:104C90000000F83F0000F0BF3A010000F8000000FB
:104CA000960000005E0000004FBB610567ACDD3F71
:104CB000182D4454FB21E93F9BF681D20B73EF3F43
:104CC000182D4454FB21F93FE2652F227F2B7A3CBB
:104CD000075C143326A6813CBDCBF07A8807703C74
:104CE000075C143326A6913CC4EB98999999C9BFE7
:104CF000711623FEC671BCBF6D9A74AFF2B0B3BF1C
:104D00009AFDDE522DDEADBF2F6C6A2C44B4A2BFDB
:104D10000D5555555555D53FFF8300922449C23F47
:104D20006E204CC5CD45B73F513DD0A0660DB13F7B
:104D3000EB0D76244B7BA93F11DA22E33AAD903F8D
:104D4000604D00080000002030000000D441000841
:104D5000904D000830000020B8040000E441000835
:104D60000000000001020304010203040607080911
:104D7000020406080000000000A24A04000000002F
:104D800000000000010203040607080900000000FB
:04000005080000ED02
:00000001FF
