:020000040800F2
:1000000070060020515A0008595A00085B5A00082F
:100010005D5A00085F5A0008615A0008000000009D
:10002000000000000000000000000000635A00080B
:10003000655A000800000000675A0008695A000865
:100040006B5A00086B5A00086B5A00086B5A00087C
:100050006B5A00086B5A0008E92D0008092E0008A9
:10006000292E0008492E0008692E00086B5A000846
:100070006B5A00086B5A00086B5A00086B5A00084C
:100080006B5A00086B5A00086B5A00086B5A00083C
:100090006B5A00086B5A00086B5A0008892E00083A
:1000A0006B5A00086B5A00086B5A00086B5A00081C
:1000B000133E00082F3E0008493E00086B5A000816
:1000C0006B5A00086B5A00086B5A00086B5A0008FC
:1000D0006B5A0008FB2B0008232C00084B2C00084F
:1000E000292F00086B5A00086B5A0008DFF80CD063
:1000F00006F09EF9004800476F07000870060020D0
:1001000010B5F8480078012814D10220F64908708B
:10011000F649086806F02EF8F3494870F349486834
:1001200006F028F8F0498870F049886806F022F84F
:10013000ED49C870EE480078012808D1EA490870F6
:10014000EC48007800EB80004006000E4870EA485A
:10015000007801281AD10320E3490870E7480078A5
:100160004870E649486806F005F8DF498870E348BA
:10017000007AC870E148807D0871E049886905F01F
:10018000F9FFD9494871DD48007F8871DC48007863
:1001900001281AD10420D4490870DA480078487040
:1001A000D849486805F0E6FFCF498870D548007AFD
:1001B000C870D448807D0871D249886905F0DAFF9B
:1001C000C9494871CF48007F887110BD2DE9F041C1
:1001D000CD480088012851D10020CB490880CB4868
:1001E0000068401CC94908600868C11700EB91719C
:1001F0008910A0EB8101002940D10521042003F0E2
:10020000B0FFC34909680844C1490860BF48006895
:10021000142833DB0020BD490860BD480068052173
:1002200090FBF1F4204605F06EFF0546B94ABA4B43
:1002300005F07FFE074605F0B1FFAE4908800020BB
:10024000B3490860B0490880AA48008805F06CFFEF
:100250000446B24AB24B05F0CDFF0FD2B148006858
:1002600008B9012000E00020AE49086005209E4941
:10027000087008204870AC4803F033F9BDE8F081FD
:1002800010B59A49086805F05CFF04B2A749B1F9B6
:1002900002009A4A214605F065FA9449486805F03B
:1002A00050FF04B2A149B1F90000964A214605F079
:1002B00059FA9F48B0F90000B0F57A7F03DB4FF49C
:1002C0007A709B4908808D48B0F92800C0F5FA6023
:1002D0009749B1F90010401A8A49B1F92810084429
:1002E0009449B1F928100844934908608348B0F94B
:1002F0002800C0F5FA608E49B1F90010401A814912
:10030000B1F92810401A8C4948607C48B0F928009F
:1003100000F5FA608649B1F90010401A7949B1F93F
:100320002810401A8349B1F92810401A8249886080
:100330007248B0F9280000F5FA607D49B1F9001063
:10034000401A7049B1F9281008447B49C860084632
:100350000068B0F57A7F02DB4FF47A700860764867
:100360004068B0F57A7F03DB4FF47A7072494860D9
:1003700071488068B0F57A7F03DB4FF47A706E497C
:1003800088606D48C068B0F57A7F03DB4FF47A70FF
:100390006949C860684801210268880703F078FB52
:1003A000654802214268480703F072FB6248032156
:1003B00082684FF0804003F06BFB5F480421C26805
:1003C000080703F065FB10BD10B54849886805F0C3
:1003D000B8FE04B2574A2146002005F0C3F910BD0B
:1003E00010B556480088012822DB002053490880B8
:1003F0003E4A5349534804F0D5F93C4A50495248C3
:1004000004F0EFF9514800880A280FDB00204F491B
:100410000880364B4E4A4A494E4804F0ACFBFFF781
:10042000D3FF39480088401C37490880FFF728FF70
:1004300010BD10B548493C4803F099F8464800788B
:100440000A3811284CD2DFE800F00937438D99A50E
:10045000A8ABAEB1B4171F272F0FB7003E484078A6
:10046000C00033490880A9E03B484078012802D108
:100470002E4805F08FF9A1E037484078012802D1D5
:100480002A4805F08BF999E033484078022802D1D8
:10049000264805F089F991E02F484078032802D1D9
:1004A000224805F086F989E02B484078042802D1DB
:1004B0001E4805F083F981E0274840780C2803D1D5
:1004C00001200849087002E000200649087075E024
:1004D000214840780D2841D101200549087040E0AD
:1004E0006BE000000E0000205400002008010020F6
:1004F0000F000020000000201000002070010020EC
:10050000110000209C0100200200002008000020B3
:1005100004000020964E0A4466664A3F9A999999CB
:1005200099990940B0012142003800401C00002088
:100530000C000020C8010020F4010020120000205F
:10054000B8000020140100203C010020140000200D
:1005500098000020640100207500002000208D49D3
:1005600008702BE08C4840780E2803D101208B497D
:10057000087002E00020894908701FE08648407832
:100580000F2803D101208649087002E00020844929
:10059000087013E005F017F910E005F046F90DE0DA
:1005A00005F07EF90AE005F0ADF907E005F0DCF9A9
:1005B00004E005F014FA01E000E000BF00BF0020F5
:1005C0007549087010BD10B50121764801F007FE8D
:1005D00068B3754801880088401C734A10805A2906
:1005E0000ADB7248006808B9012000E000206F496A
:1005F000086000206C4908806D4803F0C9FF0120A5
:100600006C4908806C480088401C6B49088008468B
:1006100000880A2807DB694803F0C6FF684800889D
:10062000401C6749088001215E4801F0E9FD10BDCA
:1006300010B5AFF26D01032003F0DEFBAFF20D2128
:10064000062002F0CCFB10BD10B501234FF47A72E6
:100650001946D00603F0DAF901234FF47A72022129
:10066000480703F0D3F901234FF47A720321D0062F
:1006700003F0CCF901234FF47A720421080703F048
:10068000C5F900220121880703F002FA00220221A5
:10069000480703F0FDF9002203214FF0804003F0EA
:1006A000F7F900220421080703F0F2F910BD10B594
:1006B0006FF003004149C8806FF0310008816FF08E
:1006C000270048813A4804F07BFD3E4804F096FF3D
:1006D0003D4804F093FF3D4804F090FF3C493D48FD
:1006E00004F0BCFB3A493C4804F0B8FB38493B48AD
:1006F00003F056FD10BD08B5012002231A464FF441
:100700009641009002F03FF904F062FA03F001FE16
:1007100004F036FD022002F04EFE042003F0ACFB94
:1007200010225102022001F073FF1022110200205A
:1007300001F06EFF1022D101002001F069FF0120BD
:100740001A49086000202649C1F8AC012549086013
:100750000120022302460A210090124802F0B2FF53
:1007600008BD10B502F096FA02F080F810BDFFF750
:10077000F8FFFFF7C0FFFFF79AFFFFF765FFFFF7EE
:1007800057FF05E0FFF72CFEFFF720FDFFF7B8FC51
:10079000F8E700000F000020750000201000002086
:1007A000110000200004004016000020B401224285
:1007B000B800002012000020140000209800002043
:1007C0001A000020700100209C010020C8010020B8
:1007D00000002041140100203C01002064010020A1
:1007E00000002142B001214231490143314A1160E8
:1007F000704770B5002100230F22C47804B32D4C3C
:10080000246804F4E064C4F5E064210AC1F104033F
:10081000CA40447804FA03F1847814402143090162
:10082000254C0678A155047804F01F050124AC403E
:1008300005786D11AD0005F1E025C5F8004109E02E
:10084000047804F01F050124AC401C4D0678761195
:1008500045F8264070BD1A4A0A400243154B1B1F3B
:100860001A60704739B1134A121D12680243114BC6
:100870001B1D1A6006E00F4A121D126882430D4BC1
:100880001B1D1A607047042808D14FF0E021096948
:1008900041F004014FF0E022116107E04FF0E02148
:1008A000096921F004014FF0E02211617047000056
:1008B0000000FA050CED00E000E400E080E100E05B
:1008C00080FFFF1F002044490860091D0860091DC2
:1008D0000860091D086041483F49143108607047AD
:1008E00000213D498279002A3AD00A4612680368FD
:1008F0009A430B461A600A1D126803689A430B1D3F
:100900001A60027911440A6803681A430A60324A7D
:100910000832126803689A432F4B08331A601A1D75
:10092000126803689A432C4B0C331A604279102AE0
:100930000ED11A1F126803681A43274B08331A6036
:100940001A1D126803681A43234B0C331A600DE01A
:100950002149427911440A6803681A430A6005E094
:10096000027911440A6803689A430A6070470021BB
:10097000016001710C21417100218171704716499C
:10098000103109680143144A103211607047014662
:100990000020114A143212680A400AB1012000E016
:1009A000002070470C491431086070470146002050
:1009B0000022094B1B6803EA0102074B14331B6832
:1009C0000B4013B10AB1012000E00020704702493A
:1009D000143108607047000000040140FFFF0F0061
:1009E00010B50446CC48844208D10121042000F00F
:1009F0002DFB0021042000F029FB46E0C74884427B
:100A000008D10121082000F021FB0021082000F07E
:100A10001DFB3AE0C248844208D10121102000F0B9
:100A200015FB0021102000F011FB2EE0BD48844290
:100A300008D10121202000F009FB0021202000F036
:100A400005FB22E0B848844208D10121402000F093
:100A5000FDFA0021402000F0F9FA16E0B348844284
:100A600008D10121802000F0F1FA0021802000F05F
:100A7000EDFA0AE0AE48844207D10121801500F06A
:100A8000E5FA0021A01500F0E1FA10BD10B5012132
:100A9000084600F0DBFA0021012000F0D7FA10BD73
:100AA0002DE9F04102460025002600200023002405
:100AB000002791F803C00CF00F0591F803C00CF06B
:100AC000100CBCF1000F03D091F802C04CEA0505F0
:100AD00091F800C0BCF1000F31D0146800202BE069
:100AE0004FF0010C0CFA00F3B1F800C00CEA030659
:100AF0009E4220D183004FF00F0C0CFA03F7BC4349
:100B000005FA03FC4CEA040491F803C0BCF1280F79
:100B100006D14FF0010C0CFA00FCC2F814C00AE038
:100B200091F803C0BCF1480F05D14FF0010C0CFA4D
:100B300000FCC2F810C0401C0828D1D31460B1F8E2
:100B400000C0BCF1FF0F34DD546800202EE000F13E
:100B5000080C4FF0010808FA0CF3B1F800C00CEAD9
:100B600003069E4221D183004FF00F0C0CFA03F7CD
:100B7000BC4305FA03FC4CEA040491F803C0BCF141
:100B8000280F05D100F1080C08FA0CF8C2F81480FF
:100B900091F803C0BCF1480F07D100F1080C4FF0E9
:100BA000010808FA0CF8C2F81080401C0828CED3BF
:100BB0005460BDE8F0814FF6FF7101800221817021
:100BC0000421C17070470246002093680B400BB1AE
:100BD000012000E0002070470146886880B270471D
:100BE00002460020D3680B400BB1012000E000203A
:100BF00070470146C86880B2704701617047416123
:100C000070470AB1016100E041617047C1607047FF
:100C10004FF480320A438261816182618269826914
:100C2000704702460020434B18684FF68073184007
:100C300040EA021008433F4B186070473E49C861C4
:100C40007047F0B50A46002300240021002500F07B
:100C50000046B6F1004F02D1364EF16901E0354E43
:100C60007168C0F3034583B200F44016B6F5401F27
:100C700008D121F070612F4E766826F070662D4FF6
:100C80007E6012E000F48016B6F5801F06D10326C0
:100C900006FA05F4A14341F0706106E0460D360105
:100CA00003FA06F6B14341F0706122B1460D3601F8
:100CB00003FA06F6314300F00046B6F1004F02D1C8
:100CC0001C4EF16101E01B4E7160F0BD30B5002299
:100CD0008B071C0F0F2303FA04F2164B08338C10FA
:100CE00053F824309343134C08348D1044F82530C6
:100CF00023468C1053F824308C07240F00FA04F498
:100D000023430C4C08348D1044F8253030BD0A497B
:100D1000DC3108607047000000080140000C014011
:100D2000001001400014014000180140001C014067
:100D3000002001400000014000002042DF48006820
:100D400040F00100DD49086008464068DC49084081
:100D5000DA49486008460068DA490840D74908601F
:100D60000846006820F4802008600846406820F4A7
:100D7000FE0048604FF41F0088607047CF49096843
:100D800021F48031CD4A11601146096821F4802197
:100D90001160B0F5803F03D0B0F5802F0ED106E092
:100DA000C649096841F48031C44A116007E0C3496B
:100DB000096841F4A021C14A116000E000BF00BFF2
:100DC000704710B501460022002300204A11012A75
:100DD00002D1BA4C236806E0022A02D1B74C236A3A
:100DE00001E0B64C636A01F01F02012494401C40EC
:100DF0000CB1012000E0002010BD38B500200090AB
:100E00000024002500BF3120FFF7DBFF05460098D6
:100E1000401C00900098B0F5A06F01D0002DF2D0DA
:100E20003120FFF7CEFF08B1012400E00024204666
:100E300038BD01460020A14A106820F0F80040EAC1
:100E4000C10010607047A04908607047024600204A
:100E50009A4B586820F47C1042EA01031843974BE0
:100E60005860704798490866704701460020934AC9
:100E7000506820F003000843506070478F48406876
:100E800000F00C007047014600208C4A506820F0AA
:100E9000F00008435060704701460020874A5068C0
:100EA00020F4E06008435060704701460020834A08
:100EB000506820F4605040EAC1005060704729B18A
:100EC0007E4A527A02437D4B5A7204E07B4A527A40
:100ED00082437A4B5A7270477B49D8310860704719
:100EE00001460020754A506820F440400843506095
:100EF00070470021714A20321170704A82F8201028
:100F0000012802D004280AD104E001216B4A2032D2
:100F1000117005E00521694A2032117000E000BF20
:100F200000BF70476949086070476449096A014316
:100F3000624A11627047654944390860704730B5AC
:100F400000210022002400235C4D6D6805F00C0197
:100F500021B1042905D0082923D105E05C4D0560A5
:100F600022E05B4D05601FE0544D6D6805F4701282
:100F7000524D6D6805F48034022505EB92421CB990
:100F8000544D554305600BE04C4D6D6805F400353C
:100F90001DB1504D5543056002E04D4D5543056070
:100FA00002E04B4D056000BF00BF444D6D6805F089
:100FB000F0010909484D6B5C0568DD4045603F4D17
:100FC0006D6805F4E061090A434D6B5C4568DD40DE
:100FD00085603A4D6D6805F46051C90A3E4D6B5C01
:100FE0004568DD40C560354D6D6805F44041890BAD
:100FF0003A4D6B5CC568B5FBF3F5056130BD29B1B1
:101000002E4A526902432D4B5A6104E02B4A526921
:1010100082432A4B5A61704729B1284A9269024398
:10102000264B9A6104E0254A92698243234B9A61D8
:10103000704729B1214AD2690243204BDA6104E0AA
:101040001E4AD26982431D4BDA61704729B11B4A9F
:10105000D2680243194BDA6004E0184AD26882432E
:10106000164BDA60704729B1144A12690243134BD8
:101070001A6104E0114A12698243104B1A617047E9
:1010800012494039086070470F49C86470470B49DE
:10109000C87170470948406A40F08070074948624B
:1010A000704701460020054A92680A400AB10120B3
:1010B00000E000207047014988727047001002402C
:1010C0000000FFF8FFFFF6FE0000424280044242AB
:1010D00000127A0000093D002000002030000020AE
:1010E00010B50446BE48844208D101218014FFF7A0
:1010F000ADFF0021A014FFF7A9FF16E0B948844214
:1011000008D101210014FFF7AEFF00212014FFF7E2
:10111000AAFF0AE0B448844207D10121C013FFF7B7
:10112000A2FF0021E013FFF79EFF10BD10B50022C3
:10113000028802F441520B884C8823438C88234355
:10114000CC8823430C8923434C8923438C89234334
:10115000CC8923431A430280838B4FF2FF742340D0
:1011600083830B8A038210BD2DE9F04F85B00546BD
:101170000C464FF0000902274FF000084FF0010B1A
:101180000026B246A88B4FF240010840A8830220F7
:101190002884B5F81C90A068022801D100BF38E06F
:1011A000A08810B94FF0010B01E04FF0020B8D4801
:1011B000854200D100E000BF6846FFF7C0FEDDF8C1
:1011C00000A0E088B0F5007F0AD14FEA1A2000EBBA
:1011D00080004000A168B0FBF1F0401D86B20BE03A
:1011E0004FEA4B10BAFBF0F000EB80004000A16822
:1011F000B0FBF1F0401D86B20A20B6FBF0F606F017
:101200000108A6EB0800C0F34F074FF6FF7000EA95
:101210000828022F01DBFF2F02DD02274FF0000814
:10122000E08840EA080038432884A088A189084360
:10123000618808432188084340F4006040EA0909B6
:10124000A5F81C9005B0BDE8F08F00210180418019
:101250008180C180018141818181C1810721018219
:1012600070470021018041808180C180022181601E
:1012700000218181704721B1028842F04002028042
:1012800004E002884FF6BF731A400280704721B114
:10129000828B42F48062828304E0828B4FF6FF33BC
:1012A0001A408283704730B5002400230C110125B9
:1012B000A540ABB21AB185881D43858002E08588C0
:1012C0009D43858030BD1AB183880B43838002E043
:1012D00083888B438380704781817047014688896A
:1012E00070474FF6FF62914204D0028842F4807248
:1012F000028004E002884FF6FF631A4002807047C4
:1013000021B1828842F00402828004E082884FF694
:10131000FB731A408280704702884FF2FF731A40B5
:10132000028002880A4302807047018841F480519C
:101330000180704721B1028842F40052028004E02B
:1013400002884DF6FF731A40028070470246002063
:10135000012901D0108B00E0908A70470146088A6D
:101360007047B1F5804F04D1028842F48042028078
:1013700004E002884BF6FF731A4002807047024671
:10138000002013890B400BB1012000E000207047C2
:10139000CA4302817047F0B50246002000240023B2
:1013A000002501F00F070126BE40B4B20B11012643
:1013B0009E40B3B2968806EA03051689264016B108
:1013C0000DB1012000E00020F0BD10B5002201F0B9
:1013D0000F040123A3409AB2D343038110BD000040
:1013E0000030014000380040003C004010B5044689
:1013F000FE48844208D10121C014FFF727FE0021D6
:10140000E014FFF723FEC4E0B4F1804F08D10121BE
:101410000846FFF728FE00210120FFF724FEB8E070
:10142000F348844208D101210220FFF71CFE00216D
:101430000220FFF718FEACE0EE48844208D10121FB
:101440000420FFF710FE00210420FFF70CFEA0E0AF
:10145000E948844208D101210820FFF704FE002159
:101460000820FFF700FE94E0E448844208D10121FF
:101470001020FFF7F8FD00211020FFF7F4FD88E0B1
:10148000DF48844208D101212020FFF7ECFD002134
:101490002020FFF7E8FD7CE0DA48844208D10121F2
:1014A0004014FFF7D3FD00216014FFF7CFFD70E07B
:1014B000D548844209D10121C804FFF7C7FD0021A6
:1014C0004FF40020FFF7C2FD63E0D048844209D109
:1014D00001210805FFF7BAFD00214FF48010FFF746
:1014E000B5FD56E0CA48844209D101214805FFF7FD
:1014F000ADFD00214FF40010FFF7A8FD49E0C548FD
:10150000844208D101214020FFF7ADFD0021402099
:10151000FFF7A9FD3DE0C048844208D101218020A9
:10152000FFF7A1FD00218020FFF79DFD31E0BB48C2
:10153000844208D101218015FFF795FD0021A015F7
:10154000FFF791FD25E0B648844209D10121080446
:10155000FFF77CFD00214FF48030FFF777FD18E0A6
:10156000B048844209D101214804FFF76FFD0021F2
:101570004FF40030FFF76AFD0BE0AB48844208D11E
:1015800001218804FFF762FD00214FF48020FFF75E
:101590005DFD10BD00220288944B98420ED0994BFD
:1015A00098420BD0B0F1804F08D0914B984205D0B3
:1015B000904B984202D0904B984204D14FF68F73D3
:1015C0001A404B881A438D4B984207D08C4B984257
:1015D00004D04FF6FF431A40CB881A4302808B8811
:1015E00083850B880385814B98420BD0854B9842AD
:1015F00008D08B4B984205D08A4B984202D08A4B38
:10160000984201D10B7A038601238382704770B51B
:10161000002400220023058C4FF6FE763540058419
:10162000028C8388048B4FF68F752C40B51E2C409E
:101630000D882C43751E2A400D892A434D882A4364
:101640006A4DA8420BD06F4DA84208D0744DA842F5
:1016500005D0744DA84202D0734DA84213D14FF665
:10166000F7752A404D892A434FF6FB752A408D882D
:101670002A434FF6FF652B404FF6FF552B408D89CF
:101680002B43CD892B4383800483CD8885860284B8
:1016900070BD70B5002400220023058C4FF6EF7654
:1016A00035400584028C8388048B48F6FF752C40F6
:1016B0004FF6FF452C400D884FF6FF7606EA0525CC
:1016C0002C434FF6DF752A400D8906EA05152A439B
:1016D0004D8806EA05152A43444DA84202D0494DDB
:1016E000A8421DD14FF67F752A404D894FF6FF76EF
:1016F00006EA05152A434FF6BF752A408D8806EA8B
:1017000005152A434FF6FF352B404FF2FF752B404E
:101710008D8906EA85052B43CD8906EA85052B438D
:1017200083800483CD880587028470BD70B5002452
:1017300000220023058C4FF6FF6635400584028C9D
:101740008388848B4FF68F752C404FF6FC752C40A8
:101750000D882C434FF6FF552A400D894FF6FF7632
:1017600006EA05252A434D8806EA05252A431F4D2A
:10177000A84202D0234DA8421DD14FF2FF752A4046
:101780004D894FF6FF7606EA05252A434FF6FF35C9
:101790002A408D8806EA05252A434EF6FF752B4020
:1017A0004DF6FF752B408D8906EA05152B43CD8933
:1017B00006EA05152B4383808483CD8885870284C0
:1017C00070BD70B5002200230024058C4EF6FF7614
:1017D00035400584038C8488828B48F6FF752A4047
:1017E0004FF6FF452A400D8820E00000002C014004
:1017F0000004004000080040000C004000100040C1
:101800000014004000340140004C014000500140F1
:101810000054014000180040001C0040002000401F
:101820000040014000440140004801404FF6FF766F
:1018300006EA05252A434DF6FF752B400D8906EA79
:1018400005352B434D8806EA05352B43FA4DA84252
:1018500002D0FA4DA84208D14BF6FF752C408D8975
:101860004FF6FF7606EA85152C4384808283CD8867
:10187000A0F84050038470BD828B4FF2FF331A40B2
:101880008283828B4FF6FF7303EA01231A4382831C
:101890007047F0B50C461546002200210026078C43
:1018A0004EF6FF7C07EA0C070784828B018C4FF60B
:1018B000FF7707EA043640F6FF473A404FF6FF77D6
:1018C00007EA05273A434FF6FF7707EA03373A431B
:1018D000D94FB8420ED0D94FB8420BD0B0F1804F9B
:1018E00008D0D74FB84205D0D64FB84202D0D64F15
:1018F000B84206D14DF6FF77394046F48057394358
:1019000005E047F6FF57394044F480573943828356
:101910000184F0BD828B4FF6F3731A408283828B71
:101920000A4382837047F0B50C4615460022002119
:101930000026078C4FF6FF6C07EA0C070784828BA2
:10194000018C4FF6FF7707EA04264FF60C773A40F2
:101950004FF6FF7707EA03172F433A43B64FB842D3
:101960000ED0B64FB8420BD0B0F1804F08D0B44F74
:10197000B84205D0B34FB84202D0B34FB84206D1F7
:101980004FF6FF57394046F48077394305E04FF270
:10199000FF57394044F48077394382830184F0BD96
:1019A000028B4FF2FF331A400283028B4FF6FF7314
:1019B00003EA01231A4302837047F0B50C4615462B
:1019C000002200210026078C4FF6EF7C07EA0C0767
:1019D0000784028B018C4FF6FF7707EA041640F666
:1019E000FF473A404FF6FF7707EA03373A434FF68F
:1019F000FF7707EA05273A438F4FB8420ED08F4F43
:101A0000B8420BD0B0F1804F08D08D4FB84205D00E
:101A10008C4FB84202D08C4FB84206D14FF6DF77D8
:101A2000394046F01007394305E04FF65F773940FB
:101A300044F01007394302830184F0BD028B4FF656
:101A4000F3731A400283028B0A4302837047F0B596
:101A50000C46154600220021068C4FF6FE773E40CC
:101A60000684028B018C4FF60C7632407E1C06EA0F
:101A700003162E433243704EB0420ED06F4EB0422A
:101A80000BD0B0F1804F08D06D4EB04205D06D4EF6
:101A9000B04202D06C4EB04206D14FF6FD763140D6
:101AA00044F00106314305E04FF6F576314044F04D
:101AB0000106314302830184F0BD70B505460C4632
:101AC0005D4885420ED05D4885420BD0B5F1804F10
:101AD00008D05B48854205D05A48854202D05A4812
:101AE000854200D100E000BF208850B92389A28838
:101AF00061882846FFF7ABFFE1882846FFF79EFF85
:101B000025E0208804280AD12389A28861882846F4
:101B1000FFF753FFE1882846FFF742FF17E02088D0
:101B200008280AD12389A28861882846FFF7FBFE8E
:101B3000E1882846FFF7EEFE09E02389A288618844
:101B40002846FFF7A6FEE1882846FFF795FE70BD00
:101B50002DE9F04105460C4600260127608808B9AA
:101B6000022600E00026A088012801D1022700E01B
:101B700001272088A0B92389A28861882846FFF719
:101B800066FFE1882846FFF759FF23893A46314628
:101B90002846FFF712FFE1882846FFF701FF13E010
:101BA0002389A28861882846FFF707FFE188284635
:101BB000FFF7F6FE23893A4631462846FFF747FFEE
:101BC000E1882846FFF73AFFBDE8F0810A884B8894
:101BD0001A438B881A43CB881A430B891A434B89C3
:101BE0001A438B891A43A0F8442070474FF6FF71BF
:101BF000818000210180C1804180017270470021F5
:101C0000018041808180C180018141818181C181C8
:101C10007047002101804180012181800021C18025
:101C2000018170470021018041808180C180018154
:101C30004181818170470000002C01400034014047
:101C40000004004000080040000C004021B1028860
:101C500042F00102028004E002884FF6FE731A404F
:101C60000280704731B1B0F8442042F40042A0F83D
:101C7000442005E0B0F84420C2F30E02A0F844204E
:101C800070471AB183890B43838102E083898B43B8
:101C9000838170478182704741EA0203A0F848308F
:101CA00070471AB183890B43838102E083898B4398
:101CB0008381704701894FF6F872114001817047A6
:101CC0000A46002101894FF68F73194011430181A3
:101CD000704730B504460D4629462046FFF7F0FF11
:101CE000208940F00700208130BD2DE9F0410446F5
:101CF0000D4616461F46602D06D13B460122314651
:101D00002046FFF75AFE05E03B46012231462046B9
:101D1000FFF79DFE29462046FFF7D2FF208940F0BD
:101D200007002081BDE8F08130B50C460021018913
:101D3000C9B24FF6FF7505EA03251543254329432C
:101D4000018130BD2DE9F04105460E461746984603
:101D5000002443463A4631462846FFF7E5FF2C89E2
:101D60004FF6F870044044F007044FF68F700440BB
:101D700044F070042C81BDE8F081F0B504460D46B6
:101D800016461F463B46324629462046FFF7CCFF03
:101D9000208940F480402081F0BD01858282704717
:101DA0000A46002101884FF68F73194011430180C4
:101DB0007047F0B50C4615461E4600210022002350
:101DC0000189028B038C4FF6F877394021434FF697
:101DD000FC473A4040F201173A434FF6DD773B406B
:101DE0004FF6FF7707EA06172F433B430181028333
:101DF0000384F0BD0A460021018B4FF68F73194012
:101E00001143018370470A460021018B48F6FF7396
:101E100019404FF6FF7303EA022319430183704709
:101E20000A460021818B4FF68F731940114381833D
:101E300070470A460021818B48F6FF7319404FF620
:101E4000FF7303EA022319438183704721B102889B
:101E500042F08002028004E002884FF67F731A404D
:101E60000280704721B1828842F00402828004E03F
:101E700082884FF6FB731A408280704721B18288B6
:101E800042F00802828004E082884FF6F7731A401D
:101E90008280704721B1828842F00102828004E092
:101EA00082884FF6FE731A40828070470A460021EE
:101EB000018B4FF6F77319401143018370470A46AF
:101EC0000021018B4FF2FF7319404FF6FF7303EAB5
:101ED00002231943018370470A460021818B4FF684
:101EE000F77319401143818370470A460021818BA3
:101EF0004FF2FF7319404FF6FF7303EA02231943B1
:101F0000818370470A460021018B4FF6FB7319400D
:101F10001143018370470A460021018B4FF6FF33BE
:101F200019404FF6FF7303EA0223194301837047F8
:101F30000A460021818B4FF6FB73194011438183C0
:101F400070470A460021818B4FF6FF3319404FF648
:101F5000FF7303EA02231943818370470A46002175
:101F6000018B4FF67F7319401143018370470A4676
:101F70000021018BC1F30E014FF6FF7303EA022328
:101F80001943018370470A460021818B4FF67F7306
:101F900019401143818370470A460021818BC1F3A8
:101FA0000E014FF6FF7303EA022319438183704742
:101FB0000A460021018C4FF6FD731940114301843C
:101FC00070470A460021018C4FF6F7731940114300
:101FD000018470470A460021018C4FF6DF731940D7
:101FE0004FF6FF7303EA02131943018470470A4650
:101FF0000021018C4FF67F7319404FF6FF7303EAFF
:1020000002131943018470470A460021018C4FF6E0
:10201000FF5319404FF6FF7303EA0223194301846B
:1020200070470A460021018C4FF2FF7319404FF6AA
:10203000FF7303EA02231943018470470A46002113
:10204000018C4DF6FF7319404FF6FF7303EA02331C
:1020500019430184704730B5002301248C40A3B29A
:10206000048C9C430484048C02FA01F5ADB22C4329
:10207000048430BD30B5002304248C40A3B2048C0A
:102080009C430484048C02FA01F5ADB22C43048411
:1020900030BD70B5034600200024184618300125D5
:1020A0008D40ACB21D8CA5431D8409B1082909D10E
:1020B00000EB6100056825F07005056005681543B3
:1020C00005600EE00D1FC5F34E052844056825F494
:1020D000E045056005684FF6FF7606EA02263543BF
:1020E000056070BD21B1028842F00202028004E066
:1020F00002884FF6FD731A400280704721B10288B2
:1021000042F00402028004E002884FF6FB731A409A
:102110000280704721B1828842F08002828004E010
:1021200082884FF67F731A408280704702884FF68C
:10213000F7731A40028002880A430280704782883F
:102140004FF68F731A40828082880A4382807047DC
:1021500002894FF6F8731A40028102890A4302810C
:10216000704702894FF67F731A40028102890A4341
:1021700002817047818470478185704781867047EE
:102180000187704781877047A0F840107047028828
:102190004FF6FF431A40028002880A4302807047CC
:1021A0000146888E70470146088F70470146888F28
:1021B00070470146B1F8400070470146888C70476F
:1021C0000146088D704702460020138A0B400BB170
:1021D000012000E000207047CA430282704730B5FA
:1021E0000246002000230024158A05EA0103958990
:1021F00005EA010413B10CB1012000E0002030BD5C
:10220000CA4302827047000010B50446FB4884426E
:1022100009D101218803FEF719FF00214FF4804006
:10222000FEF714FF32E0F648844209D10121480448
:10223000FEF719FF00214FF40030FEF714FF25E0F0
:10224000F048844209D101218804FEF70CFF0021E7
:102250004FF48020FEF707FF18E0EB48844209D1D5
:102260000121C804FEF7FFFE00214FF40020FEF715
:10227000FAFE0BE0E548844208D101210805FEF78B
:10228000F2FE00214FF48010FEF7EDFE10BD2DE9A7
:10229000F04786B005460E460024A24600BFA14680
:1022A0000027B08900B100BF2F462C8A4CF6FF7082
:1022B0000440F08804432C82AC894EF6F3100440AD
:1022C000B08831890843718908430443AC81AC8AE2
:1022D0004FF6FF400440B0890443AC8201A8FEF7EA
:1022E0002EFEC648874202D1DDF810A001E0DDF8DD
:1022F0000CA0A88900F4004040B10AEBCA0000EB32
:102300000A1031684900B0FBF1F807E00AEBCA0097
:1023100000EB0A1031688900B0FBF1F86420B8FBCB
:10232000F0F004012009642101FB1089A88900F460
:10233000004040B1322000EBC900B0FBF1F000F0EA
:102340000700044308E0322000EB09106421B0FBD1
:10235000F1F000F00F0004432C8106B0BDE8F087D7
:102360004FF41651016000218180C18001810C2150
:10237000418100218181704710B502460020108AFA
:102380004FF2FF0318400B884C8823438C8823436B
:10239000CC8823431843108210BD00210180418066
:1023A0008180C180704721B1828942F400528281CC
:1023B00004E082894DF6FF731A4082817047F0B5C0
:1023C0000346002400260025002040F66A17B94283
:1023D00000D100BF1846C1F3421401F01F060127C7
:1023E00007FA06F5012C01D10C3004E0022C01D1D2
:1023F000103000E014301AB107682F43076002E084
:102400000768AF430760F0BD1AB1838A0B4383822C
:1024100002E0838A8B4383827047028A4FF6F0730F
:102420001A400282028A0A430282704782894FF26E
:10243000FF731A40828182890A438281704721B1E9
:10244000828942F00202828104E082894FF6FD73A4
:102450001A4082817047028A4FF6DF731A40028267
:10246000028A0A430282704721B1028A42F4804202
:10247000028204E0028A4BF6FF731A400282704720
:10248000C1F308028280704701468888C0F30800C3
:102490007047818941F0010181817047028BD2B27E
:1024A0000283028B42EA012202837047028B02F40C
:1024B0007F420283028B0A430283704721B1828AE2
:1024C00042F02002828204E0828A4FF6DF731A40D3
:1024D0008282704721B1828A42F01002828204E037
:1024E000828A4FF6EF731A408282704721B1828A46
:1024F00042F00802828204E0828A4FF6F7731A40A3
:102500008282704721B1828942F40042828103E0D5
:102510008289C2F30E028281704721B1828A42F41D
:102520000062828204E0828A4FF2FF731A40828244
:102530007047828A4FF6FB731A408282828A0A436E
:102540008282704721B1828A42F00202828204E0D4
:10255000828A4FF6FD731A4082827047024600203D
:10256000B1F5007F00D100BF13880B400BB10120F3
:1025700000E00020704701F40072B2F5007F00D146
:1025800000BFCA430280704770B502460024002392
:102590000025002040F66A16B14200D100BFC1F309
:1025A000421501F01F03012606FA03F3012D02D1A3
:1025B0009689334006E0022D02D1168A334001E0AD
:1025C000968A33400C12012606FA04F41688344029
:1025D00013B10CB1012000E0002070BD10B5002245
:1025E000002340F66A14A14200D100BF0A12012460
:1025F0009440A3B2DC43048010BD000000380140C9
:102600000044004000480040004C004000500040A2
:10261000F8B506460C461546052E59D2DFE806F0F9
:1026200003142536470001210420FEF7F5FCA0B273
:10263000ADF800008DF8035003208DF802006946C4
:102640005D48FEF72DFA45E001210820FEF7E4FC85
:10265000A0B2ADF800008DF8035003208DF8020001
:1026600069465648FEF71CFA34E001211020FEF7B7
:10267000D3FCA0B2ADF800008DF8035003208DF814
:10268000020069464E48FEF70BFA23E001212020A4
:10269000FEF7C2FCA0B2ADF800008DF80350032095
:1026A0008DF8020069464748FEF7FAF912E0012169
:1026B0004020FEF7B1FCA0B2ADF800008DF8035049
:1026C00003208DF8020069463F48FEF7E9F901E072
:1026D0000020F8BD00BF0120FBE705282FD2DFE86E
:1026E00000F0030C151C25001AB1334B1033196090
:1026F00002E0314B1433196022E01AB12F4B103332
:10270000196002E02D4B1433196019E012B12C4B03
:10271000196101E02A4B596112E01AB1294B1033BB
:10272000196002E0274B1433196009E01AB1264BF7
:102730001033196002E0244B1433196000E000BF2D
:1027400000BF704702460020052A31D2DFE802F0C0
:10275000030C151E2700184B08331B680B400BB1E8
:10276000012000E0002024E0134B08331B680B40DD
:102770000BB1012000E000201BE00F4B08331B6869
:102780000B400BB1012000E0002012E00D4B08339C
:102790001B680B400BB1012000E0002009E00A4B50
:1027A00008331B680B400BB1012000E0002000E063
:1027B00000BF00BF7047000000080140000C01404E
:1027C00000100140001401400018014010B50446FB
:1027D0004FF0E020006940F004004FF0E021086174
:1027E0006FF00400FEF74FF8544800685449B0FBFE
:1027F000F1F0544908700846007800EB4001C1EB45
:10280000C0104FF6FF7101EAC0004F4908804D48E3
:10281000007860434FF0E021486110BD012808D1E5
:102820004FF0E021096941F002014FF0E02211610F
:1028300007E04FF0E021096921F002014FF0E022AA
:1028400011617047012808D14FF0E021096941F07A
:1028500001014FF0E022116107E04FF0E02109692A
:1028600021F001014FF0E0221161704710B56FF0C7
:102870000400FEF708F8314800683149B0FBF1F078
:10288000304908700846007800EB4001C1EBC010E9
:102890004FF6FF7101EAC0002B4908800120FFF7C5
:1028A000D1FF0020FFF7BAFF10BD0146254A12787C
:1028B0004A434FF0E0235A6100229A611A46126996
:1028C00042F001021A6100BF4FF0E022106900F0EF
:1028D00001021AB100F48032002AF5D04FF0E02254
:1028E000126922F001024FF0E0231A6100229A617E
:1028F000704710B50146144B1B884FF0E02463610C
:1029000023461B6943F00103236100220FE00023EB
:102910004FF0E024A36100BF4FF0E023186900F0FE
:1029200001031BB100F48033002BF5D0521C8A4206
:10293000EDD310BD4FF0E0208069704738000020D3
:1029400000127A00340000203600002070B50446E2
:102950000D46E1B2C748FFF793FD00BF4021C548CF
:10296000FFF7FCFD0028F9D0204670BD00BFC1482C
:10297000008800F020000028F9D0BE48001D008823
:10298000C0F3080070472DE9F04186B080460C4640
:1029900015461E460C9FB8F1010F06D0B8F1020F84
:1029A0004ED0B8F1030F7CD194E0012144F2040031
:1029B000FEF732FBAF48FFF727FC4FF40070ADF88D
:1029C000140003208DF8160018208DF8170005A9B3
:1029D000A948FEF765F84FF48060ADF814000420B4
:1029E0008DF8170005A9A448FEF75AF825208DF8A0
:1029F0000000E8B28DF80100F0B28DF802008DF809
:102A000003706846FDF7F5FE01940020ADF808005C
:102A1000ADF80A00ADF80C00ADF810000C20ADF8D0
:102A20000E0001A99348FFF732FC3A4640F22551C7
:102A30009048FFF7C4FC01218E48FFF7B4FC00BFAB
:102A400001218E48FEF7E8FA8D48FFF7DDFB0420F0
:102A5000ADF8140003208DF8160018208DF817002B
:102A600005A98548FEF71CF80820ADF814000420DD
:102A70008DF8170005A98048FEF712F826208DF87A
:102A80000000E8B28DF80100F0B28DF802008DF878
:102A900003706846FDF7ADFE01940020ADF8080014
:102AA00000E061E0ADF80A00ADF80C00ADF81000F0
:102AB0000C20ADF80E0001A97148FFF7E8FB3A467B
:102AC00040F225516E48FFF77AFC01216C48FFF770
:102AD0006AFC4DE001216B48FEF79EFA6A48FFF759
:102AE00093FB4FF48060ADF8140003208DF81600BE
:102AF00018208DF8170005A96448FDF7D1FF4FF4A1
:102B00000060ADF8140004208DF8170005A95F4897
:102B1000FDF7C6FF27208DF80000E8B28DF8010010
:102B2000F0B28DF802008DF803706846FDF761FE83
:102B300001940020ADF80800ADF80A00ADF80C00D3
:102B4000ADF810000C20ADF80E0001A94E48FFF7BB
:102B50009EFB3A4640F225514648FFF730FC0121E2
:102B60004948FFF720FC03E0002006B0BDE8F081F3
:102B700000BF0120F9E70246012A04D0022A09D049
:102B8000032A15D10DE03B48001D0088C0F3080062
:102B900008800FE03A48001D0088C0F30800088054
:102BA00008E03948001D0088C0F30800088001E0F3
:102BB0000020704700BF0120FBE7012804D0022855
:102BC00008D0032812D10BE0C1F30802294B1B1DCA
:102BD0001A800BE0C1F30802294B1B1D1A8005E087
:102BE000C1F30802284B1B1D1A8000BF00BF7047AD
:102BF00011B1274A42F82010704708B540F225511C
:102C00001C48FFF7C1FC58B169460120FFF7B3FF2C
:102C10001F48406820B11E484168BDF80000884741
:102C200008BD08B540F225511548FFF7ADFC58B175
:102C300069460220FFF79FFF1548806820B11448BD
:102C40008168BDF80000884708BD08B540F22551ED
:102C50000D48FFF799FC58B169460320FFF78BFF39
:102C60000B48C06820B10A48C168BDF80000884719
:102C700008BD0000003801400008014004000200C7
:102C8000004400400800040000480040000C0140DF
:102C90000402002010B54FF4A060FDF7A5FD10BDA3
:102CA0002DE9FE4306460D4617469846012000FAD8
:102CB00005F148223046FFF7ABFC01210846FEF73C
:102CC000ABF9E9B2F0B2FEF701F80120A84001909B
:102CD00000208DF808000C208DF8090001208DF8E7
:102CE0000A0001A8FDF7FCFD102D29D2DFE805F050
:102CF000080A0C0E10121416181A1C1E2022242664
:102D000006241EE007241CE008241AE0092418E029
:102D10000A2416E0172414E0172412E0172410E008
:102D200017240EE017240CE028240AE0282408E0E9
:102D3000282406E0282404E0282402E0282400E0D7
:102D400000BF00BFE0B28DF80000F8B28DF80100BE
:102D500008F0FF008DF8020001208DF8030068469E
:102D6000FDF747FDBDE8FE83F8B507460D4616465C
:102D7000102D29D2DFE805F0080A0C0E10121416E7
:102D8000181A1C1E2022242606241EE007241CE0FC
:102D900008241AE0092418E00A2416E0172414E095
:102DA000172412E0172410E017240EE017240CE07B
:102DB00028240AE0282408E0282406E0282404E047
:102DC000282402E0282400E000BF00BFE0B28DF814
:102DD00000008DF803606846FDF70BFDF8BD11B1EA
:102DE000854A42F82010704710B50120FDF7DEFD3E
:102DF000012808D18048006810B17F4908688047E1
:102E00000120FDF7E4FD10BD10B50220FDF7CEFD59
:102E1000012808D17848406810B177494868804750
:102E20000220FDF7D4FD10BD10B50420FDF7BEFD56
:102E3000012808D17048806810B16F4988688047C0
:102E40000420FDF7C4FD10BD10B50820FDF7AEFD50
:102E5000012808D16848C06810B16749C868804730
:102E60000820FDF7B4FD10BD10B51020FDF79EFD44
:102E7000012808D16048006910B15F49086980479E
:102E80001020FDF7A4FD10BD10B52020FDF78EFD2C
:102E9000012809D15848406910B15749486980470D
:102EA0002020FDF794FD3EE04020FDF77FFD012846
:102EB00009D15148806910B14F4988698047402045
:102EC000FDF785FD2FE08020FDF770FD012809D179
:102ED0004948C06910B14849C86980478020FDF75A
:102EE00076FD20E04FF48070FDF760FD01280AD1E7
:102EF0004148006A10B14049086A80474FF4807029
:102F0000FDF765FD0FE04FF40070FDF74FFD012860
:102F100009D13948406A10B13749486A80474FF4AF
:102F20000070FDF754FD10BD10B54FF48060FDF743
:102F30003DFD01280AD13048806A10B12E49886AC7
:102F400080474FF48060FDF742FD53E04FF400608E
:102F5000FDF72CFD01280AD12748C06A10B1264987
:102F6000C86A80474FF40060FDF731FD42E04FF43E
:102F70008050FDF71BFD01280AD11F48006B10B1DE
:102F80001D49086B80474FF48050FDF720FD31E06C
:102F90004FF40050FDF70AFD01280AD11648406B96
:102FA00010B11549486B80474FF40050FDF70FFDF5
:102FB00020E04FF48040FDF7F9FC01280AD10E48CB
:102FC000806B10B10C49886B80474FF48040FDF74F
:102FD000FEFC0FE04FF40040FDF7E8FC012809D1AA
:102FE0000548C06B10B10449C86B80474FF40040DE
:102FF000FDF7EDFC10BD00001402002070B5054681
:103000000E46002405E0601CC4B2C82C01DD00207F
:1030100070BD02212846FEF7B2F90028F3D03146F0
:103020002846FEF759F9002405E0601CC4B2C82CFC
:1030300001DD0020ECE701212846FEF7A0F9002879
:10304000F3D02846FEF74AF9C0B2E1E7F0B587B001
:1030500004460D4616461F460020ADF804004FF406
:103060008270ADF806000020ADF80800B8B2ADF8E7
:103070000E00B0B2ADF810000020ADF8120007202D
:10308000ADF81400012D06D0022D0BD0032D10D069
:10309000042D1BD113E00220ADF80A000020ADF88A
:1030A0000C0014E00220ADF80A000120ADF80C007D
:1030B0000DE00020ADF80A00ADF80C0007E000209C
:1030C000ADF80A000120ADF80C0000E000BF00BF21
:1030D000012C04D0022C30D0032C7CD15CE00121E7
:1030E0000420FDF799FF01210803FDF795FFE0207B
:1030F000ADF8180018208DF81B0003208DF81A0079
:1031000006A94C48FDF7CCFC4FF40250ADF818006E
:1031100010208DF81B0006A94748FDF7C1FC42F2BC
:10312000B8014548FDF769FD01A94448FDF7FEFFD8
:1031300001214248FEF79FF869E001210820FDF7D0
:103140006BFF01218803FDF774FF4FF46040ADF879
:10315000180018208DF81B0003208DF81A0006A90E
:103160003548FDF79DFC41F21000ADF81800102025
:103170008DF81B0006A93048FDF792FC4FF21001B4
:103180002D48FDF73AFD01A92D48FDF7CFFF01219C
:103190002B48FEF770F83AE001210820FDF73CFFCC
:1031A0000121C803FDF745FF3820ADF818001820AD
:1031B0008DF81B0003208DF81A0006A91E48FDF7A4
:1031C0006FFC4FF44040ADF8180010208DF81B0044
:1031D00006A9184800E017E0FDF762FC3821164800
:1031E000FDF70BFD4FF440411248FDF706FD01A924
:1031F0001448FDF79BFF01211248FEF73CF8FF2120
:103200001048FFF7FBFE02E0002007B0F0BD00BF52
:103210000120FAE770B504460D4620884FF6C771C5
:103220000840208020882843208001212046FEF786
:1032300022F870BD00080140000C01400030014040
:1032400000380040003C00402DE9F04105460E46A4
:1032500014460020D749086031462846FFF7CEFEC5
:10326000074621462846FFF7C9FE0120D249C1F88A
:10327000B0013846BDE8F0812DE9F04707468846A1
:1032800014461D460020CB49086041463846FFF7EA
:10329000B5FE8146002606E014F8011B3846FFF70C
:1032A000ADFE701CC6B2AE42F6DB0120C14908601B
:1032B0004846BDE8F08710B5044608222021BF48E3
:1032C000FFF7C2FF012206211046FFF74DFD002047
:1032D000B849203908600523B94A2A212046FFF75A
:1032E000CBFF012221212046FFF7AEFF0122222140
:1032F0002046FFF7A9FF282225212046FFF7A4FF3B
:10330000202231212046FFF79FFF0F222621204651
:10331000FFF79AFF0F2220212046FFF795FF01209B
:10332000A549C1F8900110BD2DE9F0470746884630
:1033300015461E4600209F49086041463846FFF763
:103340005DFE8146002406E0FF213846FFF756FE69
:103350002855601CC4B2B442F6DB012095490860D0
:103360004846BDE8F0877CB5054696A103C9CDE97E
:10337000000110212846FFF74DFF05236A46302142
:103380002846FFF779FF05236A4610212846FFF7F4
:10339000CBFF002406E01DF80400A52800D003E0C0
:1033A000601CC4B2052CF6DB00BF052C01D0012047
:1033B0007CBD0020FCE710B504464FF400731822D2
:1033C00003212046FFF742FE00207A492039086099
:1033D00001207949C1F8B00110217848FFF71AFFA0
:1033E00003231A4606210120FFF75AFC2822402118
:1033F0000120FFF70DF950217448FDF700FC6F48DC
:10340000FFF7B1FF012803D171A003F043F802E0F8
:1034100072A003F03FF86948FFF74DFF10BD2DE99A
:10342000F04104460D4616461F463B4632462946A5
:103430002046FFF735FCBDE8F08110B504460822B0
:1034400020212046FFF700FF002206210120FFF780
:103450008BFC00205749203908600523624A30213F
:103460002046FFF709FF0523554A2A212046FFF78A
:1034700003FF012221212046FFF7E6FE012222213F
:103480002046FFF7E1FE1A2224212046FFF7DCFE4A
:10349000282225212046FFF7D7FE0F22262120468D
:1034A000FFF7D2FE0E2220212046FFF7CDFE01209D
:1034B0004149C1F8900110BD70B504460D46002089
:1034C0003C49086029462046FFF798FDFF21204629
:1034D000FFF794FD064601203749C1F8B001304698
:1034E00070BD70B506460D463046FFF7A6FF1021A9
:1034F0003046FFF78FFE00202E4920390860202338
:103500002A46A0213046FFF7B7FE01202A49C1F81C
:10351000900100BF2748983800680028FAD1072199
:103520003046FFF7C9FF0446224627213046FFF701
:103530008BFE00201F492039086004F0100048B1BC
:10354000FF22E1213046FFF77FFE1C48FFF7B3FE64
:10355000102070BD04F0200020B11848FFF7ABFE2A
:103560002020F6E71548FFF7A6FEFF20F1E770B52B
:1035700006460C4610213046FFF74CFE0721304628
:10358000FFF79AFF05462A4627213046FFF75CFEE3
:1035900005F0400060B12023224661213046FFF74C
:1035A000C3FEFF22E2213046FFF74EFE002070BD31
:1035B0000120FCE7B0812142008021420038004018
:1035C000CD6E0008A5A5A5A5A5000000000C014032
:1035D000206E6F5F636865636B0A0000202063687C
:1035E00065636B5F306B0A00C86E00082DE9FF4F02
:1035F00085B005468A469B46129F0AEBCA004FEAF1
:10360000C00944F62060B9FBF0F084B2012C03DC61
:1036100000241FFA89F814E0012C0ADD42F2107030
:10362000844206DC601E84B2B9FBF4F01FFA80F815
:1036300007E042F21070844203DD002009B0BDE8CB
:10364000F08FB5F1804F05D11C2601210846FDF70A
:10365000F0FC10E0FE48854205D11D260121022024
:10366000FDF7E7FC07E0FB48854204D11E26012157
:103670000420FDF7DEFCADF80C80ADF8084000201A
:10368000ADF80E00ADF80A0002A92846FDF782FF4A
:103690003A4628460799FEF7F4FAF0B28DF804008E
:1036A00000208DF805000BF0FF008DF806008DF866
:1036B000077001A8FDF79DF839462846FEF7C6FABF
:1036C0000120BBE72DE9FF4F85B005468A469B46A2
:1036D000129FE1480AFB00F947F23050B9FBF0F0C5
:1036E00084B2012C03DC00241FFA89F817E0012CB6
:1036F0000ADD49F64040844206DC601E84B2B9FB14
:10370000F4F01FFA80F80AE044F62060844206DDF7
:10371000D2A002F0BFFE002009B0BDE8F08FB5F1E5
:10372000804F05D11C2601210846FDF782FC10E0E0
:10373000C748854205D11D2601210220FDF779FCED
:1037400007E0C448854204D11E2601210420FDF76C
:1037500070FCADF80C80ADF808400020ADF80E000C
:10376000ADF80A0002A92846FDF714FF3A4628469C
:103770000799FEF786FAF0B28DF8040000208DF864
:1037800005000BF0FF008DF806008DF8077001A80A
:10379000FDF72FF83A4628460799FEF772FA3946A0
:1037A0002846FEF753FA0120B6E72DE9F843044610
:1037B000884617461E46324641462046FEF761FAC5
:1037C000B4F1804F01D11C2508E0A148844201D109
:1037D0001D2503E09F48844200D11E25E8B28DF8E4
:1037E000000000208DF80100F8B28DF802008DF87D
:1037F00003606846FCF7FDFFBDE8F8837FB505462A
:103800000C466020ADF800000120ADF80200002059
:10381000ADF80800012C06D0022C0DD0032C14D0DA
:10382000042C24D11AE069462846FDF7F0FE082151
:103830002846FEF73BFB1BE069462846FDF729FFBB
:1038400008212846FEF73BFB12E069462846FDF7B3
:103850006DFF08212846FEF73FFB09E06946284630
:10386000FDF7AFFF08212846FEF73FFB00E000BF51
:1038700000BF7FBD2DE9FE4305460E469146B0468A
:1038800044F62060B8FBF0F084B2012C05DC002483
:10389000A8F10100804687B216E0012C0ADD42F251
:1038A0001070844206DCB8FBF4F0401E87B2601E44
:1038B00084B209E042F21070844205DD6CA002F08F
:1038C000E9FD0020BDE8FE83B5F1804F04D1012160
:1038D0000846FDF7AEFB0EE05D48854204D10121AC
:1038E0000220FDF7A6FB06E05A48854203D10121DC
:1038F0000420FDF79EFBADF80470ADF800400020F9
:10390000ADF80600ADF8020069462846FDF742FE14
:1039100049462846FEF79AF90120D3E770B50546D7
:103920000C46B5F1804F22D1012C06D0022C0AD0D2
:10393000032C0ED0042C18D111E0182201210020F4
:10394000FEF766FE12E0182202210020FEF760FE5C
:103950000CE0182204210020FEF75AFE06E018228F
:1039600008210020FEF754FE00E000BF4DE038487B
:10397000854222D1012C06D0022C0AD0032C0ED075
:10398000042C18D111E0182240210020FEF740FE3F
:1039900012E0182280210020FEF73AFE0CE01822E7
:1039A00001210846FEF734FE06E01822022101201C
:1039B000FEF72EFE00E000BF27E02648854224D116
:1039C000012C06D0022C0AD0032C0ED0042C1AD1C4
:1039D00012E0182240210120FEF71AFE14E01822FE
:1039E00080210120FEF714FE0EE018224FF48071B2
:1039F0000120FEF70DFE07E018224FF400710120B0
:103A0000FEF706FE00E000BF00BF70BD2DE9F047E5
:103A10000746884614461D461A48B0FBF4F6B0FB2C
:103A2000F4F104FB1109B9EB540F00D3761C4146A5
:103A30003846FFF773FF2A4631463846FFF71AFF2C
:103A400041463846FFF7DAFE294638461CE00000BA
:103A500000040040000800404019010054696D5FF7
:103A60006D7320697320746F6F206D75636800003B
:103A700054696D5F757320697320746F6F206D7565
:103A80006368000000A24A04FEF7E0F8BDE8F08792
:103A90002DE9F04105460E46144642F2107084426C
:103AA00002D90020BDE8F081AF8D781C604342F25E
:103AB0001071B0FBF1F4012E06D0022E09D0032EB6
:103AC0000CD0042E14D10EE0A1B22846FEF756FB0E
:103AD0000FE0A1B22846FEF753FB0AE0A1B2284648
:103AE000FEF750FB05E0A1B22846FEF74DFB00E0D3
:103AF00000BF00BF0120D5E72DE9FF4704460E4671
:103B000017469846DDF83090B4F1804F05D11C255A
:103B100001210846FDF78DFA10E0D248844205D114
:103B20001D2501210220FDF784FA07E0CE488442DA
:103B300004D11E2501210420FDF77BFAADF80860B1
:103B4000ADF804700020ADF80A00ADF8060001A938
:103B50002046FDF71FFDE8B28DF8000002208DF829
:103B6000010008F0FF008DF8020001208DF803002D
:103B70006846FCF73EFE49462046FEF767F80020FF
:103B800004B0BDE8F0872DE9F04107460E46B7F1D5
:103B9000804F42D101210846FDF74BFA0121042054
:103BA000FDF73AFA012E06D0022E10D0032E1AD0BD
:103BB000042E30D123E0282201210020FEF728FD29
:103BC0000121AA48FDF71BF80024022524E0282241
:103BD00002210020FEF71CFD0221A448FDF70FF88A
:103BE0000424042518E0282204210020FEF710FDFB
:103BF00004219E48FDF703F8082408250CE028223C
:103C000008210020FEF704FD08219848FCF7F7FF83
:103C10000C24102500E000BF93E09248874246D173
:103C200001210220FDF705FA01210820FDF7F4F932
:103C300001210420FDF7F0F9012E06D0022E10D04C
:103C4000032E1AD0042E30D123E028224021002058
:103C5000FEF7DEFC40218548FCF7D1FF0024022559
:103C600024E0282280210020FEF7D2FC80217F481A
:103C7000FCF7C5FF0424042518E02822012108468A
:103C8000FEF7C6FC01217A48FCF7B9FF0824082595
:103C90000CE0282202210120FEF7BAFC0221744820
:103CA000FCF7ADFF0C24102500E000BF49E06E4892
:103CB000874246D101210420FDF7BBF901210820EC
:103CC000FDF7AAF9012E06D0022E10D0032E1AD02D
:103CD000042E34D125E0282240210120FEF798FC53
:103CE00040216348FCF78BFF0024022528E02822AE
:103CF00080210120FEF78CFC80215D48FCF77FFFCE
:103D0000042404251CE028224FF480710120FEF7D2
:103D10007FFC4FF480715648FCF771FF082408259A
:103D20000EE028224FF400710120FEF771FC4FF4E1
:103D300000714F48FCF763FF0C24102500E000BF22
:103D400000BF04EB0540BDE8F0812DE9FF470746C1
:103D50000C4615461E46DDE90C8921463846FFF71C
:103D600012FF1FFA80FA012043463246294600908E
:103D70003846FFF7C1FE012C06D0022C0AD0032CD6
:103D80000ED0042C18D111E0012203213846FDF792
:103D900078FF12E0012205213846FDF772FF0CE0A2
:103DA000012209213846FDF76CFF06E001221121AE
:103DB0003846FDF766FF00E000BF00BF01210A465C
:103DC0003846FDF75EFF0AF0FF00ADF80400002062
:103DD000ADF806000120ADF808000020ADF80A009B
:103DE000ADF80C9001A93846FDF767FE0121384671
:103DF000FDF72CFFBDE8FF8711B11E4A42F82010E5
:103E0000704770B504460D4629462046FDF71EFF53
:103E100070BD10B51748806818B11649886880478A
:103E200004E003214FF08040FEF7EAF910BD10B521
:103E30001048C06818B10F49C868804703E00321E3
:103E40000848FEF7DDF910BD10B50A48006918B141
:103E500008490869804703E003210348FEF7D0F9C9
:103E600010BD0000000400400008004000080140B0
:103E7000000C014054020020102815D2DFE800F0A9
:103E80000815222F3C495663707D8A97A4B1BECB9A
:103E9000BD49896941F00401BB4A9161BB49096888
:103EA00021F00F01B94A1160C2E0B749896941F0B8
:103EB0000401B54A9161B549096821F0F001B34A9E
:103EC0001160B5E0B049896941F00401AE4A9161E1
:103ED000AE49096821F47061AC4A1160A8E0AA49B2
:103EE000896941F00401A84A9161A849096821F44F
:103EF0007041A64A11609BE0A349896941F0040121
:103F0000A14A9161A149096821F470219F4A116079
:103F10008EE09D49896941F004019B4A91619B496A
:103F2000096821F47001994A116081E09649896914
:103F300041F00401944A91619449096821F070614B
:103F4000924A116074E09049896941F004018E4AF7
:103F500091618E49096821F070418C4A116067E0D7
:103F60008949896941F00801874A9161884909684E
:103F700021F00F01864A11605AE08349896941F0B6
:103F80000801814A91618249096821F0F001804A63
:103F900011604DE07C49896941F010017A4A9161D4
:103FA0007C49096821F00F017A4A116040E07649A6
:103FB000896941F01001744A91617649096821F0DC
:103FC000F001744A116033E06F49896941F01001D2
:103FD0006D4A91616F49096821F470616D4A116001
:103FE00026E06949896941F01001674A9161694990
:103FF000096821F47041674A116019E062498969D2
:1040000041F01001604A91616249096821F4702110
:10401000604A11600CE05C49896941F010015A4A1C
:1040200091615C49096821F470015A4A116000BF2E
:1040300000BF5549896941F40071534A91611146A5
:10404000C96841F40071D1601146C96821F400715A
:10405000D1601146496821F44041516011464968D8
:1040600041F4004151604C4909684C4A11404A4AA8
:1040700011601146096811601146096861F4807188
:104080001160111D096841F48011121D1160114663
:10409000096821F0020111601146096841F46021AC
:1040A00011601146096821F4006111603A490C3130
:1040B000096821F03801384A0C321160364928313C
:1040C000096821F47001344A2832116011460968E8
:1040D00011603149091D096841F001012E4A121D84
:1040E00011601146096841F00801116000BF2A49BA
:1040F000091D096801F008010029F8D12649091DA8
:10410000096841F00401244A121D116000BF2249D0
:10411000091D096801F004010029F8D17047014622
:104120001D483030006820F01F001B4A30321060FC
:1041300010460068084310601748001D006840F4EE
:104140008000154A121D106000BF1348001F006850
:1041500000F002000028F8D00F484830006880B214
:10416000704770B506460B460024002505E0304632
:10417000FFF7D5FF0444681CC5B29D42F7DBB4FBD2
:10418000F3F080B270BD0000001002400008014052
:10419000000C01400010014004240140FFFFF0002A
:1041A0002DE9F047044689464A482060484602F017
:1041B0000EF80746484A494B01F0BBFE054602F09F
:1041C0002DF86060BDE8F0872DE9F05F04460E46EB
:1041D00015462846616801F095FD8346A16801F007
:1041E00039FD80464FF07E50216801F085FD824602
:1041F000414601F087FD07463146206801F082FD07
:104200008146394601F026FDA060BDE8F09F2DE90A
:10421000F04704468946484601F0D9FF07462E4A32
:104220002E4B01F086FE054601F0F8FF20602C4879
:104230006060BDE8F0872DE9F05F04460D46164644
:104240004FF07E50616801F057FD80464FF07E5080
:10425000616801F051FD81462846616901F04CFD1D
:104260008246494601F04EFD0746414601F04AFDAF
:10427000A0602168A06801F045FD0746216901F0B2
:10428000E9FC20612846616901F036FD82464FF065
:104290007E50616801F030FD83464FF0804101F0AF
:1042A00031FD8146514601F02DFD8046216901F026
:1042B000D1FC0746314601F0CDFCE0602168E068A2
:1042C00001F020FD0746616901F0C4FC6061BDE8B2
:1042D000F09F0000CDCCCC3DFA7E6ABC7493683F61
:1042E000CDCC4C3E70B505460C4600F08AFC3C2017
:1042F00000F043FD00F0CAFC284600F03EFD00F04F
:10430000C5FC204600F039FD00F0C0FC00F09BFC2D
:1043100070BD10B5E0210120FFF7E4FF002102206D
:10432000FFF7E0FF10BD70B5044600F06AFC3C20CA
:1043300000F023FD00F0AAFC204600F01EFD00F076
:10434000A5FC00F05EFC3D2000F017FD00F09EFC97
:10435000002000F048FD054600F075FC284670BDC1
:104360003EB504460320FFF7DEFFADF80000042051
:10437000FFF7D9FFADF802000520FFF7D4FFADF835
:1043800004000620FFF7CFFFADF806000720FFF777
:10439000CAFFADF808000820FFF7C5FFADF80A0016
:1043A000BDF80010BDF8020061F31F2000B22080AC
:1043B0002088E188401A00B22080BDF80410BDF8C2
:1043C000060061F31F2000B2608060886189401A96
:1043D00000B26080BDF80810BDF80A0061F31F202C
:1043E00000B2A080A0882189401A00B2A0803EBD02
:1043F0002DE9F05F0446002500260027A846A946BF
:10440000AA46AB462DE02046FFF7AAFFB4F900000C
:10441000A84201DDB4F90050B4F90000B04201DA5D
:10442000B4F90060B4F90400B84201DDB4F90470D5
:10443000B4F90400404501DAB4F90480B4F902008B
:10444000484501DDB4F90290B4F90200504501DAA3
:10445000B4F902A00A20FEF74CFA0BF101000FFAA2
:1044600080FBBBF5FA7FCEDBA81900EBD0714910B9
:1044700009B2E18007EB080000EBD071491009B2E6
:10448000218109EB0A0000EBD071491009B261816A
:10449000BDE8F09F2DE9FF5F82465046FFF760FFC1
:1044A000BAF8000078B9BAF90400002803DD00204A
:1044B000CAF8100052E0BAF9040000284EDA284881
:1044C000CAF810004AE0BAF90000002823DABAF965
:1044D000000001F00FFE0190BAF9040001F00AFE9D
:1044E0000090019901F040FC834601F070FE064601
:1044F00002F02AFB1B4A1C4BCDE9020101F019FD19
:1045000004460022194B01F06DFC804601F086FE46
:10451000CAF8100022E0BAF9000001F0EBFD0190AA
:10452000BAF9040001F0E6FD0090019901F01CFCCD
:10453000834601F04CFECDE9020102F005FB064680
:10454000084A094B01F0F5FC80460022074B01F0B8
:10455000EAFC044601F062FECAF81000BDE8FF9FC5
:10456000000034C3CC4DCC6194A94C40008056402F
:1045700070B505460C46284600F08CFE284600F033
:1045800013FF284600F06EFF2046FFF783FF70BD43
:1045900010B50446204600F07DFE204600F004FFE2
:1045A000204600F05FFF10BD10B504462046FFF71F
:1045B00071FF10BD2DE9F04F91B081460C462046A9
:1045C000FFF7CEFED9F8000001F001FE0746FE4AD3
:1045D000FE4B01F0AEFC054601F020FE0F90D9F82D
:1045E000040001F0F4FD0746F74AF84B01F0A1FC86
:1045F000054601F013FE0E900F9801F0E8FD054608
:1046000002F00AFC82468B460E9801F0E0FD074658
:1046100002F0ACFBCDE90401B4F9020001F073FD36
:104620000546DDE9042301F084FC52465B46CDE9F2
:10463000060101F07EFCCDE90A010F9801F0C7FDEB
:10464000054602F0E9FBCDE902010E9801F0BFFD3D
:10465000824602F0E1FB05460E46B4F9040001F083
:1046600052FD07462A46334601F063FCCDE90001BE
:10467000DDE9022301F05DFCCDE906010F9801F0B0
:10468000A6FD074602F072FB05460E46B4F900008F
:1046900001F039FD82462A46334601F04AFCCDE955
:1046A0000401DDE9062301F09DFBCDE90801DDE908
:1046B0000A2301F097FBCDE90C0101F0AFFD606129
:1046C0000E9801F084FD824602F0A6FB05460E46D8
:1046D000B4F9020001F017FD07462A46334601F0FF
:1046E00028FCCDE90A010E9801F071FD054602F0A3
:1046F0003DFB07468846B4F90410484201F003FD2B
:1047000082463A46434601F014FCCDE90801DDE952
:104710000A2301F067FBCDE90C0101F07FFDA061E8
:10472000D4E9051001F020FB0D9001F050FD054685
:1047300002F00AFA0746A64AA64B01F0FAFB8246A7
:1047400001F06CFDE061E06920F00040E061B4F947
:104750000400002803DDB4F90000002807DBB4F9E9
:104760000400002808DAB4F90000002804DD9A49A2
:10477000E06901F0C7FAE061B4F90000002805DA49
:104780009649E06901F066FAE06108E0B4F90000DA
:10479000002804DD9149E06901F0AEFAE06111B052
:1047A000BDE8F08F2DE9F04781460C4692468A49D4
:1047B000A06C01F0A7FA05462A464846A16B00F016
:1047C0006DFBD9F8240001F002FD0746844A854BB1
:1047D00001F008FB054601F021FDCAF80000BDE824
:1047E000F0872DE9F04781460C4692467A49606C85
:1047F00001F088FA05462A464846E16B00F04EFB78
:10480000D9F8240001F0E3FC0746774A774B01F022
:104810008AFB054601F002FDCAF80400BDE8F087F6
:104820002DE9F04F87B0044689467149206901F0AF
:104830001BFD34D26F49206901F00CFD2FD80021F7
:10484000D9F8000001F010FD28D20021D9F80000AD
:1048500001F058FA019001F0BAFC05460E46D9F86D
:10486000040001F0B4FC4FF03332634BCDE900019A
:1048700001F05FFB07462A46334601F054FBCDE9C1
:104880000401206901F0A3FCCDE90201DDE9042364
:1048900001F0A8FA824601F0C1FC206150E15549BF
:1048A000206901F0E1FC30D25449206901F0D2FCCA
:1048B0002BD8D9F8040001F08AFC05464FF0663287
:1048C0004F4B01F036FB07468846D9F8000001F04F
:1048D0007EFC0546444A4B4B01F02BFB3A464346CF
:1048E000CDE9000101F07EFA82468B46206901F095
:1048F0006EFC52465B46CDE9020101F014FBCDE9A6
:10490000040101F08BFC20611AE13C49206901F0AF
:10491000ABFC2ED23C49206901F09CFC29D8D9F887
:10492000000001F054FC05462D4A384B01F001FB14
:1049300007468846D9F8040001F049FC05460022E4
:10494000334B01F0F6FA82463A46434601F04AFA02
:10495000CDE90201206901F03AFCCDE90001DDE971
:10496000022301F0E0FACDE9040101F057FC2061D7
:10497000E6E02549206901F077FC68D225492069E5
:1049800001F068FC63D80021D9F8040001F062FC52
:1049900044D2D9F8040001F01AFC4FF066321E4BE5
:1049A000CDE9040101F0C5FA05460E46206901F083
:1049B0000EFC82462A46334601F0B5FA074601F05E
:1049C0002DFC2061BCE000007A6C52A246DF913FD2
:1049D000CC4DCC6194A94C40000080BF0000B44293
:1049E000CDCCCCCCCCCC16409A99999999990140D0
:1049F0000000C8C10000C8413333D33F00008C42DF
:104A00006666F6BF9999F13F0000FA42CCCCE43FCC
:104A10000000D03F000034436666D63FD9F804005A
:104A200001F0D5FB82464FF033325F4B01F081FA43
:104A3000CDE90401206901F0CAFB0746DDE9042342
:104A400001F071FA054601F0E9FB206178E0574971
:104A5000206901F0FFFB1DD25549206901F004FCDB
:104A600018D2D9F8000001F0B2FB05464FF03332FE
:104A70004D4B01F05EFACDE90401206901F0A7FB7E
:104A80008246DDE9042301F0ADF9074601F0C6FBDB
:104A9000206155E04749206901F0E6FB2ED24449E8
:104AA000206901F0D7FB29D8D9F8000001F08FFB6D
:104AB0000746414A414B01F03CFA05460E46D9F8FB
:104AC000040001F084FB074600223D4B01F031FA5F
:104AD00082462A46334601F085F9CDE90201206974
:104AE00001F075FBCDE90001DDE9022301F07AF95F
:104AF000CDE9040101F092FB206121E031492069F8
:104B000001F0B2FB1CD22B49206901F0A3FB17D89E
:104B1000D9F8040001F05BFB82464FF033322A4B98
:104B200001F007FACDE90401206901F050FB0746C6
:104B3000DDE9042301F056F9054601F06FFB206121
:104B400007B0BDE8F08F2DE9F04106460F46144648
:104B50001D4629462046FFF763FE1C49F86C01F00C
:104B6000D1F8804642463046216900F097F9706AD4
:104B7000A860BDE8F0812DE9F04106460F461446D5
:104B80001D4629462046FFF74BFE1049F86C01F000
:104B9000B9F88046424630462169FFF715FBB068F8
:104BA000A860BDE8F08100003333E33F0000C8C1D6
:104BB00000008CC20000FAC2CDCCCCCCCCCCDC3F07
:104BC0000000D0BF000034C33333E3BF000080BF18
:104BD00008B501210820FCF71FFA4FF44060ADF83A
:104BE000000010208DF8030003208DF802006946B4
:104BF0009748FBF755FF4FF440619548FBF7FDFFE1
:104C000008BD10B59248001D006820F4704090491E
:104C1000091D08600846006840F440500860012003
:104C20008C4908608C49C1F8A8010420FDF73DFEBD
:104C30000020884908600420FDF737FE00208649DF
:104C4000C1F8A80110BD10B58148001D006820F40E
:104C500070407F49091D08600846006840F44050D4
:104C6000086000207B49091F08607B49C1F8AC013E
:104C70000420FDF71AFE01207649091F08607649D5
:104C8000C1F8AC010420FDF710FE10BD10B50024E2
:104C90006F48001D006820F470406D49091D0860D0
:104CA0000846006840F40040086001206949086037
:104CB000FDF7FBFD01206849C1F8A801FDF7F5FDEE
:104CC00007E0601CC4B2FA2C03DDFFF7BCFF012033
:104CD00010BD6048803800680028F2D15D49091F86
:104CE000086000BFF4E710B500205A49091F0860AA
:104CF0005748001D006820F470405549091D0860A0
:104D00000846006840F44050086000205249C1F84D
:104D1000AC010220FDF7C9FD01204E49091F0860C2
:104D20000220FDF7C2FD00204B49C1F8A80110BDCB
:104D300010B500204749091F08604548001D00685C
:104D400020F470404249091D08600846006840F49C
:104D50004050086001204049C1F8AC010220FDF735
:104D6000A4FD01203B49091F08600220FDF79DFDBD
:104D700000203949C1F8A80110BD70B50446344877
:104D8000001D006820F470403149091D0860084684
:104D9000006840F44050086000202E49091F086058
:104DA00000251DE0E00918B101202A49086002E051
:104DB0000020284908606006040E0220FDF775FDFA
:104DC00001202449091F08600220FDF76EFD002024
:104DD0002149C1F8A8010220FDF767FD681CC5B292
:104DE000082DDFDB70BD70B5054600241848001D96
:104DF000006820F470401649091D086008460068E4
:104E000040F400400860002617E000201149091F07
:104E100008600220FDF749FD01200F49C1F8A801F3
:104E20006006040E0B488038006808B1601CC4B2EC
:104E30000120FDF73AFD701CC6B2082EE5DB15B95E
:104E4000FFF776FF01E0FFF74EFF204670BD000040
:104E5000000C0140AC812142008021422DE9F04745
:104E6000044689464FF07E5020606060A348A060F1
:104E7000A348E060A348206100206061484601F03B
:104E8000A6F90746A04AA14B01F053F8054601F0E8
:104E9000C5F9A06100206062BDE8F0872DE9F04708
:104EA00004460E4615462946A06900F02BFF07462A
:104EB000616A206800F026FF8046394600F0CAFE8D
:104EC00020622169206800F01DFF8046216800F003
:104ED00019FF0746A16800F0BDFE60616169606866
:104EE00000F010FF8246616800F00CFF8046E16828
:104EF00000F0B0FE07466168606900F003FF81467C
:104F0000394600F031FFE061216A606800F0FAFE86
:104F10008146314600F0F3FE8046E16900F0F2FE82
:104F20000746216A00F096FE60626168E06900F061
:104F3000E9FE80464FF07E5100F0E1FE07466169D0
:104F400000F0E0FE2061BDE8F0872DE9F04704465F
:104F50008946484601F03BF907466B4A6B4B00F027
:104F6000E8FF054601F05AF920604FF07E50E060FE
:104F70000021216161610146A1610020E061002101
:104F800021626162A1626248E062624820634FF080
:104F90007C5060634FF07E50A063BDE8F0872DE940
:104FA000F04104460D4616463046E16B00F0A4FE83
:104FB0008046216800F0A6FE0746616800F04AFEC0
:104FC00060602846616800F097FE20642169E06A0D
:104FD00000F092FE0746616900F08EFEE061A06974
:104FE00080F000412162A06980F000416162216B84
:104FF000A1622168E06900F085FE0746E16800F0E3
:1050000029FEE0602168206A00F07CFE07462169E5
:1050100000F020FE20612168606A00F073FE074600
:10502000616900F017FE60612168A06A00F06AFE05
:105030000746A16900F00EFEA061E168A06B00F0D8
:1050400061FE60646169A06B00F05CFEA064616C4D
:10505000A06B00F057FE0746616B00F0FBFDE064BB
:10506000E16C606C00F080FE2065D4E9120100F074
:105070007BFE6065606CA0652169A06B00F042FE5C
:10508000E065A16D206D00F03DFE0746E16800F08F
:1050900036FEE060E16D206D00F034FE07462169C8
:1050A00000F02DFE2061D4E9150100F02BFE07462B
:1050B000616900F024FE6061E16D606D00F022FE28
:1050C0000746A16900F01BFEA061216C206D00F075
:1050D00019FE0746616800F0BDFD6060216C606DDF
:1050E00000F010FE0746E16B00F0B4FDE0633046CF
:1050F000E16B00F001FEA060BDE8F081A69B443B9F
:105100000AD7233C0000A040FCA9F1D24D62503FD9
:105110006F12833A0AD7A33B70B505460C46FFF7DA
:1051200070FDD020FFF729FEFFF7B0FD2846FFF7FE
:1051300024FEFFF7ABFD2046FFF71FFEFFF7A6FD9D
:10514000FFF781FD70BD70B50446FFF75AFDD02012
:10515000FFF713FEFFF79AFD2046FFF70EFEFFF75D
:1051600095FDFFF74EFDD120FFF707FEFFF78EFDFF
:105170000020FFF738FE0546FFF765FD284670BDA5
:1051800010B500216B20FFF7C7FF07211920FFF79B
:10519000C3FF06211A20FFF7BFFF18211B20FFF7CE
:1051A000BBFF01211C20FFF7B7FF10BD10B5752014
:1051B000FFF7C9FF682801D1012010BD0020FCE7DE
:1051C00070B5044600260020A0820021E1822183E0
:1051D000E08121826182A081002514E00020A0826C
:1051E0004320FFF7B0FFA082207D000200B2A08222
:1051F0004420FFF7A8FFB4F914100843A082B4F9C3
:10520000140006446D1CB5F5FA6FE7DB96FBF5F06C
:1052100000B2A0820026002514E00021E182452092
:10522000FFF791FFE082A07D000201B2E1824620FB
:10523000FFF789FFB4F916100843E082B4F91600AD
:1052400006446D1CB5F5FA6FE7DB96FBF5F001B28D
:10525000E1820026002514E0002121834720FFF78A
:1052600072FF2083207E000201B221834820FFF7D5
:105270006AFFB4F9181008432083B4F918000644F3
:105280006D1CB5F5FA6FE7DB96FBF5F001B22183F3
:10529000002670BD10B504464320FFF754FFE080A0
:1052A000A079000200B2E0804420FFF74CFFB4F97F
:1052B00006100843E080E088A18A401A00B2E0802E
:1052C0004520FFF740FF2081207A000201B22181B2
:1052D0004620FFF738FFB4F90810084320812189E0
:1052E000E08A081A01B221814720FFF72CFF608174
:1052F000A07A000201B261814820FFF724FFB4F9CF
:105300000A10084360816189208B081A01B261810B
:105310003B20FFF718FF20802078000200B2208099
:105320003C20FFF710FFB4F90010084320802088CC
:10533000E189401A00B220803D20FFF704FF608021
:10534000A078000200B260803E20FFF7FCFEB4F9B6
:105350000210084360806188208A081A00B26080C9
:105360003F20FFF7F0FEA0802079000200B2A0806D
:105370004020FFF7E8FEB4F904100843A080A1889C
:10538000608A081A00B2A0804120FFF7DCFEA081ED
:10539000207B000200B2A0814220FFF7D4FEB4F9C6
:1053A0000C100843A08110BD2DE9F84F8246BAF9D0
:1053B00000104943BAF9022002FB0211BAF9042095
:1053C00002FB021000F096FE044600F081F88346CE
:1053D000BAF9000000F08EFE0446594600F0C4FC05
:1053E000CAF83800BAF9020000F084FE04465946B3
:1053F00000F0BAFCCAF83C00BAF9040000F07AFEEA
:105400000446594600F0B0FCCAF84000DAF84010F3
:10541000DAF8380000F0A8FC009000F0D8FE8046D2
:1054200001F092FB0646274A274B00F082FD044616
:1054300000F0F4FECAF83800DAE90F0100F094FC3D
:10544000009000F0C4FE064601F07EFB80461D4A37
:105450001D4B00F06EFD044600F0E0FECAF83C0073
:10546000BDE8F88F2DE9F0410446B4F9060000F0DC
:105470004AFE07464FF06632144B00F0CCFD05465D
:1054800000F0CCFE6064B4F9080000F03CFE074672
:105490004FF066320D4B00F0BEFD054600F0BEFE3B
:1054A000A064B4F90A0000F02EFE07464FF0663201
:1054B000064B00F0B0FD054600F0B0FEE064BDE82C
:1054C000F0810000CC4DCC6194A94C406666304020
:1054D0002DE9F05F04464FF07F594FF07C51204694
:1054E00000F010FC824625462E461448A0EB6606C6
:1054F00035462946504600F005FC8346294600F013
:1055000001FC8046494600F0FAFB0746294600F0B8
:10551000F9FB05462946504600F0F4FB8346294630
:1055200000F0F0FB8046494600F0E9FB07462946BB
:1055300000F0E8FB05462846BDE8F09FDF59375FDD
:105540003221018091494160062101810021418180
:10555000032181810021C18101824FF49671418232
:105560000021818270472DE9F84F05460E4614460A
:105570006089E081A81B00B26081B4F90A00B4F927
:105580000C10884201DDA0896081208A618908446D
:1055900000B22082B4F91000B4F91210884201DD83
:1055A000608A2082B4F90A10B4F90E20891AB4F97D
:1055B000082001FB02F000F09DFD0090B4F91000FE
:1055C00000F098FD8346616800F09CFB8146B4F9C9
:1055D0000010B4F90A2001FB02F000F08BFD8246B6
:1055E000494600F037FB8046009900F033FB074640
:1055F00000F0A7FD00B2A082BDE8F88F1E21018057
:105600004FF07E514160062101810021418103213B
:1056100081810021C18101824FF496714182002174
:1056200081821E21C1825A49816106218183002124
:10563000C183082101840021418481844FF4967143
:10564000C1840021018570472DE9F84F05460E46BB
:105650001446E08B6084A81B00B2E083A08CE18B31
:10566000084400B2A084B4F92400B4F9261088429A
:1056700001DDE08CA084B4F91E10B4F92220891A4F
:10568000B4F91C2001FB02F000F034FD0090B4F9E5
:10569000240000F02FFD8346A16900F033FB814612
:1056A000B4F91610B4F91E2001FB02F000F022FD3F
:1056B0008246494600F0CEFA8046009900F0CAFAC8
:1056C000074600F03EFD00B22085BDE8F88F2DE9C9
:1056D000F84F05460E4614466089E081A81B00B2CB
:1056E0006081B4F90A00B4F90C10884201DDA08988
:1056F0006081208A6189084400B22082B4F91000D8
:10570000B4F91210884201DD608A2082B4F90A10CF
:10571000B4F90E20891AB4F9082001FB02F000F058
:10572000E9FC0090B4F9100000F0E4FC83466168E5
:1057300000F0E8FA8146B4F90010B4F90A2001FB40
:1057400002F000F0D7FC8246494600F083FA80461A
:10575000009900F07FFA074600F0F3FC00B2A08247
:10576000BDE8F88F70B505460E4614462246314610
:105770002846FFF7ACFF6289E389D21A11B2B4F967
:1057800014002246FFF760FF70BD0000CDCCCC3D79
:10579000CDCC4C3F00214180018070476FF0050166
:1057A0004180002101807047062141800021018055
:1057B000704700214180891F01807047002141808E
:1057C0000621018070479F484078012814D19D48E8
:1057D00080780B2805D19C480088401C00B29A496B
:1057E0000880984880780C281ED197480088401E71
:1057F00000B29549088017E092484078022813D1FA
:10580000904880780B2805D190480088401C00B251
:105810008E4908808B4880780C2805D18B480088F9
:10582000401E00B289490880704710B5854840780D
:10583000012818D1834880780B2807D1824948680D
:105840004FF07E5100F006FA7F4948607D4880782D
:105850000C2824D17C4948684FF07E5100F04CFA66
:10586000794948601BE077484078022817D175488D
:1058700080780B2807D1754948684FF07E5100F0B9
:10588000E9F9724948606F4880780C2807D16F4960
:1058900048684FF07E5100F02FFA6C49486010BD07
:1058A00068484078012814D1664880780B2805D1D3
:1058B00065480089401C00B26349088161488078CE
:1058C0000C281ED160480089401E00B25E49088144
:1058D00017E05C484078022813D15A4880780B289A
:1058E00005D15A480089401C00B2584908815548E2
:1058F00080780C2805D155480089401E00B25349D4
:10590000088170474F484078012814D14D4880786D
:105910000D2805D14C48C08A401C00B24A49C882B3
:10592000484880780F281ED14748C08A401E00B2E0
:105930004549C88217E043484078022813D14148BE
:1059400080780D2805D14148C08A401C00B23F49EB
:10595000C8823C4880780F2805D13C48C08A401E48
:1059600000B23A49C882704710B5364840780128DD
:1059700018D1344880780D2807D1334988694FF011
:105980007E5100F067F9304988612E4880780F28F1
:1059900024D12D4988694FF07E5100F0ADF92A4994
:1059A00088611BE027484078022817D12548807875
:1059B0000D2807D1254988694FF07E5100F04AF93A
:1059C000224988611F4880780F2807D11F498869BC
:1059D0004FF07E5100F090F91C49886110BD1948C4
:1059E0004078012814D1174880780D2805D1164831
:1059F000808B401C00B214498883124880780F289D
:105A00001ED11148808B401E00B20F49888317E0D9
:105A10000C484078022813D10A4880780D2805D117
:105A20000A48808B401C00B208498883054880786A
:105A30000F2805D10548808B401E00B2034988839A
:105A40007047000075000020700100209C010020BC
:105A50000648804706480047FEE7FEE7FEE7FEE708
:105A6000FEE7FEE7FEE7FEE7FEE7FEE7535B000822
:105A7000ED0000080CB50020019000906C48006813
:105A800040F480306A49086000BF6948006800F44B
:105A9000003000900198401C0190009818B90198BE
:105AA000B0F5A06FF1D16248006800F4003010B189
:105AB0000120009001E0002000900098012843D1CF
:105AC0005C48006840F010005A49086008460068C9
:105AD00020F0030008600846006840F002000860FB
