:020000040800F2
:1000000060060020E9460008F1460008F3460008B3
:10001000F5460008F7460008F94600080000000011
:10002000000000000000000000000000FB46000887
:10003000FD46000800000000FF46000801470008D8
:100040000347000803470008034700080347000868
:100050000347000803470008B5260008D526000816
:10006000F526000815270008352700080347000873
:100070000347000803470008034700080347000838
:100080000347000803470008034700080347000828
:1000900003470008034700080347000855270008E6
:1000A0000347000803470008034700080347000808
:1000B000EF3000080B310008253100080347000825
:1000C00003470008034700080347000803470008E8
:1000D00003470008C7240008EF240008172500087C
:1000E000F52700080347000803470008DFF80CD095
:1000F00004F08CFF004800471F0300086006002042
:1001000070B5A049086804F05BFE04B29E4A21461F
:10011000002004F0BFFA9B49486804F051FE04B285
:100120009A4A2146002004F0B5FA9649886804F0FE
:1001300047FE04B2964A2146002004F0ABFA9248EA
:10014000416C944804F024FC06469048416C3046CB
:1001500004F0CCFB05468E48416C284604F0C6FBF3
:10016000044604F02DFE8C4908608748416C89489C
:1001700004F00EFC05468548416C284604F008FC56
:10018000044604F01DFE844948607F48416C814864
:1001900004F0ACFB06467D48416C304604F0F8FBA9
:1001A00005467B48416C284604F0F2FB044604F007
:1001B00007FE794988607448416C764804F096FBE4
:1001C00005467248416C284604F090FB044604F052
:1001D000F7FD7149C860084601210268880702F0EE
:1001E000C5FD6D4802214268480702F0BFFD6A481C
:1001F000032182684FF0804002F0B8FD6648042178
:10020000C268080702F0B2FD70BD10B50121634855
:1002100001F04BFCC8B16249624803F03BFE594A09
:100220006049614803F03EFF564A5E495F4803F06B
:1002300058FF544B5A4A5B495D4804F01CF9FFF7DC
:100240005FFF0121554801F041FC10BD10B50123AD
:100250004FF47A721946D00602F046FD01234FF49E
:100260007A720221480702F03FFD01234FF47A72AF
:100270000321D00602F038FD01234FF47A720421E5
:10028000080702F031FD00220121880702F06EFD0F
:1002900000220221480702F069FD002203214FF0ED
:1002A000804002F063FD00220421080702F05EFD99
:1002B00010BD10B53F493C4803F034F93D493B4877
:1002C00003F030F93B493A4802F044FF10BD10B545
:1002D00003F0B1FC6FF003003149C8806FF03100CA
:1002E00008816FF02700488103F0AEFA2D4803F033
:1002F000CBFA10BD08B502F033F901F01DFF02F092
:10030000CBFF10225102022001F0E8FD0120022360
:100310001A464FF41651009001F09BFF08BD08B536
:10032000FFF7E8FFFFF7D3FFFFF7C3FFFFF78EFFED
:100330000120022302460A210090184802F030FBF7
:10034000AFF23911032002F0C5FE0EE000201A4979
:1003500008604FF4617001F032FF01201749C1F8C5
:10036000B4014FF4617001F02AFFEFE710B50648C1
:1003700004F0FBF8054804F0F8F8054804F0F5F837
:1003800010BD0000A40000200C010020540100203A
:100390009C0100200000FA44E40100200004004019
:1003A0003400002054000020B0000020D8000020BD
:1003B0000001002000002041B4012242000022423E
:1003C00031490143314A1160704770B50021002363
:1003D0000F22C47804B32D4C246804F4E064C4F5FF
:1003E000E064210AC1F10403CA40447804FA03F12D
:1003F0008478144021430901254C0678A1550478DE
:1004000004F01F050124AC4005786D11AD0005F125
:10041000E025C5F8004109E0047804F01F05012437
:10042000AC401C4D0678761145F8264070BD1A4A3E
:100430000A400243154B1B1F1A60704739B1134A1B
:10044000121D12680243114B1B1D1A6006E00F4A71
:10045000121D126882430D4B1B1D1A607047042841
:1004600008D14FF0E021096941F004014FF0E0228A
:10047000116107E04FF0E021096921F004014FF01C
:10048000E0221161704700000000FA050CED00E069
:1004900000E400E080E100E080FFFF1F002044490D
:1004A0000860091D0860091D0860091D08604148B1
:1004B0003F4914310860704700213D498279002A84
:1004C0003AD00A46126803689A430B461A600A1D1E
:1004D000126803689A430B1D1A60027911440A6876
:1004E00003681A430A60324A0832126803689A4362
:1004F0002F4B08331A601A1D126803689A432C4B5D
:100500000C331A604279102A0ED11A1F1268036840
:100510001A43274B08331A601A1D126803681A43DE
:10052000234B0C331A600DE02149427911440A68CB
:1005300003681A430A6005E0027911440A680368F7
:100540009A430A6070470021016001710C214171DA
:100550000021817170471649103109680143144A1E
:1005600010321160704701460020114A143212689F
:100570000A400AB1012000E0002070470C49143104
:1005800008607047014600200022094B1B6803EAFF
:100590000102074B14331B680B4013B10AB1012051
:1005A00000E00020704702491431086070470000E5
:1005B00000040140FFFF0F0010B50446CC48844200
:1005C00008D10121042000F02DFB0021042000F0BF
:1005D00029FB46E0C748844208D10121082000F0E9
:1005E00021FB0021082000F01DFB3AE0C2488442B4
:1005F00008D10121102000F015FB0021102000F08F
:1006000011FB2EE0BD48844208D10121202000F0DA
:1006100009FB0021202000F005FB22E0B8488442BD
:1006200008D10121402000F0FDFA0021402000F017
:10063000F9FA16E0B348844208D10121802000F085
:10064000F1FA0021802000F0EDFA0AE0AE48844281
:1006500007D10121801500F0E5FA0021A01500F076
:10066000E1FA10BD10B50121084600F0DBFA0021C7
:10067000012000F0D7FA10BD2DE9F0410246002517
:100680000026002000230024002791F803C00CF06E
:100690000F0591F803C00CF0100CBCF1000F03D053
:1006A00091F802C04CEA050591F800C0BCF1000FBA
:1006B00031D0146800202BE04FF0010C0CFA00F34D
:1006C000B1F800C00CEA03069E4220D183004FF02F
:1006D0000F0C0CFA03F7BC4305FA03FC4CEA0404C4
:1006E00091F803C0BCF1280F06D14FF0010C0CFAB1
:1006F00000FCC2F814C00AE091F803C0BCF1480F36
:1007000005D14FF0010C0CFA00FCC2F810C0401CDF
:100710000828D1D31460B1F800C0BCF1FF0F34DD5C
:10072000546800202EE000F1080C4FF0010808FA90
:100730000CF3B1F800C00CEA03069E4221D18300FD
:100740004FF00F0C0CFA03F7BC4305FA03FC4CEA1C
:10075000040491F803C0BCF1280F05D100F1080C86
:1007600008FA0CF8C2F8148091F803C0BCF1480FE5
:1007700007D100F1080C4FF0010808FA0CF8C2F894
:100780001080401C0828CED35460BDE8F0814FF69D
:10079000FF710180022181700421C17070470246FF
:1007A000002093680B400BB1012000E0002070474F
:1007B0000146886880B2704702460020D3680B402B
:1007C0000BB1012000E0002070470146C86880B2EC
:1007D000704701617047416170470AB1016100E0F3
:1007E00041617047C16070474FF480320A438261B3
:1007F0008161826182698269704702460020434BB1
:1008000018684FF68073184040EA021008433F4BC7
:10081000186070473E49C8617047F0B50A4600232A
:1008200000240021002500F00046B6F1004F02D15F
:10083000364EF16901E0354E7168C0F3034583B26D
:1008400000F44016B6F5401F08D121F070612F4E1C
:10085000766826F070662D4F7E6012E000F48016F8
:10086000B6F5801F06D1032606FA05F4A14341F030
:10087000706106E0460D360103FA06F6B14341F019
:10088000706122B1460D360103FA06F6314300F0DD
:100890000046B6F1004F02D11C4EF16101E01B4E43
:1008A0007160F0BD30B500228B071C0F0F2303FAD7
:1008B00004F2164B08338C1053F824309343134C36
:1008C00008348D1044F8253023468C1053F824301A
:1008D0008C07240F00FA04F423430C4C08348D10C9
:1008E00044F8253030BD0A49DC310860704700000B
:1008F00000080140000C01400010014000140140BC
:1009000000180140001C014000200140000001408F
:1009100000002042DF48006840F00100DD49086027
:1009200008464068DC490840DA49486008460068E3
:10093000DA490840D74908600846006820F480205A
:1009400008600846406820F4FE0048604FF41F002D
:1009500088607047CF49096821F48031CD4A116021
:100960001146096821F480211160B0F5803F03D061
:10097000B0F5802F0ED106E0C649096841F48031F8
:10098000C44A116007E0C349096841F4A021C14A83
:10099000116000E000BF00BF704710B501460022A3
:1009A000002300204A11012A02D1BA4C236806E034
:1009B000022A02D1B74C236A01E0B64C636A01F007
:1009C0001F02012494401C400CB1012000E00020D3
:1009D00010BD38B5002000900024002500BF312054
:1009E000FFF7DBFF05460098401C00900098B0F52B
:1009F000A06F01D0002DF2D03120FFF7CEFF08B15B
:100A0000012400E00024204638BD01460020A14A10
:100A1000106820F0F80040EAC10010607047A0495B
:100A200008607047024600209A4B586820F47C10FA
:100A300042EA01031843974B58607047984908668B
:100A4000704701460020934A506820F00300084395
:100A5000506070478F48406800F00C0070470146B6
:100A600000208C4A506820F0F00008435060704726
:100A700001460020874A506820F4E0600843506037
:100A8000704701460020834A506820F4605040EAD5
:100A9000C1005060704729B17E4A527A02437D4BB3
:100AA0005A7204E07B4A527A82437A4B5A727047F8
:100AB0007B49D8310860704701460020754A50686C
:100AC00020F440400843506070470021714A2032B2
:100AD0001170704A82F82010012802D004280AD12F
:100AE00004E001216B4A2032117005E00521694ABA
:100AF0002032117000E000BF00BF704769490860F4
:100B000070476449096A0143624A11627047654946
:100B100044390860704730B50021002200240023CA
:100B20005C4D6D6805F00C0121B1042905D0082940
:100B300023D105E05C4D056022E05B4D05601FE0C0
:100B4000544D6D6805F47012524D6D6805F4803493
:100B5000022505EB92421CB9544D554305600BE04C
:100B60004C4D6D6805F400351DB1504D5543056081
:100B700002E04D4D5543056002E04B4D056000BF5E
:100B800000BF444D6D6805F0F0010909484D6B5CEC
:100B90000568DD4045603F4D6D6805F4E061090A78
:100BA000434D6B5C4568DD4085603A4D6D6805F4EA
:100BB0006051C90A3E4D6B5C4568DD40C560354DEE
:100BC0006D6805F44041890B3A4D6B5CC568B5FB17
:100BD000F3F5056130BD29B12E4A526902432D4B10
:100BE0005A6104E02B4A526982432A4B5A6170478A
:100BF00029B1284A92690243264B9A6104E0254AAA
:100C000092698243234B9A61704729B1214AD26984
:100C10000243204BDA6104E01E4AD26982431D4B35
:100C2000DA61704729B11B4AD2680243194BDA6076
:100C300004E0184AD2688243164BDA60704729B143
:100C4000144A12690243134B1A6104E0114A1269F3
:100C50008243104B1A61704712494039086070474F
:100C60000F49C86470470B49C87170470948406A0A
:100C700040F0807007494862704701460020054AED
:100C800092680A400AB1012000E000207047014943
:100C900088727047001002400000FFF8FFFFF6FE68
:100CA000000042428004424200127A0000093D00E6
:100CB000000000201000002010B50446FE488442C9
:100CC00008D10121C014FFF7ADFF0021E014FFF7A8
:100CD000A9FFC4E0B4F1804F08D101210846FFF715
:100CE000AEFF00210120FFF7AAFFB8E0F3488442DD
:100CF00008D101210220FFF7A2FF00210220FFF707
:100D00009EFFACE0EE48844208D101210420FFF7A9
:100D100096FF00210420FFF792FFA0E0E9488442FB
:100D200008D101210820FFF78AFF00210820FFF7E2
:100D300086FF94E0E448844208D101211020FFF7A7
:100D40007EFF00211020FFF77AFF88E0DF48844211
:100D500008D101212020FFF772FF00212020FFF79A
:100D60006EFF7CE0DA48844208D101214014FFF78D
:100D700059FF00216014FFF755FF70E0D548844209
:100D800009D10121C804FFF74DFF00214FF40020D5
:100D9000FFF748FF63E0D048844209D101210805EC
:100DA000FFF740FF00214FF48010FFF73BFF56E0B4
:100DB000CA48844209D101214805FFF733FF0021C9
:100DC0004FF40010FFF72EFF49E0C548844208D1D8
:100DD00001214020FFF733FF00214020FFF72FFFC4
:100DE0003DE0C048844208D101218020FFF727FF61
:100DF00000218020FFF723FF31E0BB48844208D167
:100E000001218015FFF71BFF0021A015FFF717FF39
:100E100025E0B648844209D101210804FFF702FF0A
:100E200000214FF48030FFF7FDFE18E0B048844207
:100E300009D101214804FFF7F5FE00214FF40030ED
:100E4000FFF7F0FE0BE0AB48844208D10121880493
:100E5000FFF7E8FE00214FF48020FFF7E3FE10BD0E
:100E600000220288944B98420ED0994B98420BD0A6
:100E7000B0F1804F08D0914B984205D0904B9842EA
:100E800002D0904B984204D14FF68F731A404B8892
:100E90001A438D4B984207D08C4B984204D04FF6A2
:100EA000FF431A40CB881A4302808B8883850B88C6
:100EB0000385814B98420BD0854B984208D08B4BD1
:100EC000984205D08A4B984202D08A4B984201D171
:100ED0000B7A038601238382704770B500240022B9
:100EE0000023058C4FF6FE7635400584028C8388FE
:100EF000048B4FF68F752C40B51E2C400D882C436B
:100F0000751E2A400D892A434D882A436A4DA842FE
:100F10000BD06F4DA84208D0744DA84205D0744D37
:100F2000A84202D0734DA84213D14FF6F7752A405C
:100F30004D892A434FF6FB752A408D882A434FF688
:100F4000FF652B404FF6FF552B408D892B43CD89F4
:100F50002B4383800483CD888586028470BD70B561
:100F6000002400220023058C4FF6EF7635400584DF
:100F7000028C8388048B48F6FF752C404FF6FF45A2
:100F80002C400D884FF6FF7606EA05252C434FF6D8
:100F9000DF752A400D8906EA05152A434D8806EAC1
:100FA00005152A43444DA84202D0494DA8421DD1FF
:100FB0004FF67F752A404D894FF6FF7606EA0515F4
:100FC0002A434FF6BF752A408D8806EA05152A4345
:100FD0004FF6FF352B404FF2FF752B408D8906EA07
:100FE00085052B43CD8906EA85052B438380048341
:100FF000CD880587028470BD70B5002400220023CF
:10100000058C4FF6FF6635400584028C8388848BFF
:101010004FF68F752C404FF6FC752C400D882C43F5
:101020004FF6FF552A400D894FF6FF7606EA052553
:101030002A434D8806EA05252A431F4DA84202D0BF
:10104000234DA8421DD14FF2FF752A404D894FF61E
:10105000FF7606EA05252A434FF6FF352A408D889C
:1010600006EA05252A434EF6FF752B404DF6FF751F
:101070002B408D8906EA05152B43CD8906EA051517
:101080002B4383808483CD888587028470BD70B5AF
:10109000002200230024058C4EF6FF76354005849F
:1010A000038C8488828B48F6FF752A404FF6FF45F3
:1010B0002A400D8820E00000002C01400004004080
:1010C00000080040000C00400010004000140040E8
:1010D00000340140004C01400050014000540140E8
:1010E00000180040001C004000200040004001406B
:1010F00000440140004801404FF6FF7606EA05250E
:101100002A434DF6FF752B400D8906EA05352B4322
:101110004D8806EA05352B43FA4DA84202D0FA4D18
:10112000A84208D14BF6FF752C408D894FF6FF760B
:1011300006EA85152C4384808283CD88A0F8405030
:10114000038470BD828B4FF2FF331A408283828BFF
:101150004FF6FF7303EA01231A4382837047F0B509
:101160000C461546002200210026078C4EF6FF7C17
:1011700007EA0C070784828B018C4FF6FF7707EA9A
:10118000043640F6FF473A404FF6FF7707EA052757
:101190003A434FF6FF7707EA03373A43D94FB8424D
:1011A0000ED0D94FB8420BD0B0F1804F08D0D74FF6
:1011B000B84205D0D64FB84202D0D64FB84206D179
:1011C0004DF6FF77394046F48057394305E047F63E
:1011D000FF57394044F48057394382830184F0BD7E
:1011E000828B4FF6F3731A408283828B0A43828389
:1011F0007047F0B50C461546002200210026078CEA
:101200004FF6FF6C07EA0C070784828B018C4FF6C0
:10121000FF7707EA04264FF60C773A404FF6FF7740
:1012200007EA03172F433A43B64FB8420ED0B64FE2
:10123000B8420BD0B0F1804F08D0B44FB84205D0BF
:10124000B34FB84202D0B34FB84206D14FF6FF5762
:10125000394046F48077394305E04FF2FF57394073
:1012600044F48077394382830184F0BD028B4FF2CE
:10127000FF331A400283028B4FF6FF7303EA012308
:101280001A4302837047F0B50C4615460022002130
:101290000026078C4FF6EF7C07EA0C070784028BC9
:1012A000018C4FF6FF7707EA041640F6FF473A40F5
:1012B0004FF6FF7707EA03373A434FF6FF7707EA1F
:1012C00005273A438F4FB8420ED08F4FB8420BD00C
:1012D000B0F1804F08D08D4FB84205D08C4FB84246
:1012E00002D08C4FB84206D14FF6DF77394046F036
:1012F0001007394305E04FF65F77394044F0100797
:10130000394302830184F0BD028B4FF6F3731A4018
:101310000283028B0A4302837047F0B50C461546E0
:1013200000220021068C4FF6FE773E400684028B99
:10133000018C4FF60C7632407E1C06EA03162E43D3
:101340003243704EB0420ED06F4EB0420BD0B0F16F
:10135000804F08D06D4EB04205D06D4EB04202D0E5
:101360006C4EB04206D14FF6FD76314044F0010696
:10137000314305E04FF6F576314044F00106314344
:1013800002830184F0BD70B505460C465D48854278
:101390000ED05D4885420BD0B5F1804F08D05B4838
:1013A000854205D05A48854202D05A48854200D12C
:1013B00000E000BF208850B92389A28861882846B0
:1013C000FFF7ABFFE1882846FFF79EFF25E0208866
:1013D00004280AD12389A28861882846FFF753FF91
:1013E000E1882846FFF742FF17E0208808280AD145
:1013F0002389A28861882846FFF7FBFEE1882846FA
:10140000FFF7EEFE09E02389A28861882846FFF7EE
:10141000A6FEE1882846FFF795FE70BD2DE9F04154
:1014200005460C4600260127608808B9022600E020
:101430000026A088012801D1022700E0012720888A
:10144000A0B92389A28861882846FFF766FFE18852
:101450002846FFF759FF23893A4631462846FFF7C9
:1014600012FFE1882846FFF701FF13E02389A288D5
:1014700061882846FFF707FFE1882846FFF7F6FE58
:1014800023893A4631462846FFF747FFE188284638
:10149000FFF73AFFBDE8F0810A884B881A438B8832
:1014A0001A43CB881A430B891A434B891A438B89F9
:1014B0001A43A0F8442070474FF6FF718180002145
:1014C0000180C1804180017270470021018041800C
:1014D0008180C180018141818181C181704700216A
:1014E00001804180012181800021C18001817047FC
:1014F0000021018041808180C18001814181818101
:1015000070470000002C01400034014000040040FE
:1015100000080040000C004021B1028842F00102A6
:10152000028004E002884FF6FE731A400280704782
:1015300031B1B0F8442042F40042A0F8442005E064
:10154000B0F84420C2F30E02A0F8442070471AB14C
:1015500083890B43838102E083898B4383817047B6
:101560008182704741EA0203A0F8483070471AB1FF
:1015700083890B43838102E083898B438381704796
:1015800001894FF6F8721140018170470A46002127
:1015900001894FF68F73194011430181704730B5AF
:1015A00004460D4629462046FFF7F0FF208940F00B
:1015B0000700208130BD2DE9F04104460D46164656
:1015C0001F46602D06D13B46012231462046FFF7DB
:1015D0005AFE05E03B46012231462046FFF79DFEBC
:1015E00029462046FFF7D2FF208940F007002081DE
:1015F000BDE8F08130B50C4600210189C9B24FF633
:10160000FF7505EA0325154325432943018130BDB4
:101610002DE9F04105460E461746984600244346FC
:101620003A4631462846FFF7E5FF2C894FF6F87019
:10163000044044F007044FF68F70044044F07004F7
:101640002C81BDE8F081F0B504460D4616461F46D4
:101650003B46324629462046FFF7CCFF208940F41E
:1016600080402081F0BD0185828270470A460021BA
:1016700001884FF68F731940114301807047F0B510
:101680000C4615461E460021002200230189028BCC
:10169000038C4FF6F877394021434FF6FC473A4028
:1016A00040F201173A434FF6DD773B404FF6FF77A4
:1016B00007EA06172F433B43018102830384F0BDF1
:1016C0000A460021018B4FF68F73194011430183A5
:1016D00070470A460021018B48F6FF7319404FF608
:1016E000FF7303EA02231943018370470A4600216E
:1016F000818B4FF68F7319401143818370470A46DF
:101700000021818B48F6FF7319404FF6FF7303EAFF
:10171000022319438183704721B1028842F080027D
:10172000028004E002884FF67F731A4002807047FF
:1017300021B1828842F00402828004E082884FF660
:10174000FB731A408280704721B1828842F0080200
:10175000828004E082884FF6F7731A4082807047D7
:1017600021B1828842F00102828004E082884FF633
:10177000FE731A40828070470A460021018B4FF6A3
:10178000F77319401143018370470A460021018B0A
:101790004FF2FF7319404FF6FF7303EA0223194318
:1017A000018370470A460021818B4FF6F773194079
:1017B0001143818370470A460021818B4FF2FF73EA
:1017C00019404FF6FF7303EA0223194381837047E0
:1017D0000A460021018B4FF6FB7319401143018328
:1017E00070470A460021018B4FF6FF3319404FF630
:1017F000FF7303EA02231943018370470A4600215D
:10180000818B4FF6FB7319401143818370470A4661
:101810000021818B4FF6FF3319404FF6FF7303EA27
:1018200002231943818370470A460021018B4FF63A
:101830007F7319401143018370470A460021018BD1
:10184000C1F30E014FF6FF7303EA0223194301832C
:1018500070470A460021818B4FF67F731940114370
:10186000818370470A460021818BC1F30E014FF638
:10187000FF7303EA02231943818370470A4600215C
:10188000018C4FF6FD7319401143018470470A46DD
:101890000021018C4FF6F773194011430184704702
:1018A0000A460021018C4FF6DF7319404FF6FF7393
:1018B00003EA02131943018470470A460021018C90
:1018C0004FF67F7319404FF6FF7303EA0213194373
:1018D000018470470A460021018C4FF6FF531940DE
:1018E0004FF6FF7303EA02231943018470470A4647
:1018F0000021018C4FF2FF7319404FF6FF7303EA8A
:1019000002231943018470470A460021018C4DF6D9
:10191000FF7319404FF6FF7303EA02331943018442
:10192000704730B5002301248C40A3B2048C9C4343
:101930000484048C02FA01F5ADB22C43048430BD5A
:1019400030B5002304248C40A3B2048C9C4304844F
:10195000048C02FA01F5ADB22C43048430BD70B59D
:101960000346002000241846183001258D40ACB2F3
:101970001D8CA5431D8409B1082909D100EB610024
:10198000056825F0700505600568154305600EE0E3
:101990000D1FC5F34E052844056825F4E045056094
:1019A00005684FF6FF7606EA02263543056070BDEE
:1019B00021B1028842F00202028004E002884FF660
:1019C000FD731A400280704721B1028842F0040280
:1019D000028004E002884FF6FB731A4002807047D1
:1019E00021B1828842F08002828004E082884FF632
:1019F0007F731A408280704702884FF6F7731A404F
:101A0000028002880A430280704782884FF68F73F3
:101A10001A40828082880A438280704702894FF68A
:101A2000F8731A40028102890A43028170470289D1
:101A30004FF67F731A40028102890A430281704780
:101A40008184704781857047818670470187704720
:101A500081877047A0F84010704702884FF6FF4317
:101A60001A40028002880A43028070470146888E2D
:101A700070470146088F70470146888F70470146BE
:101A8000B1F8400070470146888C70470146088DC8
:101A9000704702460020138A0B400BB1012000E082
:101AA00000207047CA430282704730B502460020CA
:101AB00000230024158A05EA0103958905EA01043B
:101AC00013B10CB1012000E0002030BDCA430282F6
:101AD0007047000010B50446FB48844209D101213B
:101AE0008803FFF79FF800214FF48040FFF79AF832
:101AF00032E0F648844209D101214804FFF79FF8FB
:101B000000214FF40030FFF79AF825E0F0488442B6
:101B100009D101218804FFF792F800214FF48020B9
:101B2000FFF78DF818E0EB48844209D10121C80481
:101B3000FFF785F800214FF40020FFF780F80BE055
:101B4000E548844208D101210805FFF778F8002113
:101B50004FF48010FFF773F810BD2DE9F04786B001
:101B600005460E460024A24600BFA1460027B089C4
:101B700000B100BF2F462C8A4CF6FF700440F0885D
:101B800004432C82AC894EF6F3100440B0883189AE
:101B90000843718908430443AC81AC8A4FF6FF4087
:101BA0000440B0890443AC8201A8FEF7B4FFC648E4
:101BB000874202D1DDF810A001E0DDF80CA0A88971
:101BC00000F4004040B10AEBCA0000EB0A10316893
:101BD0004900B0FBF1F807E00AEBCA0000EB0A107D
:101BE00031688900B0FBF1F86420B8FBF0F0040123
:101BF0002009642101FB1089A88900F4004040B14C
:101C0000322000EBC900B0FBF1F000F00700044304
:101C100008E0322000EB09106421B0FBF1F000F085
:101C20000F0004432C8106B0BDE8F0874FF4165135
:101C3000016000218180C18001810C21418100214E
:101C40008181704710B502460020108A4FF2FF03D1
:101C500018400B884C8823438C882343CC8823432B
:101C60001843108210BD0021018041808180C18015
:101C7000704721B1828942F40052828104E0828956
:101C80004DF6FF731A4082817047F0B50346002479
:101C900000260025002040F66A17B94200D100BF97
:101CA0001846C1F3421401F01F06012707FA06F592
:101CB000012C01D10C3004E0022C01D1103000E0E5
:101CC00014301AB107682F43076002E00768AF437A
:101CD0000760F0BD1AB1838A0B43838202E0838AD6
:101CE0008B4383827047028A4FF6F0731A40028258
:101CF000028A0A430282704782894FF2FF731A40B8
:101D0000828182890A438281704721B1828942F0AF
:101D10000202828104E082894FF6FD731A408281BB
:101D20007047028A4FF6DF731A400282028A0A4322
:101D30000282704721B1028A42F48042028204E0AA
:101D4000028A4BF6FF731A4002827047C1F3080201
:101D50008280704701468888C0F3080070478189F7
:101D600041F0010181817047028BD2B20283028B64
:101D700042EA012202837047028B02F47F4202830F
:101D8000028B0A430283704721B1828A42F020020B
:101D9000828204E0828A4FF6DF731A4082827047A3
:101DA00021B1828A42F01002828204E0828A4FF6D8
:101DB000EF731A408282704721B1828A42F0080292
:101DC000828204E0828A4FF6F7731A40828270475B
:101DD00021B1828942F40042828103E08289C2F308
:101DE0000E028281704721B1828A42F400628282AF
:101DF00004E0828A4FF2FF731A4082827047828A1F
:101E00004FF6FB731A408282828A0A4382827047AD
:101E100021B1828A42F00202828204E0828A4FF675
:101E2000FD731A408282704702460020B1F5007FA0
:101E300000D100BF13880B400BB1012000E000204F
:101E4000704701F40072B2F5007F00D100BFCA43B1
:101E50000280704770B50246002400230025002050
:101E600040F66A16B14200D100BFC1F3421501F03D
:101E70001F03012606FA03F3012D02D19689334090
:101E800006E0022D02D1168A334001E0968A3340E3
:101E90000C12012606FA04F41688344013B10CB172
:101EA000012000E0002070BD10B50022002340F6A4
:101EB0006A14A14200D100BF0A1201249440A3B2C7
:101EC000DC43048010BD00000038014000440040A5
:101ED00000480040004C004000500040F8B5064665
:101EE0000C461546052E59D2DFE806F003142536B8
:101EF000470001210420FEF77BFEA0B2ADF80000F0
:101F00008DF8035003208DF8020069465D48FEF706
:101F1000B3FB45E001210820FEF76AFEA0B2ADF850
:101F200000008DF8035003208DF8020069465648E2
:101F3000FEF7A2FB34E001211020FEF759FEA0B20B
:101F4000ADF800008DF8035003208DF802006946BB
:101F50004E48FEF791FB23E001212020FEF748FECA
:101F6000A0B2ADF800008DF8035003208DF80200F8
:101F700069464748FEF780FB12E001214020FEF74A
:101F800037FEA0B2ADF800008DF8035003208DF8A5
:101F9000020069463F48FEF76FFB01E00020F8BDF4
:101FA00000BF0120FBE705282FD2DFE800F0030C7B
:101FB000151C25001AB1334B1033196002E0314B68
:101FC0001433196022E01AB12F4B1033196002E06C
:101FD0002D4B1433196019E012B12C4B196101E03B
:101FE0002A4B596112E01AB1294B1033196002E0F3
:101FF000274B1433196009E01AB1264B10331960CE
:1020000002E0244B1433196000E000BF00BF7047AA
:1020100002460020052A31D2DFE802F0030C151E2B
:102020002700184B08331B680B400BB1012000E060
:10203000002024E0134B08331B680B400BB1012038
:1020400000E000201BE00F4B08331B680B400BB176
:10205000012000E0002012E00D4B08331B680B400C
:102060000BB1012000E0002009E00A4B08331B6897
:102070000B400BB1012000E0002000E000BF00BFDA
:102080007047000000080140000C014000100140B2
:10209000001401400018014010B504464FF0E02044
:1020A000006940F004004FF0E02108616FF0040087
:1020B000FEF7D5F9544800685449B0FBF1F0544993
:1020C00008700846007800EB4001C1EBC0104FF6E5
:1020D000FF7101EAC0004F4908804D480078604315
:1020E0004FF0E021486110BD012808D14FF0E021F8
:1020F000096941F002014FF0E022116107E04FF061
:10210000E021096921F002014FF0E02211617047DE
:10211000012808D14FF0E021096941F001014FF099
:10212000E022116107E04FF0E021096921F001018F
:102130004FF0E0221161704710B56FF00400FEF718
:102140008EF9314800683149B0FBF1F03049087030
:102150000846007800EB4001C1EBC0104FF6FF715C
:1021600001EAC0002B4908800120FFF7D1FF0020C1
:10217000FFF7BAFF10BD0146254A12784A434FF0D7
:10218000E0235A6100229A611A46126942F0010264
:102190001A6100BF4FF0E022106900F001021AB18D
:1021A00000F48032002AF5D04FF0E022126922F0CC
:1021B00001024FF0E0231A6100229A61704710B5C6
:1021C0000146144B1B884FF0E024636123461B69D2
:1021D00043F00103236100220FE000234FF0E024CD
:1021E000A36100BF4FF0E023186900F001031BB1A9
:1021F00000F48033002BF5D0521C8A42EDD310BD81
:102200004FF0E020806970471800002000127A002B
:10221000140000201600002070B504460D46E1B2FF
:10222000C748FFF793FD00BF4021C548FFF7FCFDFD
:102230000028F9D0204670BD00BFC148008800F0DA
:1022400020000028F9D0BE48001D0088C0F3080017
:1022500070472DE9F04186B080460C4615461E4673
:102260000C9FB8F1010F06D0B8F1020F4ED0B8F1B3
:10227000030F7CD194E0012144F20400FEF7B8FC86
:10228000AF48FFF727FC4FF40070ADF814000320AF
:102290008DF8160018208DF8170005A9A948FEF73B
:1022A000EBF94FF48060ADF8140004208DF81700AE
:1022B00005A9A448FEF7E0F925208DF80000E8B252
:1022C0008DF80100F0B28DF802008DF803706846B9
:1022D000FEF77BF801940020ADF80800ADF80A0085
:1022E000ADF80C00ADF810000C20ADF80E0001A9FF
:1022F0009348FFF732FC3A4640F225519048FFF7E9
:10230000C4FC01218E48FFF7B4FC00BF01218E48B8
:10231000FEF76EFC8D48FFF7DDFB0420ADF81400DE
:1023200003208DF8160018208DF8170005A98548A0
:10233000FEF7A2F90820ADF8140004208DF817006C
:1023400005A98048FEF798F926208DF80000E8B22C
:102350008DF80100F0B28DF802008DF80370684628
:10236000FEF733F801940020ADF8080000E061E0CA
:10237000ADF80A00ADF80C00ADF810000C20ADF877
:102380000E0001A97148FFF7E8FB3A4640F22551DB
:102390006E48FFF77AFC01216C48FFF76AFC4DE0BC
:1023A00001216B48FEF724FC6A48FFF793FB4FF4CA
:1023B0008060ADF8140003208DF8160018208DF809
:1023C000170005A96448FEF757F94FF40060ADF80F
:1023D000140004208DF8170005A95F48FEF74CF99A
:1023E00027208DF80000E8B28DF80100F0B28DF8DA
:1023F00002008DF803706846FDF7E7FF01940020A6
:10240000ADF80800ADF80A00ADF80C00ADF810000A
:102410000C20ADF80E0001A94E48FFF79EFB3A468E
:1024200040F225514648FFF730FC01214948FFF7AB
:1024300020FC03E0002006B0BDE8F08100BF0120D1
:10244000F9E70246012A04D0022A09D0032A15D14D
:102450000DE03B48001D0088C0F3080008800FE035
:102460003A48001D0088C0F30800088008E0394899
:10247000001D0088C0F30800088001E000207047BC
:1024800000BF0120FBE7012804D0022808D0032860
:1024900012D10BE0C1F30802294B1B1D1A800BE07F
:1024A000C1F30802294B1B1D1A8005E0C1F3080285
:1024B000284B1B1D1A8000BF00BF704711B1274A6F
:1024C00042F82010704708B540F225511C48FFF72C
:1024D000C1FC58B169460120FFF7B3FF1F484068AF
:1024E00020B11E484168BDF80000884708BD08B506
:1024F00040F225511548FFF7ADFC58B1694602205E
:10250000FFF79FFF1548806820B114488168BDF827
:102510000000884708BD08B540F225510D48FFF777
:1025200099FC58B169460320FFF78BFF0B48C06840
:1025300020B10A48C168BDF80000884708BD000006
:10254000003801400008014004000200004400403F
:102550000800040000480040000C0140F401002085
:1025600010B54FF4A060FDF72BFF10BD2DE9FE4321
:1025700006460D4617469846012000FA05F1482206
:102580003046FFF7ABFC01210846FEF731FBE9B20C
:10259000F0B2FEF787F90120A840019000208DF8E5
:1025A00008000C208DF8090001208DF80A0001A810
:1025B000FDF782FF102D29D2DFE805F0080A0C0E86
:1025C00010121416181A1C1E2022242606241EE09F
:1025D00007241CE008241AE0092418E00A2416E065
:1025E000172414E0172412E0172410E017240EE03B
:1025F00017240CE028240AE0282408E0282406E018
:10260000282404E0282402E0282400E000BF00BFC2
:10261000E0B28DF80000F8B28DF8010008F0FF007C
:102620008DF8020001208DF803006846FDF7CDFE0D
:10263000BDE8FE83F8B507460D461646102D29D293
:10264000DFE805F0080A0C0E10121416181A1C1EEA
:102650002022242606241EE007241CE008241AE079
:10266000092418E00A2416E0172414E0172412E0C5
:10267000172410E017240EE017240CE028240AE0A9
:10268000282408E0282406E0282404E0282402E086
:10269000282400E000BF00BFE0B28DF800008DF8F4
:1026A00003606846FDF791FEF8BD11B1854A42F816
:1026B0002010704710B50120FDF764FF012808D1F4
:1026C0008048006810B17F49086880470120FDF705
:1026D0006AFF10BD10B50220FDF754FF012808D194
:1026E0007848406810B17749486880470220FDF774
:1026F0005AFF10BD10B50420FDF744FF012808D192
:102700007048806810B16F49886880470420FDF7E1
:102710004AFF10BD10B50820FDF734FF012808D18D
:102720006848C06810B16749C86880470820FDF74D
:102730003AFF10BD10B51020FDF724FF012808D185
:102740006048006910B15F49086980471020FDF7B3
:102750002AFF10BD10B52020FDF714FF012809D174
:102760005848406910B15749486980472020FDF713
:102770001AFF3EE04020FDF705FF012809D151482E
:10278000806910B14F49886980474020FDF70BFFF1
:102790002FE08020FDF7F6FE012809D14948C069E5
:1027A00010B14849C86980478020FDF7FCFE20E051
:1027B0004FF48070FDF7E6FE01280AD14148006A17
:1027C00010B14049086A80474FF48070FDF7EBFE76
:1027D0000FE04FF40070FDF7D5FE012809D139480C
:1027E000406A10B13749486A80474FF40070FDF7DE
:1027F000DAFE10BD10B54FF48060FDF7C3FE01286E
:102800000AD13048806A10B12E49886A80474FF457
:102810008060FDF7C8FE53E04FF40060FDF7B2FEA4
:1028200001280AD12748C06A10B12649C86A8047E2
:102830004FF40060FDF7B7FE42E04FF48050FDF723
:10284000A1FE01280AD11F48006B10B11D49086B79
:1028500080474FF48050FDF7A6FE31E04FF4005062
:10286000FDF790FE01280AD11648406B10B11549BA
:10287000486B80474FF40050FDF795FE20E04FF481
:102880008040FDF77FFE01280AD10E48806B10B111
:102890000C49886B80474FF48040FDF784FE0FE0C1
:1028A0004FF40040FDF76EFE012809D10548C06BCA
:1028B00010B10449C86B80474FF40040FDF773FE28
:1028C00010BD0000040200202DE9FF4F85B0054631
:1028D0008A469B46129F0AEBCA004FEAC00944F69B
:1028E0002060B9FBF0F084B2012C03DC00241FFA55
:1028F00089F814E0012C0ADD42F21070844206DCF3
:10290000601E84B2B9FBF4F01FFA80F807E042F2CF
:102910001070844203DD002009B0BDE8F08FB5F1EE
:10292000804F05D11C2601210846FEF76EF910E004
:10293000FE48854205D11D2601210220FEF765F9DA
:1029400007E0FB48854204D11E2601210420FEF742
:102950005CF9ADF80C80ADF808400020ADF80E0031
:10296000ADF80A0002A92846FEF77AFA3A46284648
:102970000799FEF7ECFDF0B28DF8040000208DF809
:1029800005000BF0FF008DF806008DF8077001A818
:10299000FDF71BFD39462846FEF7BEFD0120BBE7CB
:1029A0002DE9FF4F85B005468A469B46129FE148B8
:1029B0000AFB00F947F23050B9FBF0F084B2012C69
:1029C00003DC00241FFA89F817E0012C0ADD49F620
:1029D0004040844206DC601E84B2B9FBF4F01FFA6A
:1029E00080F80AE044F62060844206DDD2A002F0BE
:1029F0005BFB002009B0BDE8F08FB5F1804F05D139
:102A00001C2601210846FEF700F910E0C748854260
:102A100005D11D2601210220FEF7F7F807E0C44882
:102A2000854204D11E2601210420FEF7EEF8ADF800
:102A30000C80ADF808400020ADF80E00ADF80A009B
:102A400002A92846FEF70CFA3A4628460799FEF7EF
:102A50007EFDF0B28DF8040000208DF805000BF02B
:102A6000FF008DF806008DF8077001A8FDF7ADFC9A
:102A70003A4628460799FEF76AFD39462846FEF78A
:102A80004BFD0120B6E72DE9F8430446884617467A
:102A90001E46324641462046FEF759FDB4F1804FAE
:102AA00001D11C2508E0A148844201D11D2503E085
:102AB0009F48844200D11E25E8B28DF80000002016
:102AC0008DF80100F8B28DF802008DF803606846B9
:102AD000FDF77BFCBDE8F8837FB505460C4660201A
:102AE000ADF800000120ADF802000020ADF80800AC
:102AF000012C06D0022C0DD0032C14D0042C24D190
:102B00001AE069462846FEF7E8F908212846FEF74C
:102B100033FE1BE069462846FEF721FA08212846C5
:102B2000FEF733FE12E069462846FEF765FA0821F3
:102B30002846FEF737FE09E069462846FEF7A7FA61
:102B400008212846FEF737FE00E000BF00BF7FBD2A
:102B50002DE9FE4305460E469146B04644F62060F8
:102B6000B8FBF0F084B2012C05DC0024A8F10100D0
:102B7000804687B216E0012C0ADD42F210708442D2
:102B800006DCB8FBF4F0401E87B2601E84B209E098
:102B900042F21070844205DD6CA002F085FA00203C
:102BA000BDE8FE83B5F1804F04D101210846FEF750
:102BB0002CF80EE05D48854204D101210220FEF789
:102BC00024F806E05A48854203D101210420FEF78B
:102BD0001CF8ADF80470ADF800400020ADF8060018
:102BE000ADF8020069462846FEF73AF949462846FC
:102BF000FEF792FC0120D3E770B505460C46B5F10F
:102C0000804F22D1012C06D0022C0AD0032C0ED0EA
:102C1000042C18D111E0182201210020FFF75EF9E1
:102C200012E0182202210020FFF758F90CE01822C8
:102C300004210020FFF752F906E0182208210020A5
:102C4000FFF74CF900E000BF4DE03848854222D143
:102C5000012C06D0022C0AD0032C0ED0042C18D143
:102C600011E0182240210020FFF738F912E0182265
:102C700080210020FFF732F90CE0182201210846DC
:102C8000FFF72CF906E0182202210120FFF726F9B0
:102C900000E000BF27E02648854224D1012C06D061
:102CA000022C0AD0032C0ED0042C1AD112E01822C8
:102CB00040210120FFF712F914E0182280210120A1
:102CC000FFF70CF90EE018224FF480710120FFF796
:102CD00005F907E018224FF400710120FFF7FEF814
:102CE00000E000BF00BF70BD2DE9F04707468846F1
:102CF00014461D461A48B0FBF4F6B0FBF4F104FB91
:102D00001109B9EB540F00D3761C41463846FFF742
:102D100073FF2A4631463846FFF71AFF41463846C8
:102D2000FFF7DAFE294638461CE0000000040040A8
:102D3000000800404019010054696D5F6D732069FF
:102D40007320746F6F206D756368000054696D5F48
:102D5000757320697320746F6F206D756368000050
:102D600000A24A04FEF7D8FBBDE8F0872DE9F04148
:102D700005460E46144642F21070844202D90020E5
:102D8000BDE8F081AF8D781C604342F21071B0FB5A
:102D9000F1F4012E06D0022E09D0032E0CD0042E01
:102DA00014D10EE0A1B22846FEF74EFE0FE0A1B20C
:102DB0002846FEF74BFE0AE0A1B22846FEF748FE81
:102DC00005E0A1B22846FEF745FE00E000BF00BFC7
:102DD0000120D5E72DE9FF4704460E4617469846E1
:102DE000DDF83090B4F1804F05D11C250121084653
:102DF000FDF70BFF10E0D248844205D11D250121CB
:102E00000220FDF702FF07E0CE48844204D11E25D0
:102E100001210420FDF7F9FEADF80860ADF804705B
:102E20000020ADF80A00ADF8060001A92046FEF723
:102E300017F8E8B28DF8000002208DF8010008F0C4
:102E4000FF008DF8020001208DF803006846FDF7B1
:102E5000BCFA49462046FEF75FFB002004B0BDE8FF
:102E6000F0872DE9F04107460E46B7F1804F42D179
:102E700001210846FDF7C9FE01210420FDF7B8FE37
:102E8000012E06D0022E10D0032E1AD0042E30D1DF
:102E900023E0282201210020FFF720F80121AA4881
:102EA000FDF799FC0024022524E0282202210020BD
:102EB000FFF714F80221A448FDF78DFC0424042533
:102EC00018E0282204210020FFF708F804219E487A
:102ED000FDF781FC082408250CE0282208210020A9
:102EE000FEF7FCFF08219848FDF775FC0C2410251F
:102EF00000E000BF93E09248874246D101210220C2
:102F0000FDF783FE01210820FDF772FE0121042058
:102F1000FDF76EFE012E06D0022E10D0032E1AD021
:102F2000042E30D123E0282240210020FEF7D6FFD6
:102F300040218548FDF74FFC0024022524E028228B
:102F400080210020FEF7CAFF80217F48FDF743FC67
:102F50000424042518E0282201210846FEF7BEFFBC
:102F600001217A48FDF737FC082408250CE02822C7
:102F700002210120FEF7B2FF02217448FDF72BFC6D
:102F80000C24102500E000BF49E06E48874246D17E
:102F900001210420FDF739FE01210820FDF728FE5C
:102FA000012E06D0022E10D0032E1AD0042E34D1BA
:102FB00025E0282240210120FEF790FF40216348B0
:102FC000FDF709FC0024022528E0282280210120A9
:102FD000FEF784FF80215D48FDF7FDFB04240425F6
:102FE0001CE028224FF480710120FEF777FF4FF498
:102FF00080715648FDF7EFFB082408250EE02822D3
:103000004FF400710120FEF769FF4FF400714F4843
:10301000FDF7E1FB0C24102500E000BF00BF04EB2E
:103020000540BDE8F0812DE9FF4707460C461546EF
:103030001E46DDE90C8921463846FFF712FF1FFACC
:1030400080FA012043463246294600903846FFF771
:10305000C1FE012C06D0022C0AD0032C0ED0042C69
:1030600018D111E0012203213846FEF770FA12E070
:10307000012205213846FEF76AFA0CE001220921F7
:103080003846FEF764FA06E0012211213846FEF7C1
:103090005EFA00E000BF00BF01210A463846FEF795
:1030A00056FA0AF0FF00ADF804000020ADF8060063
:1030B0000120ADF808000020ADF80A00ADF80C9032
:1030C00001A93846FEF75FF901213846FEF724FAD8
:1030D000BDE8FF8711B11E4A42F82010704770B555
:1030E00004460D4629462046FEF716FA70BD10B577
:1030F0001748806818B116498868804704E00321A2
:103100004FF08040FEF7E2FC10BD10B51048C068DB
:1031100018B10F49C868804703E003210848FEF74B
:10312000D5FC10BD10B50A48006918B108490869F6
:10313000804703E003210348FEF7C8FC10BD0000F0
:10314000000400400008004000080140000C01405D
:10315000440200202DE9F047044689464A48206091
:10316000484601F046FE0746484A494B01F02DFD0E
:10317000054601F051FE6060BDE8F0872DE9F05F83
:1031800004460E4615462846616801F007FC834652
:10319000A16801F0ABFB80464FF07E50216801F042
:1031A000F7FB8246414601F0F9FB074631462068AD
:1031B00001F0F4FB8146394601F098FBA060BDE8C0
:1031C000F09F2DE9F04704468946484601F011FE7C
:1031D00007462E4A2E4B01F0F8FC054601F01CFE76
:1031E00020602C486060BDE8F0872DE9F05F044660
:1031F0000D4616464FF07E50616801F0C9FB8046CF
:103200004FF07E50616801F0C3FB8146284661693A
:1032100001F0BEFB8246494601F0C0FB074641462D
:1032200001F0BCFBA0602168A06801F0B7FB074675
:10323000216901F05BFB20612846616901F0A8FB70
:1032400082464FF07E50616801F0A2FB83464FF04A
:10325000804101F0A3FB8146514601F09FFB80466F
:10326000216901F043FB0746314601F03FFBE06076
:103270002168E06801F092FB0746616901F036FBC6
:103280006061BDE8F09F0000CDCCCC3DFA7E6ABC09
:103290007493683FCDCC4C3E08B501210820FDF762
:1032A000A7FC4FF44060ADF8000010208DF803003B
:1032B00003208DF8020069469748FDF7DDF94FF4C9
:1032C00040619548FDF785FA08BD10B59248001D8C
:1032D000006820F470409049091D086008460068A5
:1032E00040F44050086001208C4908608C49C1F8C6
:1032F000A8010420FEF73FFF002088490860042051
:10330000FEF739FF00208649C1F8A80110BD10B5AD
:103310008148001D006820F470407F49091D086045
:103320000846006840F44050086000207B49091FAF
:1033300008607B49C1F8AC010420FEF71CFF0120A6
:103340007649091F08607649C1F8AC010420FEF7F0
:1033500012FF10BD10B500246F48001D006820F456
:1033600070406D49091D08600846006840F400403F
:103370000860012069490860FEF7FDFE01206849E8
:10338000C1F8A801FEF7F7FE07E0601CC4B2FA2CF2
:1033900003DDFFF7BCFF012010BD604880380068E6
:1033A0000028F2D15D49091F086000BFF4E710B59D
:1033B00000205A49091F08605748001D006820F482
:1033C00070405549091D08600846006840F44050A7
:1033D000086000205249C1F8AC010220FEF7CBFE84
:1033E00001204E49091F08600220FEF7C4FE00209C
:1033F0004B49C1F8A80110BD10B500204749091F6D
:1034000008604548001D006820F470404249091DCD
:1034100008600846006840F44050086001204049B8
:10342000C1F8AC010220FEF7A6FE01203B49091FAE
:1034300008600220FEF79FFE00203949C1F8A8016C
:1034400010BD70B504463448001D006820F470407B
:103450003149091D08600846006840F44050086082
:1034600000202E49091F086000251DE0E00918B161
:1034700001202A49086002E000202849086060060F
:10348000040E0220FEF777FE01202449091F086080
:103490000220FEF770FE00202149C1F8A801022099
:1034A000FEF769FE681CC5B2082DDFDB70BD70B584
:1034B000054600241848001D006820F47040164995
:1034C000091D08600846006840F4004008600026B6
:1034D00017E000201149091F08600220FEF74BFE8B
:1034E00001200F49C1F8A8016006040E0B4880387E
:1034F000006808B1601CC4B20120FEF73CFE701CDD
:10350000C6B2082EE5DB15B9FFF776FF01E0FFF73D
:103510004EFF204670BD0000000C0140AC812142EE
:10352000008021422DE9F047044689464FF07E5045
:1035300020606060A348A060A348E060A3482061C9
:1035400000206061484601F054FC0746A04AA14BA8
:1035500001F03BFB054601F05FFCA06100206062CA
:10356000BDE8F0872DE9F04704460E46154629468A
:10357000A06901F013FA0746616A206801F00EFAAB
:103580008046394601F0B2F920622169206801F0D5
:1035900005FA8046216801F001FA0746A16801F0AA
:1035A000A5F960616169606801F0F8F982466168B7
:1035B00001F0F4F98046E16801F098F90746616886
:1035C000606901F0EBF98146394601F019FAE061D2
:1035D000216A606801F0E2F98146314601F0DBF9C9
:1035E0008046E16901F0DAF90746216A01F07EF9C7
:1035F00060626168E06901F0D1F980464FF07E5168
:1036000001F0C9F90746616901F0C8F92061BDE818
:10361000F0872DE9F04704468946484601F0E9FB6A
:1036200007466B4A6B4B01F0D0FA054601F0F4FBFC
:1036300020604FF07E50E060002121616161014611
:10364000A1610020E061002121626162A162624803
:10365000E062624820634FF07C5060634FF07E5020
:10366000A063BDE8F0872DE9F04104460D461646FB
:103670003046E16B01F08CF98046216801F08EF94B
:103680000746616801F032F960602846616801F020
:103690007FF920642169E06A01F07AF907466169DF
:1036A00001F076F9E061A06980F000412162A06933
:1036B00080F000416162216BA1622168E06901F044
:1036C0006DF90746E16801F011F9E0602168206AB0
:1036D00001F064F90746216901F008F920612168C9
:1036E000606A01F05BF90746616901F0FFF860610B
:1036F0002168A06A01F052F90746A16901F0F6F8C5
:10370000A061E168A06B01F049F960646169A06B98
:1037100001F044F9A064616CA06B01F03FF9074629
:10372000616B01F0E3F8E064E16C606C01F068F952
:103730002065D4E9120101F063F96065606CA06551
:103740002169A06B01F02AF9E065A16D206D01F0FF
:1037500025F90746E16801F01EF9E060E16D206D92
:1037600001F01CF90746216901F015F92061D4E93F
:10377000150101F013F90746616901F00CF9606168
:10378000E16D606D01F00AF90746A16901F003F9E6
:10379000A061216C206D01F001F90746616801F01C
:1037A000A5F86060216C606D01F0F8F80746E16BE8
:1037B00001F09CF8E0633046E16B01F0E9F8A060AD
:1037C000BDE8F081A69B443B0AD7233C0000A04003
:1037D000FCA9F1D24D62503F6F12833A0AD7A33B46
:1037E00070B505460C46FFF770FDD020FFF729FEA7
:1037F000FFF7B0FD2846FFF724FEFFF7ABFD20469C
:10380000FFF71FFEFFF7A6FDFFF781FD70BD70B546
:103810000446FFF75AFDD020FFF713FEFFF79AFD8D
:103820002046FFF70EFEFFF795FDFFF74EFDD12076
:10383000FFF707FEFFF78EFD0020FFF738FE054675
:10384000FFF765FD284670BD10B500216B20FFF71E
:10385000C7FF07211920FFF7C3FF06211A20FFF732
:10386000BFFF18211B20FFF7BBFF01211C20FFF722
:10387000B7FF10BD10B57520FFF7C9FF682801D14B
:10388000012010BD0020FCE770B504460026002092
:10389000A0820021E1822183E08121826182A081D6
:1038A000002514E00020A0824320FFF7B0FFA08293
:1038B000207D000200B2A0824420FFF7A8FFB4F9E7
:1038C00014100843A082B4F9140006446D1CB5F529
:1038D000FA6FE7DB96FBF5F000B2A0820026002528
:1038E00014E00021E1824520FFF791FFE082A07DF6
:1038F000000201B2E1824620FFF789FFB4F91610F9
:103900000843E082B4F9160006446D1CB5F5FA6F61
:10391000E7DB96FBF5F001B2E1820026002514E01A
:10392000002121834720FFF772FF2083207E0002C1
:1039300001B221834820FFF76AFFB4F91810084349
:103940002083B4F9180006446D1CB5F5FA6FE7DB67
:1039500096FBF5F001B22183002670BD10B5044638
:103960004320FFF754FFE080A079000200B2E0801E
:103970004420FFF74CFFB4F906100843E080E088CC
:10398000A18A401A00B2E0804520FFF740FF208165
:10399000207A000201B221814620FFF738FFB4F9F6
:1039A0000810084320812189E08A081A01B2218188
:1039B0004720FFF72CFF6081A07A000201B26181ED
:1039C0004820FFF724FFB4F90A1008436081618999
:1039D000208B081A01B261813B20FFF718FF20807D
:1039E0002078000200B220803C20FFF710FFB4F9DD
:1039F0000010084320802088E189401A00B220800E
:103A00003D20FFF704FF6080A078000200B26080D4
:103A10003E20FFF7FCFEB4F9021008436080618885
:103A2000208A081A00B260803F20FFF7F0FEA080D5
:103A30002079000200B2A0804020FFF7E8FEB4F930
:103A400004100843A080A188608A081A00B2A080F0
:103A50004120FFF7DCFEA081207B000200B2A081A4
:103A60004220FFF7D4FEB4F90C100843A08110BD2A
:103A70002DE9F84F8246BAF900104943BAF90220FD
:103A800002FB0211BAF9042002FB021001F07EF9D8
:103A9000044600F081F88346BAF9000001F076F997
:103AA0000446594600F0ACFFCAF83800BAF90200E3
:103AB00001F06CF90446594600F0A2FFCAF83C0038
:103AC000BAF9040001F062F90446594600F098FF83
:103AD000CAF84000DAF84010DAF8380000F090FF39
:103AE000009001F086F9804601F038FE0646274A2C
:103AF000274B01F06AF8044601F08EF9CAF8380045
:103B0000DAE90F0100F07CFF009001F072F906463F
:103B100001F024FE80461D4A1D4B01F056F8044674
:103B200001F07AF9CAF83C00BDE8F88F2DE9F041C0
:103B30000446B4F9060001F032F907464FF0663248
:103B4000144B01F0B4F8054601F066F96064B4F96D
:103B5000080001F024F907464FF066320D4B01F0E2
:103B6000A6F8054601F058F9A064B4F90A0001F07E
:103B700016F907464FF06632064B01F098F80546F5
:103B800001F04AF9E064BDE8F0810000CC4DCC6161
:103B900094A94C40666630402DE9F05F04464FF032
:103BA0007F594FF07C51204600F0F8FE82462546B2
:103BB0002E461448A0EB660635462946504600F0CE
:103BC000EDFE8346294600F0E9FE8046494600F0B6
:103BD000E2FE0746294600F0E1FE0546294650462A
:103BE00000F0DCFE8346294600F0D8FE80464946B8
:103BF00000F0D1FE0746294600F0D0FE05462846D3
:103C0000BDE8F09FDF59375F70B505460C46FFF7FA
:103C10005CFB3C20FFF715FCFFF79CFB2846FFF7F9
:103C200010FCFFF797FB2046FFF70BFCFFF792FB1A
:103C3000FFF76DFB70BD10B5E0210120FFF7E4FF39
:103C400000210220FFF7E0FF10BD70B50446FFF72A
:103C50003CFB3C20FFF7F5FBFFF77CFB2046FFF722
:103C6000F0FBFFF777FBFFF730FB3D20FFF7E9FBA9
:103C7000FFF770FB0020FFF71AFC0546FFF747FB34
:103C8000284670BD3EB504460320FFF7DEFFADF8C1
:103C900000000420FFF7D9FFADF802000520FFF770
:103CA000D4FFADF804000620FFF7CFFFADF8060003
:103CB0000720FFF7CAFFADF808000820FFF7C5FF8F
:103CC000ADF80A00BDF80010BDF8020061F31F2036
:103CD00000B220802088E188401A00B22080BDF820
:103CE0000410BDF8060061F31F2000B260806088F8
:103CF0006189401A00B26080BDF80810BDF80A0062
:103D000061F31F2000B2A080A0882189401A00B270
:103D1000A0803EBD2DE9F05F044600250026002767
:103D2000A846A946AA46AB462DE02046FFF7AAFFC3
:103D3000B4F90000A84201DDB4F90050B4F9000064
:103D4000B04201DAB4F90060B4F90400B84201DD10
:103D5000B4F90470B4F90400404501DAB4F9048000
:103D6000B4F90200484501DDB4F90290B4F902004B
:103D7000504501DAB4F902A00A20FEF720FA0BF14F
:103D800001000FFA80FBBBF5FA7FCEDBA81900EB30
:103D9000D071491009B2E18007EB080000EBD07147
:103DA000491009B2218109EB0A0000EBD0714910DA
:103DB00009B26181BDE8F09F2DE9FF5F8246504660
:103DC000FFF760FFBAF8000078B9BAF904000028DC
:103DD00003DD0020CAF8100052E0BAF90400002800
:103DE0004EDA2848CAF810004AE0BAF90000002864
:103DF00023DABAF9000000F0C9FF0190BAF9040013
:103E000000F0C4FF0090019900F0FAFD834600F035
:103E1000F0FF064601F0A2FC1B4A1C4BCDE9020153
:103E200000F0D3FE04460022194B00F027FE804626
:103E300000F0F2FFCAF8100022E0BAF9000000F02A
:103E4000A5FF0190BAF9040000F0A0FF00900199CD
:103E500000F0D6FD834600F0CCFFCDE9020101F071
:103E60007DFC0646084A094B00F0AFFE8046002262
:103E7000074B00F0A4FE044600F0CEFFCAF8100085
:103E8000BDE8FF9F000034C3CC4DCC6194A94C40E9
:103E90000080564070B505460C462846FFF75EFD8B
:103EA0002846FFF7E5FD2846FFF740FE2046FFF7CE
:103EB00083FF70BD2DE9F04F91B081460C4620463E
:103EC000FFF7E0FED9F8000000F093FF0746FE4A36
:103ED000FE4B00F07AFE054600F09EFF0F90D9F8E9
:103EE000040000F086FF0746F74AF84B00F06DFE2D
:103EF000054600F091FF0E900F9800F07AFF0546FE
:103F000001F094FD82468B460E9800F072FF074642
:103F100001F036FDCDE90401B4F9020000F03FFFE5
:103F20000546DDE9042300F050FE52465B46CDE92C
:103F3000060100F04AFECDE90A010F9800F059FF92
:103F4000054601F073FDCDE902010E9800F051FF26
:103F5000824601F06BFD05460E46B4F9040000F000
:103F60001EFF07462A46334600F02FFECDE900012A
:103F7000DDE9022300F029FECDE906010F9800F0EB
:103F800038FF074601F0FCFC05460E46B4F9000078
:103F900000F005FF82462A46334600F016FECDE9C2
:103FA0000401DDE9062300F069FDCDE90801DDE942
:103FB0000A2300F063FDCDE90C0100F02DFF6061E4
:103FC0000E9800F016FF824601F030FD05460E46C1
:103FD000B4F9020000F0E3FE07462A46334600F03B
:103FE000F4FDCDE90A010E9800F003FF054601F04B
:103FF000C7FC07468846B4F90410484200F0CFFEDB
:1040000082463A46434600F0E0FDCDE90801DDE98D
:104010000A2300F033FDCDE90C0100F0FDFEA061A4
:10402000D4E9051000F0ECFC0D9000F0E2FE05462E
:1040300001F094FB0746A64AA64B00F0C6FD824657
:1040400000F0EAFEE061E06920F00040E061B4F9D0
:104050000400002803DDB4F90000002807DBB4F9F0
:104060000400002808DAB4F90000002804DD9A49A9
:10407000E06900F093FCE061B4F90000002805DA83
:104080009649E06900F032FCE06108E0B4F9000014
:10409000002804DD9149E06900F07AFCE06111B08C
:1040A000BDE8F08F2DE9F04781460C4692468A49DB
:1040B000A06C00F073FC05462A464846A16BFFF74A
:1040C00051FAD9F8240000F094FE0746844A854B43
:1040D00000F0D4FC054600F09FFECAF80000BDE8E1
:1040E000F0872DE9F04781460C4692467A49606C8C
:1040F00000F054FC05462A464846E16BFFF732FAC9
:10410000D9F8240000F075FE0746774A774B00F097
:1041100056FD054600F080FECAF80400BDE8F087B1
:104120002DE9F04F87B0044689467149206900F0B7
:1041300099FE34D26F49206900F08AFE2FD8002101
:10414000D9F8000000F08EFE28D20021D9F8000036
:1041500000F024FC019000F04CFE05460E46D9F814
:10416000040000F046FE4FF03332634BCDE900010E
:1041700000F02BFD07462A46334600F020FDCDE92E
:104180000401206900F035FECDE90201DDE90423D8
:1041900000F074FC824600F03FFE206150E155497A
:1041A000206900F05FFE30D25449206900F050FED3
:1041B0002BD8D9F8040000F01CFE05464FF06632FB
:1041C0004F4B00F002FD07468846D9F8000000F08A
:1041D00010FE0546444A4B4B00F0F7FC3A46434676
:1041E000CDE9000100F04AFC82468B46206900F0D0
:1041F00000FE52465B46CDE9020100F0E0FCCDE94D
:10420000040100F009FE20611AE13C49206900F038
:1042100029FE2ED23C49206900F01AFE29D8D9F88F
:10422000000000F0E6FD05462D4A384B00F0CDFCBD
:1042300007468846D9F8040000F0DBFD0546002259
:10424000334B00F0C2FC82463A46434600F016FC6F
:10425000CDE90201206900F0CCFDCDE90001DDE9E6
:10426000022300F0ACFCCDE9040100F0D5FD206193
:10427000E6E02549206900F0F5FD68D2254920696E
:1042800000F0E6FD63D80021D9F8040000F0E0FD5D
:1042900044D2D9F8040000F0ACFD4FF066321E4B5A
:1042A000CDE9040100F091FC05460E46206900F0BE
:1042B000A0FD82462A46334600F081FC074600F006
:1042C000ABFD2061BCE000007A6C52A246DF913F5A
:1042D000CC4DCC6194A94C40000080BF0000B4429A
:1042E000CDCCCCCCCCCC16409A99999999990140D7
:1042F0000000C8C10000C8413333D33F00008C42E6
:104300006666F6BF9999F13F0000FA42CCCCE43FD3
:104310000000D03F000034436666D63FD9F8040061
:1043200000F067FD82464FF033325F4B00F04DFCEA
:10433000CDE90401206900F05CFD0746DDE90423B6
:1043400000F03DFC054600F067FD206178E057492C
:10435000206900F07DFD1DD25549206900F082FDE5
:1043600018D2D9F8000000F044FD05464FF0333272
:104370004D4B00F02AFCCDE90401206900F039FD25
:104380008246DDE9042300F079FB074600F044FD96
:10439000206155E04749206900F064FD2ED2444970
:1043A000206900F055FD29D8D9F8000000F021FD62
:1043B0000746414A414B00F008FC05460E46D9F835
:1043C000040000F016FD074600223D4B00F0FDFB07
:1043D00082462A46334600F051FBCDE902012069AE
:1043E00000F007FDCDE90001DDE9022300F046FB06
:1043F000CDE9040100F010FD206121E03149206980
:1044000000F030FD1CD22B49206900F021FD17D8A7
:10441000D9F8040000F0EDFC82464FF033322A4B0D
:1044200000F0D3FBCDE90401206900F0E2FC07466F
:10443000DDE9042300F022FB054600F0EDFC2061DD
:1044400007B0BDE8F08F2DE9F04106460F4614464F
:104450001D4629462046FFF763FE1C49F86C00F014
:104460009DFA8046424630462169FFF77BF8706A24
:10447000A860BDE8F0812DE9F04106460F461446DC
:104480001D4629462046FFF74BFE1049F86C00F008
:1044900085FA8046424630462169FEF76FFEB068D5
:1044A000A860BDE8F08100003333E33F0000C8C1DD
:1044B00000008CC20000FAC2CDCCCCCCCCCCDC3F0E
:1044C0000000D0BF000034C33333E3BF000080BF1F
:1044D0007F4901607F4941607F4981600021C1605F
:1044E0007E4901610021416181617D49C1610021F5
:1044F000016270472DE9F04705460E461446E06814
:104500006061A81B00F042FCE060D4E9030100F008
:10451000A9FC01D22069E060E168A06900F0E6F939
:10452000A061D4E9060100F09DFC01D2E069A06120
:104530006169E06800F02CFA8146A16800F02EFA6B
:104540000746A169606800F029FA8146E1682068A1
:1045500000F024FA8246494600F0C8F98046394600
:1045600000F0C4F92062BDE8F087594901604FF0BE
:104570007E514160584981600021C1605949016103
:104580000021416181615649C161002101625049A8
:1045900041624FF07E5181624F49C1620021016347
:1045A0004FF08241416300218163C1634C49016442
:1045B0000021416470472DE9F04705460E46144638
:1045C000206BA063A81B00F0E1FB2063216BE06B74
:1045D00000F08CF9E063D4E90F0100F043FC01D254
:1045E000206CE063A16B206B00F0D2F98146E16A98
:1045F00000F0D4F90746E16BA06A00F0CFF98146DC
:10460000216B606A00F0CAF98246494600F06EF9F3
:104610008046394600F06AF96064BDE8F0872DE90C
:10462000F04705460E461446E0686061A81B00F09E
:10463000ADFBE060D4E9030100F014FC01D2206975
:10464000E060E168A06900F051F9A061D4E90601D9
:1046500000F008FC01D2E069A0616169E06800F047
:1046600097F98146A16800F099F90746A169606849
:1046700000F094F98146E168206800F08FF98246E5
:10468000494600F033F98046394600F02FF92062A0
:10469000BDE8F0872DE9F04705460E461446224650
:1046A00031462846FFF7BBFF6169E06800F070F90A
:1046B000814600F085FB07B2206A00F081FB0FFA0B
:1046C00080F8224639464046FFF775FFBDE8F0877F
:1046D00000002041CDCCCC3D0000C0400000404057
:1046E00000009643000060400648804706480047A7
:1046F000FEE7FEE7FEE7FEE7FEE7FEE7FEE7FEE792
:10470000FEE7FEE7EB470008ED0000080CB50020CF
:10471000019000906C48006840F480306A4908605D
:1047200000BF6948006800F4003000900198401C08
:104730000190009818B90198B0F5A06FF1D16248C6
:10474000006800F4003010B10120009001E000206A
:1047500000900098012843D15C48006840F01000A8
:104760005A4908600846006820F0030008600846BF
:10477000006840F0020008605348406852494860B1
:104780000846406848600846406840F480604860D9
:104790000846406820F47C1048600846406840F4B1
:1047A000E81048600846006840F08070086000BF6C
:1047B0004548006800F000700028F9D04248406881
:1047C00020F00300404948600846406840F002007D
:1047D000486000BF3C48406800F00C000828F9D150
:1047E0000CBD10B5FFF792FF10BD10B5364800683C
:1047F00040F00100344908600846406834490840E8
:104800003149486008460068324908402E4908602E
:104810000846006820F4802008600846406820F4BC
:10482000FE0048604FF41F008860FFF7DAFF4FF08A
:1048300000602949086010BD10B500210020002249
:10484000214B5B6803F00C0121B1042906D0082933
:1048500028D107E0214B224C236027E01F4B204C3E
:10486000236023E0184B5B6803F47010164B5B6801
:1048700003F48032022303EB904022B9194B4343E7
:10488000174C23600DE0104B5B6803F4003323B139
:10489000144B4343124C236003E0104B4343104C32
:1048A000236003E00D4B0E4C236000BF00BF064B9E
:1048B0005B68C3F303130C4CE15C094B1B68CB40F2
:1048C000074C236010BD0000001002400020024091
:1048D0000000FFF8FFFFF6FE08ED00E000127A008E
:1048E0001800002000093D001C000020F0B480EA00
:1048F0000102D40F4200B2EB410F02D20246084639
:1049000011464A0042D0C30DDDB2C1F3C752AD1A01
:10491000202D35DAC1F3160141F4000204B15242F0
:10492000C5F1200602FA06F12A411044B3EBD05F2C
:1049300023D0C4B1012DA0EBC35009DCF0BC4FF073
:10494000004202EAC352DBB200F5000000F0BEBA3A
:10495000400000F1807000EBC350A0F1807040EA8D
:10496000D170490009E0490841EAC071A0EBC35089
:1049700000F50000400800EBC350F0BC00F09DBA09
:104980006142012202EB4101001BF6E7F0BC7047D7
:1049900081F00041AAE780F00040A7E780EA010229
:1049A00010B502F00043400022D04A001FD0010E93
:1049B00001EB1261C0F35600C2F3560240F400004E
:1049C00042F40002A0FB022000047F39140400D04E
:1049D000401C50EA124001D44000491EC2B20C06ED
:1049E00004EBD010401C4008802A02D003E00020D5
:1049F00010BD20F00100002900DA0020184310BD8E
:104A000030B480EA010202F0004530F0004221F0AB
:104A1000004013D090B1C30DD40DC2F31601C0F302
:104A20001600E41A41F4000140F400027D34914282
:104A300001D3641C00E04900002C02DA30BC0020E5
:104A400070474FF400000023914201D3891A0343B9
:104A500040084FEA4101F7D151B1914202D14FF0E4
:104A6000004105E002D24FF0010101E06FF00101C9
:104A700003EBC450284430BC00F01FBA2DE9FE4FB0
:104A8000804681EA0300C00F0C46009021F00041EF
:104A900023F00045B8EB0200A94105D2404621466B
:104AA00090461C460B46024623F00040104347D078
:104AB000270DC7F30A00C3F30A510290401A019070
:104AC00040286BDAC3F3130040F4801B0098924631
:104AD00020B10023D2EB030A63EB0B0B019859467C
:104AE000C0F14002504600F0C7F906460D46504658
:104AF0005946019A00F0CFF910EB080061410024FB
:104B000087EA115284EAE7731A4340D0009A62B3ED
:104B1000019A012A4FEA075215DC001B61EB0201E2
:104B20004FF0004202EA0752CDE90042001C41F575
:104B3000801132462B4600F004FA03B0BDE8F08F36
:104B400040462146F9E7001B61EB0201001C41F5DC
:104B5000801300185B412018A2F5001747EB0301F2
:104B600040EAD570B6196D4111E06D084FEA36067E
:104B700045EAC0754FEA0752001B61EB0201001CB9
:104B800041F5801149084FEA300000195141324681
:104B90002B4603B0BDE8F04F00F0C6B900980122E3
:104BA00040000023D0EB020263EBE0730098214643
:104BB0004FEAE074B8EB000061EB0401E9E783F031
:104BC00000435BE781F0004158E72DE9FE4F81EAA1
:104BD000030404F0004421F0004100944FF0000B66
:104BE00023F0004350EA01045ED052EA03045BD094
:104BF000C3F30A54C1F30A552C44A4F2F3340194CC
:104C0000A0FB0254C1F3130141F48011C3F3130359
:104C100043F4801301FB024400FB034E840A970A0D
:104C200044EA815447EA8357A4FB076802958D0A3A
:104C300005FB07854FEA932C04FB0C542705029DC6
:104C40004FEA065847EA1637B5EB08056EEB070C36
:104C5000870E920E47EA811742EA8312A7FB0201F0
:104C6000B6EB0B0164EB00042B0D43EA0C335E182A
:104C700044EB1C50DA465146E7FB0201C5F313042E
:104C80004FEA0B3343EA14534FEA0432019C43EAE0
:104C90000603A4F10C040294009CCDE900B400F0DA
:104CA00050F903B0BDE8F08F00200146F9E72DE987
:104CB000F04D81EA030404F0004B21F00045144656
:104CC0004FF0000A23F0004150EA050220D054EAD8
:104CD00001021DD0C5F30A570246C5F31303C1F301
:104CE0001300C1F30A5640F4801543F48013A7EB78
:104CF0000608101BD64608F2FD3873EB050002D3F8
:104D000008F1010801E092185B41B8F1000F03DAE5
:104D100000200146BDE8F08D00204FF480110646CA
:104D200084460EE0171B73EB050705D3121B63EBDC
:104D3000050306434CEA010C49084FEA300092187B
:104D40005B4150EA0107EDD152EA030012D082EA3A
:104D5000040083EA0501084305D0101BAB4106D2CD
:104D60000122002306E000224FF0004302E06FF032
:104D7000010253101AEB06004CEB085110EB0A002D
:104D800041EB0B01BDE8F04D00F0CEB8C10F80EA59
:104D9000E0700844CA079623002100F097B80EB5CA
:104DA000C10F80EAE0700844CA07002140F2334393
:104DB0008DE80E000A460B4600F0C3F803B000BDB4
:104DC00000F0004220F00040C10DC0F3160040F496
:104DD00000007F2901DA00207047962903DCC1F129
:104DE0009601C84001E096398840002AF4D040423C
:104DF000704700F0004230F000400AD0C10D01F5CC
:104E00006071C0F3160042EA0151C2084007114325
:104E1000704700200146704701F0004330B421F094
:104E2000004150EA010206D00A0DA2F56072C1F3FA
:104E30001301002A02DC30BC00207047440F44EA12
:104E4000C104C100E01830BC00EBC25000F035B81E
:104E5000002801DBC0F10040002901DBC1F1004165
:104E600081427047002801DBC0F10040002901DBCE
:104E7000C1F1004188427047202A04DB203A00FA41
:104E800002F1002070479140C2F1200320FA03F3A1
:104E9000194390407047202A06DBCB17203A41FA8D
:104EA00002F043EAE07306E041FA02F3D040C2F1B7
:104EB000200291400843194670470029A8BF704757
:104EC000401C490008BF20F00100704710B4B0FA40
:104ED00080FC00FA0CF050EA010404BF10BC7047DB
:104EE00049B1CCF1200421FA04F411FA0CF118BFF5
:104EF000012121430843A3EB0C01CB1D4FEA0061C4
:104F00004FEA102042BF002010BC704700EBC35096
:104F100010440029A4BF10BC7047401C490008BFC2
:104F200020F0010010BC704710B5002B08DA401CBF
:104F300041F1000192185B411A4301D120F00100B8
:104F400010BD2DE9F04D92469B4611B1B1FA81F2A8
:104F500002E0B0FA80F220329046FFF78DFF04465F
:104F60000F4640EA0A0041EA0B0153465A460843FD
:104F700013D0114653EA010019D0C8F1400250463F
:104F800000F056F805460E46504659464246FFF791
:104F900073FF084305D0012004E020463946BDE8F0
:104FA000F08D0020054346EAE0762C4337430A980B
:104FB0006305E40AA0EB08000022FD0A44EA475416
:104FC0000A3002D500200146E9E7010510196941C0
:104FD000DDE9084500196941BDE8F04DA4E770B569
:104FE00021F0004303430CD0C1F30A550024D5EB54
:104FF000040564EB0403D617AD1AB34102DB0020AD
:10500000014670BD201841EB025170BD064C074DA2
:1050100006E0E06840F0010394E807009847103488
:10502000AC42F6D3FBF766F8985C0008B85C000861
:10503000202A04DB203A21FA02F00021704721FAED
:1050400002F3D040C2F12002914008431946704754
:105050000EB540F2334102910021CDE900110A461C
:105060000B46FFF76EFF03B000BD70B5C1F30A52E7
:1050700001F000450024C1F3130140F2FF3341F475
:1050800080119A4201DA002070BD40F233439A4207
:10509000A2F2334203DC5242FFF7CAFF00E0904025
:1050A0002C43F1D0404270BD014A024900F044BB9C
:1050B000192200082C000020490050EAC12018BF26
:1050C00004204A0D18BF40F0010040F2FF72B2EB1D
:1050D000515F08BF40F00200012808BF052070475B
:1050E0002DE9F74F144696B00021C4E90211179933
:1050F000089121F00045CA498D4206DC1799C4E9A0
:10510000000119B00020BDE8F08FC649DFF818A3F0
:10511000A9423CDD0899C54E0029C54FC54A1799DB
:10512000534619DDFFF74BFD554506D0C24AC34B28
:10513000FFF745FDC4E900010AE04FF0D352BF4B31
:10514000FFF73DFD32463B46FFF739FDC4E900015C
:1051500019B00120BDE8F08FFFF790FC554506D04F
:10516000B54AB64BFFF78AFCC4E900010AE04FF0EC
:10517000D352B24BFFF782FC32463B46FFF77EFC30
:10518000C4E9000119B04FF0FF30BDE8F08FAC4921
:10519000A942179978DB21F000488346A94AAA4B17
:1051A0004146FFF712FD0022A84BFFF767FCFFF70F
:1051B0005CFF0990FFF7F3FD06460F469D4A5346F4
:1051C000FFF703FD5A464346FFF7FCFC80468A463C
:1051D000994A9A4B30463946FFF7F7FC2A0D0125CC
:1051E0000B9242465346FFF7EDFC032DC4E9000144
:1051F00039D00B98C1F30A51401A05EB451111390A
:10520000814230DA9248C346784400EB0510CDF86D
:105210001CA00C90D0E9002330463946FFF7D5FC9E
:10522000CDE9020102460B4658460799FFF7C7FC35
:1052300080468A4602460B4658460799FFF7BFFC50
:10524000DDE90223FFF7BBFC83460C980391394646
:10525000D0E902233046FFF7B8FC5A46039BFFF71C
:10526000AEFC6D1CBDE708980028A2BF099819B0D4
:10527000BDE8F08F616881F000416160099819B064
:105280004042BDE8F08FFFE7C1F3130141F4801104
:105290000E911799C1F30A51A1F2F532511102F0A2
:1052A0001F08C8F12002129200220C920D92694A46
:1052B0007A4402EB810101F1140C0DA95FF006079D
:1052C000DCF80020DCF8045002FA08F3129AD1F856
:1052D00000A025FA02F21A430E9BA2FB0356A2FB82
:1052E00000329A4415449A4534BF4FF0010B4FF0F9
:1052F000000B51F8043C05EB0B0E7344954234BF90
:10530000012200221644BBF1000F02D0AB4202D9A9
:1053100003E0AB4201D2012200E0002241F808A9DB
:105320003244E1E801237F1EACF1040CC8D1089897
:10533000DDE90A6500F10050800F11900898099F7F
:105340008000FFF72CFD80468A463846FFF780FE36
:105350006FF01D02FFF743FE074630460591FFF749
:1053600077FE6FF03D02FFF73AFECDE903102846C5
:10537000FFF76EFE6FF05D02FFF731FE0646024654
:105380000B460191DDE90310FFF778FB3A46059BD8
:10539000FFF774FB42465346FFF770FB00200D46B3
:1053A000834642465346FFF70AFC3A46059BFFF701
:1053B00006FCDDE90332FFF702FC3246019BFFF7F2
:1053C00001FCDFF89880244A4346FFF7FEFB0646BF
:1053D0000F46234A234B58462946FFF7F6FB324631
:1053E0003B46FFF74BFB0F4606464FF0A8424346AD
:1053F00058462946FFF7E9FB32463B46FFF73EFB9E
:10540000179A12F0004F04D0119A81F000415242D5
:105410001192C4E90001119819B0BDE8F08F0000A5
:10542000FB21E93F7CD90240FB21F93F7370032E39
:105430008A19A33B000040543163621A61B4D03D25
:10544000FB21394183C8C96D305FE43F0000E03F74
:105450009C09000024090000182D4454FB21F93D4B
:105460003326A611460B113C2DE9FF4D21F00048D3
:1054700007460C46B8F1795F08DAFFF7F6FD002819
:1054800001BF0020324904B0BDE8F08D3A46234602
:1054900010461946FFF799FB054602462D480E4671
:1054A0000B460621784400F05DF82A463346FFF7A4
:1054B0008CFBDDE9022382468B4638462146FFF706
:1054C00084FB04460F4652465B4628463146FFF7AA
:1054D0007CFB22463B46FFF772FB07468A464FF0AD
:1054E000FF3228463146FFF77AFD1B4A90450ADA1B
:1054F0003A465346FFF763FB04B00022BDE8F04D87
:10550000134BFFF75FBB154A4245A8BFA8F500152E
:105510004FF00004B8BF124D22462B46FFF74FFB59
:105520000646884622462B4600200949FFF747FBDE
:1055300004460D463A46534630464146FFF73FFB88
:1055400004B022462B46BDE8F04DFFF73BBB000000
:105550000000F03FD00600003333D33F0000E93FA6
:105560000000D23F2DE9F0414F1E00EBC701044679
:10557000D1E9000115461E4637F006020DD02A4635
:105580003346FFF722FB7F1E04EBC703D3E900235A
:10559000FFF774FA37F00602F1D1022F25D0042F5D
:1055A00013D0062F18BFBDE8F0812A463346FFF717
:1055B0000CFBD4E90A23FFF761FA2A463346FFF7CA
:1055C00004FBD4E90823FFF759FA2A463346FFF7CC
:1055D000FCFAD4E90623FFF751FA2A463346FFF7CF
:1055E000F4FAD4E90423FFF749FA2A463346FFF7D1
:1055F000ECFAD4E90223FFF741FA2A463346FFF7D3
:10560000E4FAD4E90023BDE8F041FFF737BA00001F
:105610002DE9FF4D054621F0004084B00C46B0F165
:10562000795F0BDA2846FFF747FD042808BF00F032
:1056300065F8284608B02146BDE8F08D2A460B469D
:105640001046FFF7C2FA06460F462A462346FFF7E2
:10565000BCFA804626488A4632463B4605217844B5
:10566000FFF780FF83461098029160B3214A224BD6
:1056700040465146FFF7A9FACDE900015A46404697
:105680005146029BFFF7A1FA82468846DDE90601F2
:105690004FF0FF32FFF7A3FC52464346FFF78FFA65
:1056A00032463B46FFF791FADDE90623FFF787FA1A
:1056B000DDE90023FFF783FA08B02A462346BDE858
:1056C000F04DFFF77FBA0B465A4630463946FFF792
:1056D0007CFA084A084BFFF7D1F942465346FFF7D8
:1056E00074FA08B02A462346BDE8F04DFFF7C6B964
:1056F0000E060000495555555555C5BF024A0020B4
:105700001107FFF76CBC000001FDFFFF02E008C8B5
:10571000121F08C1002AFAD170477047002001E02B
:1057200001C1121F002AFBD1704700000149086027
:1057300070470000300000202DE9F04116460F466A
:105740000446002503E03946B047641C6D1C2078F0
:105750000028F8D12846BDE8F08100002DE9F84F77
:1057600004460D4621F0004000917449814213DC4B
:105770007349884201DC08D13CB120462946BDE886
:10578000F84F4FF00102FFF72ABC6E48002DCCBF46
:105790006D496E49BDE8F88F6D49814211DD6D4953
:1057A0008142D8BF4FF0FF366DDD20462946FFF716
:1057B00083FC042808BFFFF7A1FF20462946BDE867
:1057C000F88F6549654F25F00045814233DD644916
:1057D000814219DD002632464FF08043204629469B
:1057E000FFF74CF980468A46012220462946FFF7FA
:1057F000F6FB00223B46FFF7E2F942465346FFF72D
:1058000056FA04460D463EE001260022BA463B46C3
:1058100020462946FFF732F980460F4600225346BC
:1058200020462946FFF7CBF942463B46FFF73FFAB1
:1058300004460D4627E04B4981421BDDDFF82881F5
:1058400002260022434620462946FFF7BEF90022E1
:105850003B46FFF713F907468A4600224346204697
:105860002946FFF7ACF93A465346FFF720FA0446BB
:105870000D4608E0032622462B4600203B49FFF751
:1058800016FA04460D4622462B4610461946FFF7E7
:105890009CF98B46824602460B46FFF796F907466F
:1058A0000246334888460B4606217844FFF75AFEE5
:1058B00052465B46FFF789F982462E488B463A46A8
:1058C000434605217844FFF74DFE3A464346FFF72D
:1058D0007CF902460B46002E504659460CDAFFF77B
:1058E000CDF822462B46FFF770F901B022462B4631
:1058F000BDE8F04FFFF766B9FFF7C0F822462B4628
:10590000FFF763F91C4A7A4402EBC603D3E900238C
:10591000FFF755F922462B46FFF751F9174A7A440B
:1059200002EBC603D3E90023FFF74CF9009A002AE3
:10593000B8BF81F00041BDE8F88F000000001044BE
:105940000000F07F182D4454FB21F93FFB21F9BFE3
:105950000000DC3F0000203E0000F33F0000F03F6D
:105960000000E63F008003400000F83F0000F0BF69
:105970009A02000058020000F6010000BE0100007B
:1059800000B5284B21F0004287B09A42DCBF0022CC
:10599000134631DD244B9A420DD168B94FF0010016
:1059A000FFF7C4FE002207B01346104611465DF80B
:1059B00004EBFFF77CB906DB07B04FF001025DF89E
:1059C00004EBFFF70CBB02AAFFF78AFB10F0030100
:1059D00004BF0DF1080C9CE80F000DD00120012937
:1059E0000ED0022914D00DF1080C00909CE80F0095
:1059F000FFF70EFE07B000BDFFF736FD07B000BD94
:105A00000DF1080C00909CE80F00FFF701FE05E087
:105A10000DF1080C9CE80F00FFF726FD07B081F0A0
:105A2000004100BDFB21E93F0000F07F00B5294B9C
:105A300021F0004287B09A4203DC00221346009214
:105A400033E0254B9A420DD168B94FF00100FFF7C2
:105A50006DFE002207B01346104611465DF804EBB8
:105A6000FFF725B906DB07B04FF001025DF804EB44
:105A7000FFF7B5BA02AAFFF733FB10F003014FF0AE
:105A800001000DD0012914D002291AD00DF1080C03
:105A90009CE80F00FFF7E8FC07B081F0004100BD73
:105AA0000DF1080C00909CE80F00FFF7B1FD07B066
:105AB00000BD0DF1080C9CE80F00FFF7D5FC07B006
:105AC00000BD0DF1080C00909CE80F00FFF7A0FD51
:105AD000E2E70000FB21E93F0000F07F000000004A
