:020000040800F2
:10000000C0090020F941000801420008034200082D
:1000100005420008074200080942000800000000ED
:100020000000000000000000000000000B4200087B
:100030000D420008000000000F42000811420008B5
:10004000134200081342000813420008134200083C
:100050001342000813420008F9290008192A000871
:10006000392A0008592A0008792A00081342000892
:10007000134200081342000813420008134200080C
:1000800013420008134200081342000813420008FC
:10009000134200081342000813420008992A00087E
:1000A00013420008134200081342000813420008DC
:1000B000333400084F340008693400081342000844
:1000C00013420008134200081342000813420008BC
:1000D000134200080B280008332800085B2800089A
:1000E000392B00081342000813420008DFF80CD037
:1000F00004F05AFC004800474D060008C0090020E3
:1001000038B5002408E0E2B2162101EB0411C8B2B0
:10011000002103F009FF641C042CF4DDFD48406855
:100120005623FDA203210090162003F075FFF94825
:10013000C0685623FAA204210090162003F06CFF39
:10014000F44840695623F8A205210090162003F0D8
:1001500063FF38BDF8B5142002F0D3F9F448006805
:10016000002832D1F3480078032817D1F2480068FC
:1001700004F022FB0646F14AF14B04F06AFA044609
:1001800004F02DFBEC490860084600684123EDA20D
:1001900005210090142003F03FFF16E0E5480078A9
:1001A000022812D1EA480088401E00B2E8490880BF
:1001B0000846B0F9000004F0C4FA04465623E5A24C
:1001C00005210090142003F027FFF8BDF8B5142096
:1001D00002F097F9D648001F0068002832D1D548B0
:1001E0000078032817D1D448006804F0E5FA0646E1
:1001F000D24AD34B04F08CF9044604F0F0FACE490D
:100200000860084600684123CEA205210090142012
:1002100003F002FF16E0C7480078022812D1CC484C
:100220000088401C00B2CA4908800846B0F90000A6
:1002300004F087FA04465623C6A205210090142034
:1002400003F0EAFEF8BD38B5142002F05AF9B848B8
:100250000838006850B9B7480078401CB5490870A4
:1002600008460078042801DB01200870B1480078B6
:10027000012804D103F071FDFFF742FF5AE0AD48B9
:10028000007802282BD103F068FD002408E0E2B2D8
:10029000162101EB0411C8B2002103F045FE641CD5
:1002A000042CF4DDAEA20321242003F0CCFDA848E9
:1002B000B0F9000004F045FA04465623ABA205212C
:1002C0000090102003F0A8FEABA20621002003F04E
:1002D000BAFDAAA20621782003F0B5FD2AE09548D0
:1002E0000078032826D103F038FD002408E0E2B2AC
:1002F000162101EB0411C8B2002103F015FE641CA5
:10030000042CF4DD9EA20321242003F09CFD8A48E6
:10031000006841239DA205210090102003F07CFE7F
:1003200095A20621002003F08EFD94A206217820DC
:1003300003F089FD38BD10B58548B0F9000004F020
:1003400000FA044673484168204604F065FA06D274
:1003500002209149087000209049086010E07C4814
:10036000B0F9000004F0EDF904466A4841682046FF
:1003700004F05CFA04D801208749087087490860B6
:1003800010BD10B584480078012809D18448B0F91F
:10039000140000F5FA620121880702F089FE0CE0E2
:1003A0007D480078022808D17D48B0F92C0000F57E
:1003B000FA620221480702F07BFE10BD10B57648B4
:1003C000007801280CD15349C86804F0C8F904B278
:1003D000734A21465E48B0F9000003F04AFB10E082
:1003E0006D48007802280CD14A49C86804F0B7F972
:1003F00004B26B4A183221465548B0F9000003F0A8
:1004000038FB10BD2DE9F0470A21042003F0B9F9AB
:10041000044604F09FF9634908600A21052003F0AF
:10042000B0F9044604F096F95E4948600A210620B6
:1004300003F0A7F9044604F08DF95A4988600024B6
:1004400018E0584951F8240004F0B6F90746564A16
:10045000564B04F004F9054604F0C1F9514941F83E
:1004600024000A4652F824102A4A02EBC40003F082
:10047000AAFE641C022CE4DB4A49886804F09CF95B
:1004800006464B4A4B4B04F0EAF8044600224A4B1E
:1004900004F0DFF8804604F0A2F94249886008467B
:1004A00081681C48103003F08EFEBDE8F08710B55F
:1004B0000121424801F09BFC50B3FFF7A3FFFFF777
:1004C0007DFFFFF75EFFFFF736FFFFF719FE4FF0E6
:1004D0007E513B48006803F091FF39490860394973
:1004E0003748006804F0A2F90ED8124800780128B5
:1004F00001D1FFF705FE34480068C0433349C1F815
:10050000B40100202E49086001212C4801F080FC34
:1005100010BD00000005002040414443313A000076
:1005200040414443323A000040414443333A0000E2
:10053000188121420D000020080000209A99999905
:100540009999B93F56414C55455F413A000000002A
:100550000400002056414C55455F563A000000000B
:100560004348414E47455F56000000005441524702
:1005700045545F563A0000002B0000002D0000009B
:100580004348414E47455F410000000054415247F7
:1005900045545F413A0000000C000020AC012142AC
:1005A000180500204805002039622D3E05C0883F0F
:1005B000CC4DCC6194A94C400000F43F00040040B5
:1005C0000000002000004842B40122420000224204
:1005D00010B5002407E004EB4401454A02EBC100DA
:1005E00003F034FA641C022CF5DB10BD10B50123B6
:1005F00043F698221946980702F018FD012343F6A6
:1006000098220221480702F011FD002201218807EB
:1006100002F04EFD00220221480702F049FD10BD04
:1006200010B5042002F038FF052002F035FF062047
:1006300002F032FF002406E02E4901EBC4002E49EF
:1006400003F0BCFD641C032CF6DB10BD08B502F002
:1006500029F901F013FF03F0B3F803F09AFBFFF759
:10066000DFFFFFF7C3FFFFF7B3FF012002230246BE
:1006700042F210710090214802F0C8FAAFF2D11195
:10068000032002F0C9FE10225102022001F0C8FD31
:100690001022D101002001F0C3FD01231A460421DC
:1006A000184602F005F901231A460521184602F002
:1006B000FFF801231A460621184602F0F9F8AFF2B6
:1006C0007941042002F093F9AFF2FF41052002F0D6
:1006D0008EF9AFF27F51062002F089F90020084917
:1006E0000860FFF70DFD02E00A2001F00AFFFBE7BA
:1006F0001805002000050020CDCCCC3D00040040B2
:10070000AC01214231490143314A1160704770B553
:10071000002100230F22C47804B32D4C246804F474
:10072000E064C4F5E064210AC1F10403CA404478DE
:1007300004FA03F18478144021430901254C06781A
:10074000A155047804F01F050124AC4005786D1113
:10075000AD0005F1E025C5F8004109E0047804F09A
:100760001F050124AC401C4D0678761145F8264043
:1007700070BD1A4A0A400243154B1B1F1A6070478E
:1007800039B1134A121D12680243114B1B1D1A6026
:1007900006E00F4A121D126882430D4B1B1D1A60A2
:1007A0007047042808D14FF0E021096941F00401A5
:1007B0004FF0E022116107E04FF0E021096921F0DC
:1007C00004014FF0E0221161704700000000FA05BB
:1007D0000CED00E000E400E080E100E080FFFF1F9E
:1007E000002044490860091D0860091D0860091DB2
:1007F000086041483F4914310860704700213D4975
:100800008279002A3AD00A46126803689A430B4656
:100810001A600A1D126803689A430B1D1A60027958
:1008200011440A6803681A430A60324A083212689F
:1008300003689A432F4B08331A601A1D1268036825
:100840009A432C4B0C331A604279102A0ED11A1F8E
:10085000126803681A43274B08331A601A1D12687E
:1008600003681A43234B0C331A600DE02149427987
:1008700011440A6803681A430A6005E002791144CA
:100880000A6803689A430A60704700210160017199
:100890000C2141710021817170471649103109689E
:1008A0000143144A10321160704701460020114A7A
:1008B000143212680A400AB1012000E0002070479B
:1008C0000C49143108607047014600200022094B92
:1008D0001B6803EA0102074B14331B680B4013B17A
:1008E0000AB1012000E0002070470249143108607D
:1008F0007047000000040140FFFF0F0010B50446E0
:10090000CC48844208D10121042000F02DFB0021B5
:10091000042000F029FB46E0C748844208D10121A9
:10092000082000F021FB0021082000F01DFB3AE028
:10093000C248844208D10121102000F015FB00219B
:10094000102000F011FB2EE0BD48844208D10121A7
:10095000202000F009FB0021202000F005FB22E010
:10096000B848844208D10121402000F0FDFA00215E
:10097000402000F0F9FA16E0B348844208D1012182
:10098000802000F0F1FA0021802000F0EDFA0AE06A
:10099000AE48844207D10121801500F0E5FA00211C
:1009A000A01500F0E1FA10BD10B50121084600F0D5
:1009B000DBFA0021012000F0D7FA10BD2DE9F0414B
:1009C000024600250026002000230024002791F87D
:1009D00003C00CF00F0591F803C00CF0100CBCF133
:1009E000000F03D091F802C04CEA050591F800C051
:1009F000BCF1000F31D0146800202BE04FF0010C47
:100A00000CFA00F3B1F800C00CEA03069E4220D1B4
:100A100083004FF00F0C0CFA03F7BC4305FA03FCFC
:100A20004CEA040491F803C0BCF1280F06D14FF042
:100A3000010C0CFA00FCC2F814C00AE091F803C0E3
:100A4000BCF1480F05D14FF0010C0CFA00FCC2F8C4
:100A500010C0401C0828D1D31460B1F800C0BCF10C
:100A6000FF0F34DD546800202EE000F1080C4FF039
:100A7000010808FA0CF3B1F800C00CEA03069E4224
:100A800021D183004FF00F0C0CFA03F7BC4305FA99
:100A900003FC4CEA040491F803C0BCF1280F05D113
:100AA00000F1080C08FA0CF8C2F8148091F803C0A1
:100AB000BCF1480F07D100F1080C4FF0010808FA0B
:100AC0000CF8C2F81080401C0828CED35460BDE852
:100AD000F0814FF6FF710180022181700421C17005
:100AE00070470246002093680B400BB1012000E0E4
:100AF000002070470146886880B270470246002097
:100B0000D3680B400BB1012000E000207047014684
:100B1000C86880B2704701617047416170470AB18F
:100B2000016100E041617047C16070474FF480325D
:100B30000A438261816182618269826970470246EB
:100B40000020434B18684FF68073184040EA0210AB
:100B500008433F4B186070473E49C8617047F0B585
:100B60000A46002300240021002500F00046B6F1CB
:100B7000004F02D1364EF16901E0354E7168C0F385
:100B8000034583B200F44016B6F5401F08D121F0AA
:100B900070612F4E766826F070662D4F7E6012E0F1
:100BA00000F48016B6F5801F06D1032606FA05F478
:100BB000A14341F0706106E0460D360103FA06F6E6
:100BC000B14341F0706122B1460D360103FA06F6D9
:100BD000314300F00046B6F1004F02D11C4EF161E6
:100BE00001E01B4E7160F0BD30B500228B071C0F79
:100BF0000F2303FA04F2164B08338C1053F82430F9
:100C00009343134C08348D1044F8253023468C1040
:100C100053F824308C07240F00FA04F423430C4CBF
:100C200008348D1044F8253030BD0A49DC310860A5
:100C30007047000000080140000C01400010014016
:100C40000014014000180140001C01400020014038
:100C50000000014000002042DF48006840F0010031
:100C6000DD49086008464068DC490840DA494860C8
:100C700008460068DA490840D74908600846006815
:100C800020F4802008600846406820F4FE00486098
:100C90004FF41F0088607047CF49096821F4803104
:100CA000CD4A11601146096821F480211160B0F528
:100CB000803F03D0B0F5802F0ED106E0C649096809
:100CC00041F48031C44A116007E0C349096841F426
:100CD000A021C14A116000E000BF00BF704710B5FD
:100CE00001460022002300204A11012A02D1BA4CF9
:100CF000236806E0022A02D1B74C236A01E0B64C11
:100D0000636A01F01F02012494401C400CB10120D1
:100D100000E0002010BD38B5002000900024002520
:100D200000BF3120FFF7DBFF05460098401C009014
:100D30000098B0F5A06F01D0002DF2D03120FFF760
:100D4000CEFF08B1012400E00024204638BD014652
:100D50000020A14A106820F0F80040EAC1001060AD
:100D60007047A04908607047024600209A4B5868B7
:100D700020F47C1042EA01031843974B58607047F7
:100D800098490866704701460020934A506820F051
:100D900003000843506070478F48406800F00C0023
:100DA0007047014600208C4A506820F0F00008434C
:100DB0005060704701460020874A506820F4E06088
:100DC00008435060704701460020834A506820F471
:100DD000605040EAC1005060704729B17E4A527AA3
:100DE00002437D4B5A7204E07B4A527A82437A4B2B
:100DF0005A7270477B49D83108607047014600201D
:100E0000754A506820F44040084350607047002104
:100E1000714A20321170704A82F82010012802D0E5
:100E200004280AD104E001216B4A2032117005E048
:100E30000521694A2032117000E000BF00BF7047F1
:100E40006949086070476449096A0143624A11624E
:100E50007047654944390860704730B50021002269
:100E6000002400235C4D6D6805F00C0121B10429BC
:100E700005D0082923D105E05C4D056022E05B4DDB
:100E800005601FE0544D6D6805F47012524D6D6899
:100E900005F48034022505EB92421CB9544D5543AC
:100EA00005600BE04C4D6D6805F400351DB1504DEB
:100EB0005543056002E04D4D5543056002E04B4D42
:100EC000056000BF00BF444D6D6805F0F0010909E1
:100ED000484D6B5C0568DD4045603F4D6D6805F42D
:100EE000E061090A434D6B5C4568DD4085603A4D21
:100EF0006D6805F46051C90A3E4D6B5C4568DD4084
:100F0000C560354D6D6805F44041890B3A4D6B5C09
:100F1000C568B5FBF3F5056130BD29B12E4A5269AC
:100F200002432D4B5A6104E02B4A526982432A4BFB
:100F30005A61704729B1284A92690243264B9A6147
:100F400004E0254A92698243234B9A61704729B194
:100F5000214AD2690243204BDA6104E01E4AD26979
:100F600082431D4BDA61704729B11B4AD2680243A4
:100F7000194BDA6004E0184AD2688243164BDA60F3
:100F8000704729B1144A12690243134B1A6104E0F5
:100F9000114A12698243104B1A6170471249403955
:100FA000086070470F49C86470470B49C8717047A3
:100FB0000948406A40F0807007494862704701461E
:100FC0000020054A92680A400AB1012000E0002092
:100FD0007047014988727047001002400000FFF816
:100FE000FFFFF6FE000042428004424200127A00F7
:100FF00000093D000E0000201E00002010B5044630
:10100000FE48844208D10121C014FFF7ADFF002142
:10101000E014FFF7A9FFC4E0B4F1804F08D101212B
:101020000846FFF7AEFF00210120FFF7AAFFB8E056
:10103000F348844208D101210220FFF7A2FF0021DA
:101040000220FFF79EFFACE0EE48844208D1012168
:101050000420FFF796FF00210420FFF792FFA0E095
:10106000E948844208D101210820FFF78AFF0021C6
:101070000820FFF786FF94E0E448844208D101216C
:101080001020FFF77EFF00211020FFF77AFF88E095
:10109000DF48844208D101212020FFF772FF0021A0
:1010A0002020FFF76EFF7CE0DA48844208D101215E
:1010B0004014FFF759FF00216014FFF755FF70E05F
:1010C000D548844209D10121C804FFF74DFF002112
:1010D0004FF40020FFF748FF63E0D048844209D175
:1010E00001210805FFF740FF00214FF48010FFF7B2
:1010F0003BFF56E0CA48844209D101214805FFF769
:1011000033FF00214FF40010FFF72EFF49E0C548E0
:10111000844208D101214020FFF733FF0021402005
:10112000FFF72FFF3DE0C048844208D10121802015
:10113000FFF727FF00218020FFF723FF31E0BB48A6
:10114000844208D101218015FFF71BFF0021A01563
:10115000FFF717FF25E0B648844209D101210804B2
:10116000FFF702FF00214FF48030FFF7FDFE18E08B
:10117000B048844209D101214804FFF7F5FE00215F
:101180004FF40030FFF7F0FE0BE0AB48844208D18B
:1011900001218804FFF7E8FE00214FF48020FFF7CB
:1011A000E3FE10BD00220288944B98420ED0994B6A
:1011B00098420BD0B0F1804F08D0914B984205D0A7
:1011C000904B984202D0904B984204D14FF68F73C7
:1011D0001A404B881A438D4B984207D08C4B98424B
:1011E00004D04FF6FF431A40CB881A4302808B8805
:1011F00083850B880385814B98420BD0854B9842A1
:1012000008D08B4B984205D08A4B984202D08A4B2B
:10121000984201D10B7A038601238382704770B50F
:10122000002400220023058C4FF6FE76354005840D
:10123000028C8388048B4FF68F752C40B51E2C4092
:101240000D882C43751E2A400D892A434D882A4358
:101250006A4DA8420BD06F4DA84208D0744DA842E9
:1012600005D0744DA84202D0734DA84213D14FF659
:10127000F7752A404D892A434FF6FB752A408D8821
:101280002A434FF6FF652B404FF6FF552B408D89C3
:101290002B43CD892B4383800483CD8885860284AC
:1012A00070BD70B5002400220023058C4FF6EF7648
:1012B00035400584028C8388048B48F6FF752C40EA
:1012C0004FF6FF452C400D884FF6FF7606EA0525C0
:1012D0002C434FF6DF752A400D8906EA05152A438F
:1012E0004D8806EA05152A43444DA84202D0494DCF
:1012F000A8421DD14FF67F752A404D894FF6FF76E3
:1013000006EA05152A434FF6BF752A408D8806EA7E
:1013100005152A434FF6FF352B404FF2FF752B4042
:101320008D8906EA85052B43CD8906EA85052B4381
:1013300083800483CD880587028470BD70B5002446
:1013400000220023058C4FF6FF6635400584028C91
:101350008388848B4FF68F752C404FF6FC752C409C
:101360000D882C434FF6FF552A400D894FF6FF7626
:1013700006EA05252A434D8806EA05252A431F4D1E
:10138000A84202D0234DA8421DD14FF2FF752A403A
:101390004D894FF6FF7606EA05252A434FF6FF35BD
:1013A0002A408D8806EA05252A434EF6FF752B4014
:1013B0004DF6FF752B408D8906EA05152B43CD8927
:1013C00006EA05152B4383808483CD8885870284B4
:1013D00070BD70B5002200230024058C4EF6FF7608
:1013E00035400584038C8488828B48F6FF752A403B
:1013F0004FF6FF452A400D8820E00000002C0140F8
:101400000004004000080040000C004000100040B4
:101410000014004000340140004C014000500140E5
:101420000054014000180040001C00400020004013
:101430000040014000440140004801404FF6FF7663
:1014400006EA05252A434DF6FF752B400D8906EA6D
:1014500005352B434D8806EA05352B43FA4DA84246
:1014600002D0FA4DA84208D14BF6FF752C408D8969
:101470004FF6FF7606EA85152C4384808283CD885B
:10148000A0F84050038470BD828B4FF2FF331A40A6
:101490008283828B4FF6FF7303EA01231A43828310
:1014A0007047F0B50C461546002200210026078C37
:1014B0004EF6FF7C07EA0C070784828B018C4FF6FF
:1014C000FF7707EA043640F6FF473A404FF6FF77CA
:1014D00007EA05273A434FF6FF7707EA03373A430F
:1014E000D94FB8420ED0D94FB8420BD0B0F1804F8F
:1014F00008D0D74FB84205D0D64FB84202D0D64F09
:10150000B84206D14DF6FF77394046F4805739434B
:1015100005E047F6FF57394044F48057394382834A
:101520000184F0BD828B4FF6F3731A408283828B65
:101530000A4382837047F0B50C461546002200210D
:101540000026078C4FF6FF6C07EA0C070784828B96
:10155000018C4FF6FF7707EA04264FF60C773A40E6
:101560004FF6FF7707EA03172F433A43B64FB842C7
:101570000ED0B64FB8420BD0B0F1804F08D0B44F68
:10158000B84205D0B34FB84202D0B34FB84206D1EB
:101590004FF6FF57394046F48077394305E04FF264
:1015A000FF57394044F48077394382830184F0BD8A
:1015B000028B4FF2FF331A400283028B4FF6FF7308
:1015C00003EA01231A4302837047F0B50C4615461F
:1015D000002200210026078C4FF6EF7C07EA0C075B
:1015E0000784028B018C4FF6FF7707EA041640F65A
:1015F000FF473A404FF6FF7707EA03373A434FF683
:10160000FF7707EA05273A438F4FB8420ED08F4F36
:10161000B8420BD0B0F1804F08D08D4FB84205D002
:101620008C4FB84202D08C4FB84206D14FF6DF77CC
:10163000394046F01007394305E04FF65F773940EF
:1016400044F01007394302830184F0BD028B4FF64A
:10165000F3731A400283028B0A4302837047F0B58A
:101660000C46154600220021068C4FF6FE773E40C0
:101670000684028B018C4FF60C7632407E1C06EA03
:1016800003162E433243704EB0420ED06F4EB0421E
:101690000BD0B0F1804F08D06D4EB04205D06D4EEA
:1016A000B04202D06C4EB04206D14FF6FD763140CA
:1016B00044F00106314305E04FF6F576314044F041
:1016C0000106314302830184F0BD70B505460C4626
:1016D0005D4885420ED05D4885420BD0B5F1804F04
:1016E00008D05B48854205D05A48854202D05A4806
:1016F000854200D100E000BF208850B92389A2882C
:1017000061882846FFF7ABFFE1882846FFF79EFF78
:1017100025E0208804280AD12389A28861882846E8
:10172000FFF753FFE1882846FFF742FF17E02088C4
:1017300008280AD12389A28861882846FFF7FBFE82
:10174000E1882846FFF7EEFE09E02389A288618838
:101750002846FFF7A6FEE1882846FFF795FE70BDF4
:101760002DE9F04105460C4600260127608808B99E
:10177000022600E00026A088012801D1022700E00F
:1017800001272088A0B92389A28861882846FFF70D
:1017900066FFE1882846FFF759FF23893A4631461C
:1017A0002846FFF712FFE1882846FFF701FF13E004
:1017B0002389A28861882846FFF707FFE188284629
:1017C000FFF7F6FE23893A4631462846FFF747FFE2
:1017D000E1882846FFF73AFFBDE8F0810A884B8888
:1017E0001A438B881A43CB881A430B891A434B89B7
:1017F0001A438B891A43A0F8442070474FF6FF71B3
:10180000818000210180C1804180017270470021E8
:10181000018041808180C180018141818181C181BC
:101820007047002101804180012181800021C18019
:10183000018170470021018041808180C180018148
:101840004181818170470000002C0140003401403B
:101850000004004000080040000C004021B1028854
:1018600042F00102028004E002884FF6FE731A4043
:101870000280704731B1B0F8442042F40042A0F831
:10188000442005E0B0F84420C2F30E02A0F8442042
:1018900070471AB183890B43838102E083898B43AC
:1018A000838170478182704741EA0203A0F8483083
:1018B00070471AB183890B43838102E083898B438C
:1018C0008381704701894FF6F8721140018170479A
:1018D0000A46002101894FF68F7319401143018197
:1018E000704730B504460D4629462046FFF7F0FF05
:1018F000208940F00700208130BD2DE9F0410446E9
:101900000D4616461F46602D06D13B460122314644
:101910002046FFF75AFE05E03B46012231462046AD
:10192000FFF79DFE29462046FFF7D2FF208940F0B1
:1019300007002081BDE8F08130B50C460021018907
:10194000C9B24FF6FF7505EA032515432543294320
:10195000018130BD2DE9F04105460E4617469846F7
:10196000002443463A4631462846FFF7E5FF2C89D6
:101970004FF6F870044044F007044FF68F700440AF
:1019800044F070042C81BDE8F081F0B504460D46AA
:1019900016461F463B46324629462046FFF7CCFFF7
:1019A000208940F480402081F0BD0185828270470B
:1019B0000A46002101884FF68F73194011430180B8
:1019C0007047F0B50C4615461E4600210022002344
:1019D0000189028B038C4FF6F877394021434FF68B
:1019E000FC473A4040F201173A434FF6DD773B405F
:1019F0004FF6FF7707EA06172F433B430181028327
:101A00000384F0BD0A460021018B4FF68F73194005
:101A10001143018370470A460021018B48F6FF738A
:101A200019404FF6FF7303EA0223194301837047FD
:101A30000A460021818B4FF68F7319401143818331
:101A400070470A460021818B48F6FF7319404FF614
:101A5000FF7303EA022319438183704721B102888F
:101A600042F08002028004E002884FF67F731A4041
:101A70000280704721B1828842F00402828004E033
:101A800082884FF6FB731A408280704721B18288AA
:101A900042F00802828004E082884FF6F7731A4011
:101AA0008280704721B1828842F00102828004E086
:101AB00082884FF6FE731A40828070470A460021E2
:101AC000018B4FF6F77319401143018370470A46A3
:101AD0000021018B4FF2FF7319404FF6FF7303EAA9
:101AE00002231943018370470A460021818B4FF678
:101AF000F77319401143818370470A460021818B97
:101B00004FF2FF7319404FF6FF7303EA02231943A4
:101B1000818370470A460021018B4FF6FB73194001
:101B20001143018370470A460021018B4FF6FF33B2
:101B300019404FF6FF7303EA0223194301837047EC
:101B40000A460021818B4FF6FB73194011438183B4
:101B500070470A460021818B4FF6FF3319404FF63C
:101B6000FF7303EA02231943818370470A46002169
:101B7000018B4FF67F7319401143018370470A466A
:101B80000021018BC1F30E014FF6FF7303EA02231C
:101B90001943018370470A460021818B4FF67F73FA
:101BA00019401143818370470A460021818BC1F39C
:101BB0000E014FF6FF7303EA022319438183704736
:101BC0000A460021018C4FF6FD7319401143018430
:101BD00070470A460021018C4FF6F77319401143F4
:101BE000018470470A460021018C4FF6DF731940CB
:101BF0004FF6FF7303EA02131943018470470A4644
:101C00000021018C4FF67F7319404FF6FF7303EAF2
:101C100002131943018470470A460021018C4FF6D4
:101C2000FF5319404FF6FF7303EA0223194301845F
:101C300070470A460021018C4FF2FF7319404FF69E
:101C4000FF7303EA02231943018470470A46002107
:101C5000018C4DF6FF7319404FF6FF7303EA023310
:101C600019430184704730B5002301248C40A3B28E
:101C7000048C9C430484048C02FA01F5ADB22C431D
:101C8000048430BD30B5002304248C40A3B2048CFE
:101C90009C430484048C02FA01F5ADB22C43048405
:101CA00030BD70B5034600200024184618300125C9
:101CB0008D40ACB21D8CA5431D8409B1082909D102
:101CC00000EB6100056825F07005056005681543A7
:101CD00005600EE00D1FC5F34E052844056825F488
:101CE000E045056005684FF6FF7606EA02263543B3
:101CF000056070BD21B1028842F00202028004E05A
:101D000002884FF6FD731A400280704721B10288A5
:101D100042F00402028004E002884FF6FB731A408E
:101D20000280704721B1828842F08002828004E004
:101D300082884FF67F731A408280704702884FF680
:101D4000F7731A40028002880A4302807047828833
:101D50004FF68F731A40828082880A4382807047D0
:101D600002894FF6F8731A40028102890A43028100
:101D7000704702894FF67F731A40028102890A4335
:101D800002817047818470478185704781867047E2
:101D90000187704781877047A0F84010704702881C
:101DA0004FF6FF431A40028002880A4302807047C0
:101DB0000146888E70470146088F70470146888F1C
:101DC00070470146B1F8400070470146888C704763
:101DD0000146088D704702460020138A0B400BB164
:101DE000012000E000207047CA430282704730B5EE
:101DF0000246002000230024158A05EA0103958984
:101E000005EA010413B10CB1012000E0002030BD4F
:101E1000CA4302827047000010B50446FB48844262
:101E200009D101218803FFF79FF800214FF480407A
:101E3000FFF79AF832E0F648844209D101214804BC
:101E4000FFF79FF800214FF40030FFF79AF825E0E4
:101E5000F048844209D101218804FFF792F800215B
:101E60004FF48020FFF78DF818E0EB48844209D149
:101E70000121C804FFF785F800214FF40020FFF787
:101E800080F80BE0E548844208D101210805FFF7FE
:101E900078F800214FF48010FFF773F810BD2DE99A
:101EA000F04786B005460E460024A24600BFA14674
:101EB0000027B08900B100BF2F462C8A4CF6FF7076
:101EC0000440F08804432C82AC894EF6F3100440A1
:101ED000B08831890843718908430443AC81AC8AD6
:101EE0004FF6FF400440B0890443AC8201A8FEF7DE
:101EF000B4FFC648874202D1DDF810A001E0DDF84A
:101F00000CA0A88900F4004040B10AEBCA0000EB25
:101F10000A1031684900B0FBF1F807E00AEBCA008B
:101F200000EB0A1031688900B0FBF1F86420B8FBBF
:101F3000F0F004012009642101FB1089A88900F454
:101F4000004040B1322000EBC900B0FBF1F000F0DE
:101F50000700044308E0322000EB09106421B0FBC5
:101F6000F1F000F00F0004432C8106B0BDE8F087CB
:101F70004FF41651016000218180C18001810C2144
:101F8000418100218181704710B502460020108AEE
:101F90004FF2FF0318400B884C8823438C8823435F
:101FA000CC8823431843108210BD0021018041805A
:101FB0008180C180704721B1828942F400528281C0
:101FC00004E082894DF6FF731A4082817047F0B5B4
:101FD0000346002400260025002040F66A17B94277
:101FE00000D100BF1846C1F3421401F01F060127BB
:101FF00007FA06F5012C01D10C3004E0022C01D1C6
:10200000103000E014301AB107682F43076002E077
:102010000768AF430760F0BD1AB1838A0B43838220
:1020200002E0838A8B4383827047028A4FF6F07303
:102030001A400282028A0A430282704782894FF262
:10204000FF731A40828182890A438281704721B1DD
:10205000828942F00202828104E082894FF6FD7398
:102060001A4082817047028A4FF6DF731A4002825B
:10207000028A0A430282704721B1028A42F48042F6
:10208000028204E0028A4BF6FF731A400282704714
:10209000C1F308028280704701468888C0F30800B7
:1020A0007047818941F0010181817047028BD2B272
:1020B0000283028B42EA012202837047028B02F400
:1020C0007F420283028B0A430283704721B1828AD6
:1020D00042F02002828204E0828A4FF6DF731A40C7
:1020E0008282704721B1828A42F01002828204E02B
:1020F000828A4FF6EF731A408282704721B1828A3A
:1021000042F00802828204E0828A4FF6F7731A4096
:102110008282704721B1828942F40042828103E0C9
:102120008289C2F30E028281704721B1828A42F411
:102130000062828204E0828A4FF2FF731A40828238
:102140007047828A4FF6FB731A408282828A0A4362
:102150008282704721B1828A42F00202828204E0C8
:10216000828A4FF6FD731A40828270470246002031
:10217000B1F5007F00D100BF13880B400BB10120E7
:1021800000E00020704701F40072B2F5007F00D13A
:1021900000BFCA430280704770B502460024002386
:1021A0000025002040F66A16B14200D100BFC1F3FD
:1021B000421501F01F03012606FA03F3012D02D197
:1021C0009689334006E0022D02D1168A334001E0A1
:1021D000968A33400C12012606FA04F4168834401D
:1021E00013B10CB1012000E0002070BD10B5002239
:1021F000002340F66A14A14200D100BF0A12012454
:102200009440A3B2DC43048010BD000000380140BC
:102210000044004000480040004C00400050004096
:10222000F8B506460C461546052E59D2DFE806F0ED
:1022300003142536470001210420FEF77BFEA0B2DF
:10224000ADF800008DF8035003208DF802006946B8
:102250005D48FEF7B3FB45E001210820FEF76AFE6A
:10226000A0B2ADF800008DF8035003208DF80200F5
:1022700069465648FEF7A2FB34E001211020FEF724
:1022800059FEA0B2ADF800008DF8035003208DF880
:10229000020069464E48FEF791FB23E00121202011
:1022A000FEF748FEA0B2ADF800008DF80350032001
:1022B0008DF8020069464748FEF780FB12E00121D5
:1022C0004020FEF737FEA0B2ADF800008DF80350B5
:1022D00003208DF8020069463F48FEF76FFB01E0DE
:1022E0000020F8BD00BF0120FBE705282FD2DFE862
:1022F00000F0030C151C25001AB1334B1033196084
:1023000002E0314B1433196022E01AB12F4B103325
:10231000196002E02D4B1433196019E012B12C4BF7
:10232000196101E02A4B596112E01AB1294B1033AF
:10233000196002E0274B1433196009E01AB1264BEB
:102340001033196002E0244B1433196000E000BF21
:1023500000BF704702460020052A31D2DFE802F0B4
:10236000030C151E2700184B08331B680B400BB1DC
:10237000012000E0002024E0134B08331B680B40D1
:102380000BB1012000E000201BE00F4B08331B685D
:102390000B400BB1012000E0002012E00D4B083390
:1023A0001B680B400BB1012000E0002009E00A4B44
:1023B00008331B680B400BB1012000E0002000E057
:1023C00000BF00BF7047000000080140000C014042
:1023D00000100140001401400018014010B50446EF
:1023E0004FF0E020006940F004004FF0E021086168
:1023F0006FF00400FEF7D5F9544800685449B0FB6B
:10240000F1F0544908700846007800EB4001C1EB38
:10241000C0104FF6FF7101EAC0004F4908804D48D7
:10242000007860434FF0E021486110BD012808D1D9
:102430004FF0E021096941F002014FF0E022116103
:1024400007E04FF0E021096921F002014FF0E0229E
:1024500011617047012808D14FF0E021096941F06E
:1024600001014FF0E022116107E04FF0E02109691E
:1024700021F001014FF0E0221161704710B56FF0BB
:102480000400FEF78EF9314800683149B0FBF1F0E5
:10249000304908700846007800EB4001C1EBC010DD
:1024A0004FF6FF7101EAC0002B4908800120FFF7B9
:1024B000D1FF0020FFF7BAFF10BD0146254A127870
:1024C0004A434FF0E0235A6100229A611A4612698A
:1024D00042F001021A6100BF4FF0E022106900F0E3
:1024E00001021AB100F48032002AF5D04FF0E02248
:1024F000126922F001024FF0E0231A6100229A6172
:10250000704710B50146144B1B884FF0E0246361FF
:1025100023461B6943F00103236100220FE00023DF
:102520004FF0E024A36100BF4FF0E023186900F0F2
:1025300001031BB100F48033002BF5D0521C8A42FA
:10254000EDD310BD4FF0E02080697047E804002013
:1025500000127A00220000202400002070B50446FA
:102560000D46E1B2C748FFF793FD00BF4021C548C3
:10257000FFF7FCFD0028F9D0204670BD00BFC14820
:10258000008800F020000028F9D0BE48001D008817
:10259000C0F3080070472DE9F04186B080460C4634
:1025A00015461E460C9FB8F1010F06D0B8F1020F78
:1025B0004ED0B8F1030F7CD194E0012144F2040025
:1025C000FEF7B8FCAF48FFF727FC4FF40070ADF8FA
:1025D000140003208DF8160018208DF8170005A9A7
:1025E000A948FEF7EBF94FF48060ADF81400042021
:1025F0008DF8170005A9A448FEF7E0F925208DF80D
:102600000000E8B28DF80100F0B28DF802008DF8FC
:1026100003706846FEF77BF801940020ADF80800CF
:10262000ADF80A00ADF80C00ADF810000C20ADF8C4
:102630000E0001A99348FFF732FC3A4640F22551BB
:102640009048FFF7C4FC01218E48FFF7B4FC00BF9F
:1026500001218E48FEF76EFC8D48FFF7DDFB04205C
:10266000ADF8140003208DF8160018208DF817001F
:1026700005A98548FEF7A2F90820ADF8140004204A
:102680008DF8170005A98048FEF798F926208DF8E7
:102690000000E8B28DF80100F0B28DF802008DF86C
:1026A00003706846FEF733F801940020ADF8080087
:1026B00000E061E0ADF80A00ADF80C00ADF81000E4
:1026C0000C20ADF80E0001A97148FFF7E8FB3A466F
:1026D00040F225516E48FFF77AFC01216C48FFF764
:1026E0006AFC4DE001216B48FEF724FC6A48FFF7C5
:1026F00093FB4FF48060ADF8140003208DF81600B2
:1027000018208DF8170005A96448FEF757F94FF413
:102710000060ADF8140004208DF8170005A95F488B
:10272000FEF74CF927208DF80000E8B28DF8010083
:10273000F0B28DF802008DF803706846FDF7E7FFF0
:1027400001940020ADF80800ADF80A00ADF80C00C7
:10275000ADF810000C20ADF80E0001A94E48FFF7AF
:102760009EFB3A4640F225514648FFF730FC0121D6
:102770004948FFF720FC03E0002006B0BDE8F081E7
:1027800000BF0120F9E70246012A04D0022A09D03D
:10279000032A15D10DE03B48001D0088C0F3080056
:1027A00008800FE03A48001D0088C0F30800088048
:1027B00008E03948001D0088C0F30800088001E0E7
:1027C0000020704700BF0120FBE7012804D0022849
:1027D00008D0032812D10BE0C1F30802294B1B1DBE
:1027E0001A800BE0C1F30802294B1B1D1A8005E07B
:1027F000C1F30802284B1B1D1A8000BF00BF7047A1
:1028000011B1274A42F82010704708B540F225510F
:102810001C48FFF7C1FC58B169460120FFF7B3FF20
:102820001F48406820B11E484168BDF80000884735
:1028300008BD08B540F225511548FFF7ADFC58B169
:1028400069460220FFF79FFF1548806820B11448B1
:102850008168BDF80000884708BD08B540F22551E1
:102860000D48FFF799FC58B169460320FFF78BFF2D
:102870000B48C06820B10A48C168BDF8000088470D
:1028800008BD0000003801400008014004000200BB
:10289000004400400800040000480040000C0140D3
:1028A0005405002010B54FF4A060FDF72BFF10BDBC
:1028B0002DE9FE4306460D4617469846012000FACC
:1028C00005F148223046FFF7ABFC01210846FEF730
:1028D00031FBE9B2F0B2FEF787F90120A840019080
:1028E00000208DF808000C208DF8090001208DF8DB
:1028F0000A0001A8FDF782FF102D29D2DFE805F0BC
:10290000080A0C0E10121416181A1C1E2022242657
:1029100006241EE007241CE008241AE0092418E01D
:102920000A2416E0172414E0172412E0172410E0FC
:1029300017240EE017240CE028240AE0282408E0DD
:10294000282406E0282404E0282402E0282400E0CB
:1029500000BF00BFE0B28DF80000F8B28DF80100B2
:1029600008F0FF008DF8020001208DF80300684692
:10297000FDF7CDFEBDE8FE83F8B507460D461646C9
:10298000102D29D2DFE805F0080A0C0E10121416DB
:10299000181A1C1E2022242606241EE007241CE0F0
:1029A00008241AE0092418E00A2416E0172414E089
:1029B000172412E0172410E017240EE017240CE06F
:1029C00028240AE0282408E0282406E0282404E03B
:1029D000282402E0282400E000BF00BFE0B28DF808
:1029E00000008DF803606846FDF791FEF8BD11B157
:1029F000854A42F82010704710B50120FDF764FFAA
:102A0000012808D18048006810B17F4908688047D4
:102A10000120FDF76AFF10BD10B50220FDF754FF3D
:102A2000012808D17848406810B177494868804744
:102A30000220FDF75AFF10BD10B50420FDF744FF3A
:102A4000012808D17048806810B16F4988688047B4
:102A50000420FDF74AFF10BD10B50820FDF734FF34
:102A6000012808D16848C06810B16749C868804724
:102A70000820FDF73AFF10BD10B51020FDF724FF28
:102A8000012808D16048006910B15F490869804792
:102A90001020FDF72AFF10BD10B52020FDF714FF10
:102AA000012809D15848406910B157494869804701
:102AB0002020FDF71AFF3EE04020FDF705FF01282A
:102AC00009D15148806910B14F4988698047402039
:102AD000FDF70BFF2FE08020FDF7F6FE012809D15E
:102AE0004948C06910B14849C86980478020FDF74E
:102AF000FCFE20E04FF48070FDF7E6FE01280AD1CD
:102B00004148006A10B14049086A80474FF480701C
:102B1000FDF7EBFE0FE04FF40070FDF7D5FE012846
:102B200009D13948406A10B13749486A80474FF4A3
:102B30000070FDF7DAFE10BD10B54FF48060FDF7B0
:102B4000C3FE01280AD13048806A10B12E49886A34
:102B500080474FF48060FDF7C8FE53E04FF40060FB
:102B6000FDF7B2FE01280AD12748C06A10B12649F4
:102B7000C86A80474FF40060FDF7B7FE42E04FF4AB
:102B80008050FDF7A1FE01280AD11F48006B10B14B
:102B90001D49086B80474FF48050FDF7A6FE31E0D9
:102BA0004FF40050FDF790FE01280AD11648406B03
:102BB00010B11549486B80474FF40050FDF795FE62
:102BC00020E04FF48040FDF77FFE01280AD10E4837
:102BD000806B10B10C49886B80474FF48040FDF743
:102BE00084FE0FE04FF40040FDF76EFE012809D18E
:102BF0000548C06B10B10449C86B80474FF40040D2
:102C0000FDF773FE10BD0000640500202DE9FF4FA5
:102C100085B005468A469B46129F0AEBCA004FEADA
:102C2000C00944F62060B9FBF0F084B2012C03DC4B
:102C300000241FFA89F814E0012C0ADD42F210701A
:102C4000844206DC601E84B2B9FBF4F01FFA80F8FF
:102C500007E042F21070844203DD002009B0BDE8B5
:102C6000F08FB5F1804F05D11C2601210846FEF7F3
:102C70006EF910E0FE48854205D11D260121022093
:102C8000FEF765F907E0FB48854204D11E260121C5
:102C90000420FEF75CF9ADF80C80ADF80840002088
:102CA000ADF80E00ADF80A0002A92846FEF77AFA40
:102CB0003A4628460799FEF7ECFDF0B28DF804007D
:102CC00000208DF805000BF0FF008DF806008DF850
:102CD000077001A8FDF71BFD39462846FEF7BEFD2B
:102CE0000120BBE72DE9FF4F85B005468A469B468C
:102CF000129FE1480AFB00F947F23050B9FBF0F0AF
:102D000084B2012C03DC00241FFA89F817E0012C9F
:102D10000ADD49F64040844206DC601E84B2B9FBFD
:102D2000F4F01FFA80F80AE044F62060844206DDE1
:102D3000D2A001F087FE002009B0BDE8F08FB5F108
:102D4000804F05D11C2601210846FEF700F910E04E
:102D5000C748854205D11D2601210220FEF7F7F85C
:102D600007E0C448854204D11E2601210420FEF755
:102D7000EEF8ADF80C80ADF808400020ADF80E007C
:102D8000ADF80A0002A92846FEF70CFA3A46284692
:102D90000799FEF77EFDF0B28DF8040000208DF853
:102DA00005000BF0FF008DF806008DF8077001A8F4
:102DB000FDF7ADFC3A4628460799FEF76AFD39460D
:102DC0002846FEF74BFD0120B6E72DE9F8430446FF
:102DD000884617461E46324641462046FEF759FDB4
:102DE000B4F1804F01D11C2508E0A148844201D1F3
:102DF0001D2503E09F48844200D11E25E8B28DF8CE
:102E0000000000208DF80100F8B28DF802008DF866
:102E100003606846FDF77BFCBDE8F8837FB5054697
:102E20000C466020ADF800000120ADF80200002043
:102E3000ADF80800012C06D0022C0DD0032C14D0C4
:102E4000042C24D11AE069462846FEF7E8F9082147
:102E50002846FEF733FE1BE069462846FEF721FAB6
:102E600008212846FEF733FE12E069462846FEF7A1
:102E700065FA08212846FEF737FE09E0694628462C
:102E8000FEF7A7FA08212846FEF737FE00E000BF4C
:102E900000BF7FBD2DE9FE4305460E469146B04674
:102EA00044F62060B8FBF0F084B2012C05DC00246D
:102EB000A8F10100804687B216E0012C0ADD42F23B
:102EC0001070844206DCB8FBF4F0401E87B2601E2E
:102ED00084B209E042F21070844205DD6CA001F07A
:102EE000B1FD0020BDE8FE83B5F1804F04D1012182
:102EF0000846FEF72CF80EE05D48854204D101211A
:102F00000220FEF724F806E05A48854203D1012149
:102F10000420FEF71CF8ADF80470ADF80040002066
:102F2000ADF80600ADF8020069462846FEF73AF90A
:102F300049462846FEF792FC0120D3E770B50546C6
:102F40000C46B5F1804F22D1012C06D0022C0AD0BC
:102F5000032C0ED0042C18D111E0182201210020DE
:102F6000FFF75EF912E0182202210020FFF758F95E
:102F70000CE0182204210020FFF752F906E0182285
:102F800008210020FFF74CF900E000BF4DE0384871
:102F9000854222D1012C06D0022C0AD0032C0ED05F
:102FA000042C18D111E0182240210020FFF738F935
:102FB00012E0182280210020FFF732F90CE01822DD
:102FC00001210846FFF72CF906E018220221012012
:102FD000FFF726F900E000BF27E02648854224D10C
:102FE000012C06D0022C0AD0032C0ED0042C1AD1AE
:102FF00012E0182240210120FFF712F914E01822F4
:1030000080210120FFF70CF90EE018224FF48071A7
:103010000120FFF705F907E018224FF400710120A5
:10302000FFF7FEF800E000BF00BF70BD2DE9F047DC
:103030000746884614461D461A48B0FBF4F6B0FB16
:10304000F4F104FB1109B9EB540F00D3761C41468F
:103050003846FFF773FF2A4631463846FFF71AFF16
:1030600041463846FFF7DAFE294638461CE00000A4
:1030700000040040000800404019010054696D5FE1
:103080006D7320697320746F6F206D756368000025
:1030900054696D5F757320697320746F6F206D754F
:1030A0006368000000A24A04FEF7D8FBBDE8F08781
:1030B0002DE9F04105460E46144642F21070844256
:1030C00002D90020BDE8F081AF8D781C604342F248
:1030D0001071B0FBF1F4012E06D0022E09D0032EA0
:1030E0000CD0042E14D10EE0A1B22846FEF74EFEFD
:1030F0000FE0A1B22846FEF74BFE0AE0A1B2284637
:10310000FEF748FE05E0A1B22846FEF745FE00E0C6
:1031100000BF00BF0120D5E72DE9FF4704460E465A
:1031200017469846DDF83090B4F1804F05D11C2544
:1031300001210846FDF70BFF10E0D248844205D17B
:103140001D2501210220FDF702FF07E0CE48844241
:1031500004D11E2501210420FDF7F9FEADF8086019
:10316000ADF804700020ADF80A00ADF8060001A922
:103170002046FEF717F8E8B28DF8000002208DF81F
:10318000010008F0FF008DF8020001208DF8030017
:103190006846FDF7BCFA49462046FEF75FFB002073
:1031A00004B0BDE8F0872DE9F04107460E46B7F1BF
:1031B000804F42D101210846FDF7C9FE01210420BC
:1031C000FDF7B8FE012E06D0022E10D0032E1AD025
:1031D000042E30D123E0282201210020FFF720F81F
:1031E0000121AA48FDF799FC0024022524E02822A9
:1031F00002210020FFF714F80221A448FDF78DFCFE
:103200000424042518E0282204210020FFF708F8F0
:1032100004219E48FDF781FC082408250CE02822A3
:1032200008210020FEF7FCFF08219848FDF775FCF7
:103230000C24102500E000BF93E09248874246D15D
:1032400001210220FDF783FE01210820FDF772FE17
:1032500001210420FDF76EFE012E06D0022E10D0B3
:10326000032E1AD0042E30D123E028224021002042
:10327000FEF7D6FF40218548FDF74FFC00240225CC
:1032800024E0282280210020FEF7CAFF80217F4809
:10329000FDF743FC0424042518E0282201210846F8
:1032A000FEF7BEFF01217A48FDF737FC0824082508
:1032B0000CE0282202210120FEF7B2FF022174480F
:1032C000FDF72BFC0C24102500E000BF49E06E4800
:1032D000874246D101210420FDF739FE0121082053
:1032E000FDF728FE012E06D0022E10D0032E1AD094
:1032F000042E34D125E0282240210120FEF790FF42
:1033000040216348FDF709FC0024022528E028221B
:1033100080210120FEF784FF80215D48FDF7FDFB41
:10332000042404251CE028224FF480710120FEF7BC
:1033300077FF4FF480715648FDF7EFFB082408250E
:103340000EE028224FF400710120FEF769FF4FF4D0
:1033500000714F48FDF7E1FB0C24102500E000BF91
:1033600000BF04EB0540BDE8F0812DE9FF470746AB
:103370000C4615461E46DDE90C8921463846FFF706
:1033800012FF1FFA80FA0120434632462946009078
:103390003846FFF7C1FE012C06D0022C0AD0032CC0
:1033A0000ED0042C18D111E0012203213846FEF77B
:1033B00070FA12E0012205213846FEF76AFA0CE0A5
:1033C000012209213846FEF764FA06E001221121A4
:1033D0003846FEF75EFA00E000BF00BF01210A4652
:1033E0003846FEF756FA0AF0FF00ADF80400002058
:1033F000ADF806000120ADF808000020ADF80A0085
:10340000ADF80C9001A93846FEF75FF90121384666
:10341000FEF724FABDE8FF8711B11E4A42F82010DA
:10342000704770B504460D4629462046FEF716FA49
:1034300070BD10B51748806818B116498868804774
:1034400004E003214FF08040FEF7E2FC10BD10B510
:103450001048C06818B10F49C868804703E00321CD
:103460000848FEF7D5FC10BD10B50A48006918B130
:1034700008490869804703E003210348FEF7C8FCB8
:1034800010BD00000004004000080040000801409A
:10349000000C0140A4050020102815D2DFE800F040
:1034A0000815222F3C495663707D8A97A4B1BECB84
:1034B000BD49896941F00401BB4A9161BB49096872
:1034C00021F00F01B94A1160C2E0B749896941F0A2
:1034D0000401B54A9161B549096821F0F001B34A88
:1034E0001160B5E0B049896941F00401AE4A9161CB
:1034F000AE49096821F47061AC4A1160A8E0AA499C
:10350000896941F00401A84A9161A849096821F438
:103510007041A64A11609BE0A349896941F004010A
:10352000A14A9161A149096821F470219F4A116063
:103530008EE09D49896941F004019B4A91619B4954
:10354000096821F47001994A116081E096498969FE
:1035500041F00401944A91619449096821F0706135
:10356000924A116074E09049896941F004018E4AE1
:1035700091618E49096821F070418C4A116067E0C1
:103580008949896941F00801874A91618849096838
:1035900021F00F01864A11605AE08349896941F0A0
:1035A0000801814A91618249096821F0F001804A4D
:1035B00011604DE07C49896941F010017A4A9161BE
:1035C0007C49096821F00F017A4A116040E0764990
:1035D000896941F01001744A91617649096821F0C6
:1035E000F001744A116033E06F49896941F01001BC
:1035F0006D4A91616F49096821F470616D4A1160EB
:1036000026E06949896941F01001674A9161694979
:10361000096821F47041674A116019E062498969BB
:1036200041F01001604A91616249096821F47021FA
:10363000604A11600CE05C49896941F010015A4A06
:1036400091615C49096821F470015A4A116000BF18
:1036500000BF5549896941F40071534A916111468F
:10366000C96841F40071D1601146C96821F4007144
:10367000D1601146496821F44041516011464968C2
:1036800041F4004151604C4909684C4A11404A4A92
:1036900011601146096811601146096861F4807172
:1036A0001160111D096841F48011121D116011464D
:1036B000096821F0020111601146096841F4602196
:1036C00011601146096821F4006111603A490C311A
:1036D000096821F03801384A0C3211603649283126
:1036E000096821F47001344A2832116011460968D2
:1036F00011603149091D096841F001012E4A121D6E
:1037000011601146096841F00801116000BF2A49A3
:10371000091D096801F008010029F8D12649091D91
:10372000096841F00401244A121D116000BF2249BA
:10373000091D096801F004010029F8D1704701460C
:103740001D483030006820F01F001B4A30321060E6
:1037500010460068084310601748001D006840F4D8
:103760008000154A121D106000BF1348001F00683A
:1037700000F002000028F8D00F484830006880B2FE
:10378000704770B506460B460024002505E030461C
:10379000FFF7D5FF0444681CC5B29D42F7DBB4FBBC
:1037A000F3F080B270BD000000100240000801403C
:1037B000000C01400010014004240140FFFFF00014
:1037C00008B501210820FDF7B5FB4FF44060ADF8C6
:1037D000000010208DF8030003208DF802006946D8
:1037E0009748FDF7EBF84FF440619548FDF793F9E2
:1037F00008BD10B59248001D006820F47040904943
:10380000091D08600846006840F440500860012027
:103810008C4908608C49C1F8A8010420FEF74DFED0
:103820000020884908600420FEF747FE00208649F2
:10383000C1F8A80110BD10B58148001D006820F432
:1038400070407F49091D08600846006840F44050F8
:10385000086000207B49091F08607B49C1F8AC0162
:103860000420FEF72AFE01207649091F08607649E8
:10387000C1F8AC010420FEF720FE10BD10B50024F5
:103880006F48001D006820F470406D49091D0860F4
:103890000846006840F4004008600120694908605B
:1038A000FEF70BFE01206849C1F8A801FEF705FEEE
:1038B00007E0601CC4B2FA2C03DDFFF7BCFF012057
:1038C00010BD6048803800680028F2D15D49091FAA
:1038D000086000BFF4E710B500205A49091F0860CE
:1038E0005748001D006820F470405549091D0860C4
:1038F0000846006840F44050086000205249C1F872
:10390000AC010220FEF7D9FD01204E49091F0860D5
:103910000220FEF7D2FD00204B49C1F8A80110BDDE
:1039200010B500204749091F08604548001D006880
:1039300020F470404249091D08600846006840F4C0
:103940004050086001204049C1F8AC010220FEF758
:10395000B4FD01203B49091F08600220FEF7ADFDC0
:1039600000203949C1F8A80110BD70B5044634489B
:10397000001D006820F470403149091D08600846A8
:10398000006840F44050086000202E49091F08607C
:1039900000251DE0E00918B101202A49086002E075
:1039A0000020284908606006040E0220FEF785FD0D
:1039B00001202449091F08600220FEF77EFD002037
:1039C0002149C1F8A8010220FEF777FD681CC5B2A5
:1039D000082DDFDB70BD70B5054600241848001DBA
:1039E000006820F470401649091D08600846006808
:1039F00040F400400860002617E000201149091F2C
:103A000008600220FEF759FD01200F49C1F8A80106
:103A10006006040E0B488038006808B1601CC4B210
:103A20000120FEF74AFD701CC6B2082EE5DB15B971
:103A3000FFF776FF01E0FFF74EFF204670BD000064
:103A4000000C0140AC8121420080214232210180E2
:103A50009149416006210181002141810321818139
:103A60000021C18101824FF496714182002181823F
:103A700070472DE9F84F05460E4614466089E081EF
:103A8000A81B00B26081B4F90A00B4F90C10884296
:103A900001DDA0896081208A6189084400B220820A
:103AA000B4F91000B4F91210884201DD608A208256
:103AB000B4F90A10B4F90E20891AB4F9082001FBF0
:103AC00002F000F03EFE0090B4F9100000F039FE64
:103AD0008346616800F0EAFC8146B4F90010B4F94D
:103AE0000A2001FB02F000F02CFE8246494600F05D
:103AF00085FC8046009900F081FC074600F02FFE0F
:103B000000B2A082BDE8F88F1E2101804FF07E51E7
:103B10004160062101810021418103218181002131
:103B2000C18101824FF496714182002181821E2160
:103B3000C1825A498161062181830021C183082104
:103B400001840021418481844FF49671C184002155
:103B5000018570472DE9F84F05460E461446E08B67
:103B60006084A81B00B2E083A08CE18B084400B203
:103B7000A084B4F92400B4F92610884201DDE08C59
:103B8000A084B4F91E10B4F92220891AB4F91C20BB
:103B900001FB02F000F0D5FD0090B4F9240000F024
:103BA000D0FD8346A16900F081FC8146B4F916106E
:103BB000B4F91E2001FB02F000F0C3FD8246494625
:103BC00000F01CFC8046009900F018FC074600F04D
:103BD000C6FD00B22085BDE8F88F2DE9F84F0546F7
:103BE0000E4614466089E081A81B00B26081B4F9DA
:103BF0000A00B4F90C10884201DDA0896081208A96
:103C00006189084400B22082B4F91000B4F912109E
:103C1000884201DD608A2082B4F90A10B4F90E20CE
:103C2000891AB4F9082001FB02F000F08AFD009027
:103C3000B4F9100000F085FD8346616800F036FCA1
:103C40008146B4F90010B4F90A2001FB02F000F03B
:103C500078FD8246494600F0D1FB8046009900F08D
:103C6000CDFB074600F07BFD00B2A082BDE8F88FD7
:103C700070B505460E461446224631462846FFF7E3
:103C8000ACFF6289E389D21A11B2B4F9140022465A
:103C9000FFF760FF70BD0000CDCCCC3DCDCC4C3FDC
:103CA00010B50446FFF7A5FD7820FFF75EFEFFF78D
:103CB000E5FD4020FFF759FEFFF7E0FD2046FFF746
:103CC00054FEFFF7DBFDFFF7B6FD10BD10B504464F
:103CD000FFF78FFD7820FFF748FEFFF7CFFD0020AC
:103CE000FFF743FEFFF7CAFD2046FFF73EFEFFF752
:103CF000C5FDFFF7A0FD10BD70B504460D4605F1EA
:103D0000B001C8B2FFF7E2FF102141EA1410FFF73B
:103D1000DDFF04F00F0141F00100FFF7D7FF70BD98
:103D200070B50646002415E004F1B001C8B2FFF7F3
:103D3000CDFF0120FFF7CAFF1020FFF7C7FF0025C6
:103D400004E03046FFF7ACFF681CC5B2802DF8DBFD
:103D5000601CC4B2082CE7DB70BD70B5002415E010
:103D600004F1B001C8B2FFF7B1FF0120FFF7AEFFC9
:103D70001020FFF7ABFF002504E00020FFF790FFC5
:103D8000681CC5B2802DF8DB601CC4B2082CE7DBD0
:103D900070BD10B54FF4FA70FEF7B3FBAE20FFF71D
:103DA00095FF2020FFF792FF1020FFF78FFFC8201C
:103DB000FFF78CFF0020FFF789FF1020FFF786FF39
:103DC0004020FFF783FF8120FFF780FFFF20FFF7F0
:103DD0007DFFA120FFF77AFFA620FFF777FFA8203D
:103DE000FFF774FF3F20FFF771FFA420FFF76EFF7E
:103DF000D320FFF76BFF0020FFF768FFD520FFF708
:103E000065FFF020FFF762FFD920FFF75FFF222058
:103E1000FFF75CFFDA20FFF759FF1220FFF756FF8C
:103E2000DB20FFF753FF2020FFF750FF8D20FFF727
:103E30004DFF1420FFF74AFFAF20FFF747FF002098
:103E4000FFF76EFF10BD2DE9F04704468846154682
:103E50004FF000090026002720E0E85D203800F040
:103E6000FF097E2C04DD002408F1010000F0FF08AA
:103E700041462046FFF740FF002609E009EB4901D3
:103E8000C74A02EB4101885DFFF70AFF701CC6B20A
:103E9000062EF3DBA01DC4B2781CC7B2E85D002873
:103EA000DBD1BDE8F0872DE9F04706460F46904686
:103EB00000250024A14631E018F809002038C5B2D9
:103EC000782E02DD0026781CC7B239463046FFF74F
:103ED00013FF002407E004EB0511B24A505CFFF722
:103EE000DFFE601CC4B2082CF5DB781CC1B2304682
:103EF000FFF702FF002408E004EB05110831A94A8E
:103F0000505CFFF7CDFE601CC4B2082CF4DB06F158
:103F10000800C6B209F1010000F0FF0918F8090015
:103F20000028C9D1BDE8F0872DE9F04180460E4652
:103F3000174600247D0131464046FFF7DDFE00BFF5
:103F400006E09949485DFFF7ABFE6D1C601CC4B2EA
:103F5000102CF6DB701CC1B24046FFF7CDFE0024EA
:103F600006E09149485DFFF79BFE6D1C601CC4B2E2
:103F7000102CF6DBBDE8F0812DE9F05F06460F4618
:103F800090461C46DDF828A04FF0000BE11704EB2B
:103F90005171C910A4EBC10131B92046E11704EBFE
:103FA0005171C1F3C70506E02046E11704EB5171DA
:103FB000C910491CCDB23D4614E029463046FFF7F2
:103FC0009BFEB1460AE059460BF1010B1AF80100BD
:103FD000FFF766FE09F1010000F0FF09C145F2DBC1
:103FE000681CC5B2A542E8DBBDE8F09F10B58D2086
:103FF000FFF76CFE1420FFF769FEAF20FFF766FEA7
:1040000010BD10B58D20FFF761FE1020FFF75EFE9A
:10401000AE20FFF75BFE10BD2DE9FF4F85B00746D0
:10402000894692464FF0000B0025A8465F4B0FCB08
:1040300001AC0FC423E01AF80800203800F0FF0B91
:104040007E2F04DD002709F1010000F0FF09494639
:104050003846FFF751FE002509E00BEB4B01504AB3
:1040600002EB4101485DFFF71BFE681CC5B2062D3F
:10407000F3DBB81DC7B208F1010000F0FF081AF821
:1040800008000028D7D14A48129900F00FFA009092
:1040900000F07EFB064600240FE00A20B6FBF0F19C
:1040A00000FB116000B2C4F1060101AA22F8110060
:1040B0000A20B6FBF0F6601C04B2032CEDDB0424EE
:1040C0000FE00A20B6FBF0F100FB116000B2C4F172
:1040D000060101AA22F811000A20B6FBF0F6601CC6
:1040E00004B2072CEDDB3349129800F09FFB01D896
:1040F00000240CE03049129800F098FB01D801240C
:1041000005E00021129800F091FB00D8022426E07F
:1041100001A810F81400103000F0FF0B7E2F04DD12
:10412000002709F1010000F0FF0949463846FFF772
:10413000E3FD002509E00BEB4B01194A02EB4101BD
:10414000485DFFF7ADFD681CC5B2062DF3DBB81D59
:10415000C7B208F1010000F0FF08601C04B2072C90
:10416000D6DB002004E00899203901F0FF0B401C49
:104170000728F8DB49463846FFF7BEFD002509E071
:104180000BEB4B01064A02EB4101485DFFF788FD4E
:10419000681CC5B2062DF3DB09B0BDE8F08F000046
:1041A000944A0008BC4C000826000020AC520008CD
:1041B00000007A440000C8420000204101604FF036
:1041C0007E52426070472DE9F04104460D464FF0A3
:1041D0007E50216800F064F98046616800F066F95D
:1041E00006462946206800F061F90746314600F08E
:1041F00005F96060BDE8F081064880470648004741
:10420000FEE7FEE7FEE7FEE7FEE7FEE7FEE7FEE786
:10421000FEE7FEE7FB420008ED0000080CB50020B9
:10422000019000906C48006840F480306A49086052
:1042300000BF6948006800F4003000900198401CFD
:104240000190009818B90198B0F5A06FF1D16248BB
:10425000006800F4003010B10120009001E000205F
:1042600000900098012843D15C48006840F010009D
:104270005A4908600846006820F0030008600846B4
:10428000006840F0020008605348406852494860A6
:104290000846406848600846406840F480604860CE
:1042A0000846406820F47C1048600846406840F4A6
:1042B000E81048600846006840F08070086000BF61
:1042C0004548006800F000700028F9D04248406876
:1042D00020F00300404948600846406840F0020072
:1042E000486000BF3C48406800F00C000828F9D145
:1042F0000CBD10B5FFF792FF10BD10B53648006831
:1043000040F00100344908600846406834490840DC
:104310003149486008460068324908402E49086023
:104320000846006820F4802008600846406820F4B1
:10433000FE0048604FF41F008860FFF7DAFF4FF07F
:1043400000602949086010BD10B50021002000223E
:10435000214B5B6803F00C0121B1042906D0082928
:1043600028D107E0214B224C236027E01F4B204C33
:10437000236023E0184B5B6803F47010164B5B68F6
:1043800003F48032022303EB904022B9194B4343DC
:10439000174C23600DE0104B5B6803F4003323B12E
:1043A000144B4343124C236003E0104B4343104C27
:1043B000236003E00D4B0E4C236000BF00BF064B93
:1043C0005B68C3F303130C4CE15C094B1B68CB40E7
:1043D000074C236010BD0000001002400020024086
:1043E0000000FFF8FFFFF6FE08ED00E000127A0083
:1043F000E804002000093D00EC040020F0B480EA4D
:104400000102D40F4200B2EB410F02D2024608462D
:1044100011464A0042D0C30DDDB2C1F3C752AD1AF6
:10442000202D35DAC1F3160141F4000204B15242E5
:10443000C5F1200602FA06F12A411044B3EBD05F21
:1044400023D0C4B1012DA0EBC35009DCF0BC4FF068
:10445000004202EAC352DBB200F5000000F01ABAD3
:10446000400000F1807000EBC350A0F1807040EA82
:10447000D170490009E0490841EAC071A0EBC3507E
:1044800000F50000400800EBC350F0BC00F0F9B9A3
:104490006142012202EB4101001BF6E7F0BC7047CC
:1044A00081F00041AAE780F00040A7E780EA01021E
:1044B00010B502F00043400022D04A001FD0010E88
:1044C00001EB1261C0F35600C2F3560240F4000043
:1044D00042F40002A0FB022000047F39140400D043
:1044E000401C50EA124001D44000491EC2B20C06E2
:1044F00004EBD010401C4008802A02D003E00020CA
:1045000010BD20F00100002900DA0020184310BD82
:104510002DE9FE4F804681EA0300C00F0C46009053
:1045200021F0004123F00045B8EB0200A94105D27B
:104530004046214690461C460B46024623F000406A
:10454000104347D0270DC7F30A00C3F30A51029066
:10455000401A019040286BDAC3F3130040F4801B2B
:104560000098924620B10023D2EB030A63EB0B0BB9
:1045700001985946C0F14002504600F061F90646E4
:104580000D4650465946019A00F069F910EB0800B3
:104590006141002487EA115284EAE7731A4340D04C
:1045A000009A62B3019A012A4FEA075215DC001BF8
:1045B00061EB02014FF0004202EA0752CDE90042EE
:1045C000001C41F5801132462B4600F09EF903B0E5
:1045D000BDE8F08F40462146F9E7001B61EB020180
:1045E000001C41F5801300185B412018A2F500174C
:1045F00047EB030140EAD570B6196D4111E06D0833
:104600004FEA360645EAC0754FEA0752001B61EBD8
:104610000201001C41F5801149084FEA30000019E1
:10462000514132462B4603B0BDE8F04F00F060B96F
:104630000098012240000023D0EB020263EBE073FC
:10464000009821464FEAE074B8EB000061EB0401EA
:10465000E9E783F000435BE781F0004158E72DE98B
:10466000FE4F81EA030404F0004421F0004100946D
:104670004FF0000B23F0004350EA01045ED052EAF1
:1046800003045BD0C3F30A54C1F30A552C44A4F2CB
:10469000F3340194A0FB0254C1F3130141F48011DF
:1046A000C3F3130343F4801301FB024400FB034EE6
:1046B000840A970A44EA815447EA8357A4FB0768AF
:1046C00002958D0A05FB07854FEA932C04FB0C54D9
:1046D0002705029D4FEA065847EA1637B5EB08054D
:1046E0006EEB070C870E920E47EA811742EA83129F
:1046F000A7FB0201B6EB0B0164EB00042B0D43EAB0
:104700000C335E1844EB1C50DA465146E7FB0201BD
:10471000C5F313044FEA0B3343EA14534FEA043250
:10472000019C43EA0603A4F10C040294009CCDE929
:1047300000B400F0EAF803B0BDE8F08F00200146B5
:10474000F9E7C10F80EAE0700844CA079623002108
:1047500000F0A0B896230022114600F09BB800F0AC
:10476000004220F00040C10DC0F3160040F40000EC
:104770007F2901DA00207047962903DCC1F19601F8
:10478000C84001E096398840002AF4D04042704782
:1047900020F00040C10DC0F3160040F400007F2956
:1047A00001DA00207047962903DCC1F19601C84068
:1047B000704796398840704700F0004230F0004062
:1047C0000AD0C10D01F56071C0F3160042EA015133
:1047D000C20840071143704700200146704701F0AE
:1047E000004330B421F0004150EA010206D00A0D26
:1047F000A2F56072C1F31301002A02DC30BC002074
:104800007047440F44EAC104C100E01830BC00EB1B
:10481000C25000F036B80000002801DBC0F10040B3
:10482000002901DBC1F1004181427047002801DB12
:10483000C0F10040002901DBC1F10041884270470E
:10484000202A04DB203A00FA02F100207047914050
:10485000C2F1200320FA03F3194390407047202A45
:1048600006DBCB17203A41FA02F043EAE07306E098
:1048700041FA02F3D040C2F12002914008431946A8
:1048800070470029A8BF7047401C490008BF20F0AE
:104890000100704710B4B0FA80FC00FA0CF050EA46
:1048A000010404BF10BC704749B1CCF1200421FAC7
:1048B00004F411FA0CF118BF012121430843A3EBC2
:1048C0000C01CB1D4FEA00614FEA102042BF0020CF
:1048D00010BC704700EBC35010440029A4BF10BCAB
:1048E0007047401C490008BF20F0010010BC704711
:1048F00010B5002B08DA401C41F1000192185B4111
:104900001A4301D120F0010010BD2DE9F04D92466F
:104910009B4611B1B1FA81F202E0B0FA80F2203286
:104920009046FFF78DFF04460F4640EA0A0041EA31
:104930000B0153465A46084313D0114653EA01006F
:1049400019D0C8F14002504600F040F805460E4626
:10495000504659464246FFF773FF084305D00120F1
:1049600004E020463946BDE8F08D0020054346EAC4
:10497000E0762C4337430A986305E40AA0EB08006D
:104980000022FD0A44EA47540A3002D500200146BD
:10499000E9E7010510196941DDE908450019694198
:1049A000BDE8F04DA4E70000064C074D06E0E068C6
:1049B00040F0010394E8070098471034AC42F6D366
:1049C000FBF798FBBC520008DC520008202A04DBED
:1049D000203A21FA02F00021704721FA02F3D04078
:1049E000C2F12002914008431946704770B58C18F7
:1049F00010F8015B15F0070301D110F8013B2A11F3
:104A000006D110F8012B03E010F8016B01F8016BDF
:104A10005B1EF9D12B0705D40023521E0DD401F8DB
:104A2000013BFAE710F8013BCB1A921C03E013F8A4
:104A3000015B01F8015B521EF9D5A142D8D30020D9
:104A400070BD0000014A024900F013B85D2500085E
:104A5000FC04002002E008C8121F08C1002AFAD195
:104A600070477047002001E001C1121F002AFBD1EE
:104A700070472DE9F04116460F460446002503E035
:104A80003946B047641C6D1C20780028F8D12846B0
:104A9000BDE8F0810000000000000000002F0000D1
:104AA00000000700070000147F147F1400242A7FF1
:104AB0002A12006264081323003649552250000070
:104AC0000503000000001C224100000041221C00E0
:104AD0000014083E08140008083E0808000000A062
:104AE000600000080808080800006060000000205E
:104AF00010080402003E5149453E0000427F40003C
:104B0000004261514946002141454B3100181412C1
:104B10007F10002745454539003C4A49493000018E
:104B20007109050300364949493600064949291EDD
:104B3000000036360000000056360000000814223F
:104B4000410000141414141400004122140800023F
:104B50000151090600324959513E007C1211127C64
:104B6000007F49494936003E41414122007F414191
:104B7000221C007F49494941007F09090901003E83
:104B80004149497A007F0808087F0000417F4100C1
:104B9000002040413F01007F08142241007F404037
:104BA0004040007F020C027F007F0408107F003E1F
:104BB0004141413E007F09090906003E4151215E05
:104BC000007F091929460046494949310001017F02
:104BD0000101003F4040403F001F2040201F003F98
:104BE0004038403F0063140814630007087008074A
:104BF00000615149454300007F41410000552A555D
:104C00002A55000041417F000004020102040040D7
:104C100040404040000001020400002054545478F9
:104C2000007F484444380038444444200038444419
:104C3000487F00385454541800087E0901020018B7
:104C4000A4A4A47C007F080404780000447D4000F4
:104C5000004080847D00007F102844000000417FD8
:104C60004000007C04180478007C080404780038B4
:104C70004444443800FC242424180018242418FC3C
:104C8000007C0804040800485454542000043F44A5
:104C90004020003C4040207C001C2040201C003C68
:104CA0004030403C004428102844001CA0A0A07CB8
:104CB000004464544C4414141414141400000000F0
:104CC000000000000000000000000000000000F8EC
:104CD00000000000000000333000000000100C064F
:104CE000100C0600000000000000000040C07840EA
:104CF000C0784000043F04043F040400007088FCB6
:104D000008300000001820FF211E0000F008F0000D
:104D1000E018000000211C031E211E0000F008887E
:104D2000700000001E2123241927211010160E00E8
:104D3000000000000000000000000000000000E093
:104D400018040200000000071820400000020418A8
:104D5000E00000000040201807000000404080F004
:104D6000804040000202010F01020200000000F03A
:104D7000000000000101011F01010100000000000E
:104D80000000000080B07000000000000000000083
:104D9000000000000001010101010101000000000C
:104DA00000000000003030000000000000000000A3
:104DB00080601804006018060100000000E0100880
:104DC0000810E000000F102020100F00001010F855
:104DD000000000000020203F202000000070080894
:104DE0000888700000302824222130000030088814
:104DF000884830000018202020110E000000C0203C
:104E000010F8000000070424243F240000F808885C
:104E1000880808000019212020110E0000E01088E9
:104E200088180000000F112020110E00003808081B
:104E3000C83808000000003F00000000007088082B
:104E400008887000001C222121221C0000E01008AC
:104E50000810E0000000312222110F00000000C005
:104E6000C0000000000000303000000000000080A2
:104E70000000000000008060000000000000804092
:104E800020100800000102040810200040404040AB
:104E900040404000040404040404040000081020FE
:104EA0004080000000201008040201000070480843
:104EB0000808F0000000003036010000C030C828AB
:104EC000E810E0000718272423140B000000C03866
:104ED000E0000000203C23020227382008F88888E0
:104EE00088700000203F202020110E00C0300808EC
:104EF00008083800071820202010080008F80808C3
:104F00000810E000203F202020100F0008F88888BB
:104F1000E8081000203F20202320180008F8888887
:104F2000E8081000203F200003000000C0300808FF
:104F30000838000007182020221E020008F8080088
:104F40000008F808203F210101213F20000808F84F
:104F5000080800000020203F202000000000080872
:104F6000F8080800C08080807F00000008F888C032
:104F700028180800203F20012638200008F80800E3
:104F800000000000203F20202020300008F8F8001A
:104F9000F8F80800203F003F003F200008F830C02C
:104FA0000008F808203F200007183F00E01008081C
:104FB0000810E0000F10202020100F0008F808084B
:104FC0000808F000203F210101010000E01008085E
:104FD0000810E0000F18242438504F0008F8888883
:104FE00088887000203F2000030C30200070880863
:104FF000080838000038202121221C00180808F871
:10500000080818000000203F2000000008F80800F1
:105010000008F808001F202020201F0008788800C2
:1050200000C83808000007380E010000F80800F832
:105030000008F800033C0700073C030008186880DC
:105040008068180820302C03032C30200838C80052
:10505000C83808000000203F2000000010080808A1
:10506000C83808002038262120201800000000FE43
:10507000020202000000007F40404000000C30C0EF
:1050800000000000000000010638C000000202021B
:10509000FE000000004040407F00000000000402CD
:1050A00002020400000000000000000000000000F8
:1050B00000000000808080808080808000020204E8
:1050C00000000000000000000000000000008080E0
:1050D000808000000019242222223F2008F800804E
:1050E00080000000003F112020110E000000008011
:1050F00080800000000E11202020110000000080A0
:105100008088F800000E112020103F2000008080D1
:1051100080800000001F222222221300008080F0E5
:10512000888888180020203F202000000000808010
:1051300080808000006B94949493600008F8008055
:1051400080800000203F210000203F2000809898B0
:10515000000000000020203F202000000000008010
:105160009898000000C08080807F000008F8000050
:1051700080808000203F24022D302000000808F8A5
:10518000000000000020203F202000008080808060
:1051900080808000203F20003F20003F80800080F2
:1051A00080800000203F210000203F200000808000
:1051B00080800000001F202020201F0080800080B1
:1051C0008000000080FFA12020110E000000008060
:1051D00080808000000E112020A0FF808080800051
:1051E0008080800020203F2120000100000080807E
:1051F000808080000033242424241900008080E073
:10520000808000000000001F20200000808000003F
:1052100000808000001F202020103F208080800020
:105220000080808000010E30080601008080008030
:10523000008080800F300C030C300F000080800055
:10524000808080000020312E0E3120008080800080
:105250000080808080818E70180601000080808030
:10526000808080000021302C2221300000000000CE
:10527000807C020200000000003F4040000000006F
:10528000FF00000000000000FF0000000002027CA0
:10529000800000000040403F0000000000060101C7
:1052A00002020404000000000000000000000000F2
:1052B0000000FEFF0000000000000000DC520008BB
:1052C0000000002000050000EC490008A054000880
:1052D00000050020C0040000644A00084152141375
:1052E000803F42012D01020304045009060708090A
:1052F000020406081EF8088888080B27E010080832
:1053000010E02719212020110E270F102020100F48
:1053100016FC848484FC2A100124FF10101A3F0913
:105320001A3F4C3D0640807F5D180C60F807202036
:10533000207FA010111620196952FF17030C1020AE
:1053400040F8172424A4FEA3225B22CC18150806DB
:1053500001FF2B0104012DFF020202591CFF1090D6
:10536000841B88FF0412080010130444827F01800C
:105370008040432C1028468180D33636100A03051E
:105380000911FF118905C312E012F072F8073D44BC
:1053900028FF11AA44700B83013844829292740151
:1053A000831E7C44C7017D01990549EB19F58902EB
:1053B000818A010B013669419949FA0101A12A400C
:1053C00001212A6D01212A6001791501642ADB017E
:1053D0000915072ADA01212AD801212AC001091555
:1053E000072A800101352A06010918071CE66620F4
:1053F000076A86157A861C2A8601180A80808686A6
:10540000068686C0C00C0E1C0606D030764D2907D5
:10541000013113601C12FE1301021009C41820028E
:105420009E63B20E1DFF8181FFF24440300F12FFD8
:10543000180923EAAABFAAEA033F0B012DBC80800A
:1054400080080115240E0C082A01013149041D8130
:10545000808081021901B91706110101090C0E0A99
:1054600014C0012178081E21404050215E08012A05
:105470004DFFFFC1C10409232D381580FCF3EFF364
:10548000FC80FF80EEEEEEF5FBFF9CBEB6B6883AE0
:1054900084A24A0440090102030406070809000027
:04000005080000ED02
:00000001FF
