:020000040800F2
:10000000980400200D2D0008152D0008172D00085C
:10001000192D00081B2D00081D2D000800000000F0
:100020000000000000000000000000001F2D00087C
:10003000212D000800000000232D0008252D0008B8
:10004000272D0008272D0008272D0008272D000840
:10005000272D0008272D00086D2200088D2200089A
:10006000AD220008CD220008ED220008272D00084F
:10007000272D0008272D0008272D0008272D000810
:10008000272D0008272D0008272D0008272D000800
:10009000272D0008272D0008272D00080D23000814
:1000A000272D0008272D0008272D0008272D0008E0
:1000B000A72C0008C32C0008DD2C0008272D000801
:1000C000272D0008272D0008272D0008272D0008C0
:1000D000272D00088B200008B3200008DB20000833
:1000E000AD230008272D0008272D0008DFF80CD0CD
:1000F00002F00EFF004800470101000898040020AC
:100100000020704731490143314A1160704770B592
:10011000002100230F22C47804B32D4C246804F47A
:10012000E064C4F5E064210AC1F10403CA404478E4
:1001300004FA03F18478144021430901254C067820
:10014000A155047804F01F050124AC4005786D1119
:10015000AD0005F1E025C5F8004109E0047804F0A0
:100160001F050124AC401C4D0678761145F8264049
:1001700070BD1A4A0A400243154B1B1F1A60704794
:1001800039B1134A121D12680243114B1B1D1A602C
:1001900006E00F4A121D126882430D4B1B1D1A60A8
:1001A0007047042808D14FF0E021096941F00401AB
:1001B0004FF0E022116107E04FF0E021096921F0E2
:1001C00004014FF0E0221161704700000000FA05C1
:1001D0000CED00E000E400E080E100E080FFFF1FA4
:1001E000002044490860091D0860091D0860091DB8
:1001F000086041483F4914310860704700213D497B
:100200008279002A3AD00A46126803689A430B465C
:100210001A600A1D126803689A430B1D1A6002795E
:1002200011440A6803681A430A60324A08321268A5
:1002300003689A432F4B08331A601A1D126803682B
:100240009A432C4B0C331A604279102A0ED11A1F94
:10025000126803681A43274B08331A601A1D126884
:1002600003681A43234B0C331A600DE0214942798D
:1002700011440A6803681A430A6005E002791144D0
:100280000A6803689A430A6070470021016001719F
:100290000C214171002181717047164910310968A4
:1002A0000143144A10321160704701460020114A80
:1002B000143212680A400AB1012000E000207047A1
:1002C0000C49143108607047014600200022094B98
:1002D0001B6803EA0102074B14331B680B4013B180
:1002E0000AB1012000E00020704702491431086083
:1002F0007047000000040140FFFF0F0010B50446E6
:10030000CC48844208D10121042000F02DFB0021BB
:10031000042000F029FB46E0C748844208D10121AF
:10032000082000F021FB0021082000F01DFB3AE02E
:10033000C248844208D10121102000F015FB0021A1
:10034000102000F011FB2EE0BD48844208D10121AD
:10035000202000F009FB0021202000F005FB22E016
:10036000B848844208D10121402000F0FDFA002164
:10037000402000F0F9FA16E0B348844208D1012188
:10038000802000F0F1FA0021802000F0EDFA0AE070
:10039000AE48844207D10121801500F0E5FA002122
:1003A000A01500F0E1FA10BD10B50121084600F0DB
:1003B000DBFA0021012000F0D7FA10BD2DE9F04151
:1003C000024600250026002000230024002791F883
:1003D00003C00CF00F0591F803C00CF0100CBCF139
:1003E000000F03D091F802C04CEA050591F800C057
:1003F000BCF1000F31D0146800202BE04FF0010C4D
:100400000CFA00F3B1F800C00CEA03069E4220D1BA
:1004100083004FF00F0C0CFA03F7BC4305FA03FC02
:100420004CEA040491F803C0BCF1280F06D14FF048
:10043000010C0CFA00FCC2F814C00AE091F803C0E9
:10044000BCF1480F05D14FF0010C0CFA00FCC2F8CA
:1004500010C0401C0828D1D31460B1F800C0BCF112
:10046000FF0F34DD546800202EE000F1080C4FF03F
:10047000010808FA0CF3B1F800C00CEA03069E422A
:1004800021D183004FF00F0C0CFA03F7BC4305FA9F
:1004900003FC4CEA040491F803C0BCF1280F05D119
:1004A00000F1080C08FA0CF8C2F8148091F803C0A7
:1004B000BCF1480F07D100F1080C4FF0010808FA11
:1004C0000CF8C2F81080401C0828CED35460BDE858
:1004D000F0814FF6FF710180022181700421C1700B
:1004E00070470246002093680B400BB1012000E0EA
:1004F000002070470146886880B27047024600209D
:10050000D3680B400BB1012000E00020704701468A
:10051000C86880B2704701617047416170470AB195
:10052000016100E041617047C16070474FF4803263
:100530000A438261816182618269826970470246F1
:100540000020434B18684FF68073184040EA0210B1
:1005500008433F4B186070473E49C8617047F0B58B
:100560000A46002300240021002500F00046B6F1D1
:10057000004F02D1364EF16901E0354E7168C0F38B
:10058000034583B200F44016B6F5401F08D121F0B0
:1005900070612F4E766826F070662D4F7E6012E0F7
:1005A00000F48016B6F5801F06D1032606FA05F47E
:1005B000A14341F0706106E0460D360103FA06F6EC
:1005C000B14341F0706122B1460D360103FA06F6DF
:1005D000314300F00046B6F1004F02D11C4EF161EC
:1005E00001E01B4E7160F0BD30B500228B071C0F7F
:1005F0000F2303FA04F2164B08338C1053F82430FF
:100600009343134C08348D1044F8253023468C1046
:1006100053F824308C07240F00FA04F423430C4CC5
:1006200008348D1044F8253030BD0A49DC310860AB
:100630007047000000080140000C0140001001401C
:100640000014014000180140001C0140002001403E
:100650000000014000002042DF48006840F0010037
:10066000DD49086008464068DC490840DA494860CE
:1006700008460068DA490840D7490860084600681B
:1006800020F4802008600846406820F4FE0048609E
:100690004FF41F0088607047CF49096821F480310A
:1006A000CD4A11601146096821F480211160B0F52E
:1006B000803F03D0B0F5802F0ED106E0C64909680F
:1006C00041F48031C44A116007E0C349096841F42C
:1006D000A021C14A116000E000BF00BF704710B503
:1006E00001460022002300204A11012A02D1BA4CFF
:1006F000236806E0022A02D1B74C236A01E0B64C17
:10070000636A01F01F02012494401C400CB10120D7
:1007100000E0002010BD38B5002000900024002526
:1007200000BF3120FFF7DBFF05460098401C00901A
:100730000098B0F5A06F01D0002DF2D03120FFF766
:10074000CEFF08B1012400E00024204638BD014658
:100750000020A14A106820F0F80040EAC1001060B3
:100760007047A04908607047024600209A4B5868BD
:1007700020F47C1042EA01031843974B58607047FD
:1007800098490866704701460020934A506820F057
:1007900003000843506070478F48406800F00C0029
:1007A0007047014600208C4A506820F0F000084352
:1007B0005060704701460020874A506820F4E0608E
:1007C00008435060704701460020834A506820F477
:1007D000605040EAC1005060704729B17E4A527AA9
:1007E00002437D4B5A7204E07B4A527A82437A4B31
:1007F0005A7270477B49D831086070470146002023
:10080000754A506820F4404008435060704700210A
:10081000714A20321170704A82F82010012802D0EB
:1008200004280AD104E001216B4A2032117005E04E
:100830000521694A2032117000E000BF00BF7047F7
:100840006949086070476449096A0143624A116254
:100850007047654944390860704730B5002100226F
:10086000002400235C4D6D6805F00C0121B10429C2
:1008700005D0082923D105E05C4D056022E05B4DE1
:1008800005601FE0544D6D6805F47012524D6D689F
:1008900005F48034022505EB92421CB9544D5543B2
:1008A00005600BE04C4D6D6805F400351DB1504DF1
:1008B0005543056002E04D4D5543056002E04B4D48
:1008C000056000BF00BF444D6D6805F0F0010909E7
:1008D000484D6B5C0568DD4045603F4D6D6805F433
:1008E000E061090A434D6B5C4568DD4085603A4D27
:1008F0006D6805F46051C90A3E4D6B5C4568DD408A
:10090000C560354D6D6805F44041890B3A4D6B5C0F
:10091000C568B5FBF3F5056130BD29B12E4A5269B2
:1009200002432D4B5A6104E02B4A526982432A4B01
:100930005A61704729B1284A92690243264B9A614D
:1009400004E0254A92698243234B9A61704729B19A
:10095000214AD2690243204BDA6104E01E4AD2697F
:1009600082431D4BDA61704729B11B4AD2680243AA
:10097000194BDA6004E0184AD2688243164BDA60F9
:10098000704729B1144A12690243134B1A6104E0FB
:10099000114A12698243104B1A617047124940395B
:1009A000086070470F49C86470470B49C8717047A9
:1009B0000948406A40F08070074948627047014624
:1009C0000020054A92680A400AB1012000E0002098
:1009D0007047014988727047001002400000FFF81C
:1009E000FFFFF6FE000042428004424200127A00FD
:1009F00000093D00000000201000002010B5044652
:100A0000FE48844208D10121C014FFF7ADFF002148
:100A1000E014FFF7A9FFC4E0B4F1804F08D1012131
:100A20000846FFF7AEFF00210120FFF7AAFFB8E05C
:100A3000F348844208D101210220FFF7A2FF0021E0
:100A40000220FFF79EFFACE0EE48844208D101216E
:100A50000420FFF796FF00210420FFF792FFA0E09B
:100A6000E948844208D101210820FFF78AFF0021CC
:100A70000820FFF786FF94E0E448844208D1012172
:100A80001020FFF77EFF00211020FFF77AFF88E09B
:100A9000DF48844208D101212020FFF772FF0021A6
:100AA0002020FFF76EFF7CE0DA48844208D1012164
:100AB0004014FFF759FF00216014FFF755FF70E065
:100AC000D548844209D10121C804FFF74DFF002118
:100AD0004FF40020FFF748FF63E0D048844209D17B
:100AE00001210805FFF740FF00214FF48010FFF7B8
:100AF0003BFF56E0CA48844209D101214805FFF76F
:100B000033FF00214FF40010FFF72EFF49E0C548E6
:100B1000844208D101214020FFF733FF002140200B
:100B2000FFF72FFF3DE0C048844208D1012180201B
:100B3000FFF727FF00218020FFF723FF31E0BB48AC
:100B4000844208D101218015FFF71BFF0021A01569
:100B5000FFF717FF25E0B648844209D101210804B8
:100B6000FFF702FF00214FF48030FFF7FDFE18E091
:100B7000B048844209D101214804FFF7F5FE002165
:100B80004FF40030FFF7F0FE0BE0AB48844208D191
:100B900001218804FFF7E8FE00214FF48020FFF7D1
:100BA000E3FE10BD00220288944B98420ED0994B70
:100BB00098420BD0B0F1804F08D0914B984205D0AD
:100BC000904B984202D0904B984204D14FF68F73CD
:100BD0001A404B881A438D4B984207D08C4B984251
:100BE00004D04FF6FF431A40CB881A4302808B880B
:100BF00083850B880385814B98420BD0854B9842A7
:100C000008D08B4B984205D08A4B984202D08A4B31
:100C1000984201D10B7A038601238382704770B515
:100C2000002400220023058C4FF6FE763540058413
:100C3000028C8388048B4FF68F752C40B51E2C4098
:100C40000D882C43751E2A400D892A434D882A435E
:100C50006A4DA8420BD06F4DA84208D0744DA842EF
:100C600005D0744DA84202D0734DA84213D14FF65F
:100C7000F7752A404D892A434FF6FB752A408D8827
:100C80002A434FF6FF652B404FF6FF552B408D89C9
:100C90002B43CD892B4383800483CD8885860284B2
:100CA00070BD70B5002400220023058C4FF6EF764E
:100CB00035400584028C8388048B48F6FF752C40F0
:100CC0004FF6FF452C400D884FF6FF7606EA0525C6
:100CD0002C434FF6DF752A400D8906EA05152A4395
:100CE0004D8806EA05152A43444DA84202D0494DD5
:100CF000A8421DD14FF67F752A404D894FF6FF76E9
:100D000006EA05152A434FF6BF752A408D8806EA84
:100D100005152A434FF6FF352B404FF2FF752B4048
:100D20008D8906EA85052B43CD8906EA85052B4387
:100D300083800483CD880587028470BD70B500244C
:100D400000220023058C4FF6FF6635400584028C97
:100D50008388848B4FF68F752C404FF6FC752C40A2
:100D60000D882C434FF6FF552A400D894FF6FF762C
:100D700006EA05252A434D8806EA05252A431F4D24
:100D8000A84202D0234DA8421DD14FF2FF752A4040
:100D90004D894FF6FF7606EA05252A434FF6FF35C3
:100DA0002A408D8806EA05252A434EF6FF752B401A
:100DB0004DF6FF752B408D8906EA05152B43CD892D
:100DC00006EA05152B4383808483CD8885870284BA
:100DD00070BD70B5002200230024058C4EF6FF760E
:100DE00035400584038C8488828B48F6FF752A4041
:100DF0004FF6FF452A400D8820E00000002C0140FE
:100E00000004004000080040000C004000100040BA
:100E10000014004000340140004C014000500140EB
:100E20000054014000180040001C00400020004019
:100E30000040014000440140004801404FF6FF7669
:100E400006EA05252A434DF6FF752B400D8906EA73
:100E500005352B434D8806EA05352B43FA4DA8424C
:100E600002D0FA4DA84208D14BF6FF752C408D896F
:100E70004FF6FF7606EA85152C4384808283CD8861
:100E8000A0F84050038470BD828B4FF2FF331A40AC
:100E90008283828B4FF6FF7303EA01231A43828316
:100EA0007047F0B50C461546002200210026078C3D
:100EB0004EF6FF7C07EA0C070784828B018C4FF605
:100EC000FF7707EA043640F6FF473A404FF6FF77D0
:100ED00007EA05273A434FF6FF7707EA03373A4315
:100EE000D94FB8420ED0D94FB8420BD0B0F1804F95
:100EF00008D0D74FB84205D0D64FB84202D0D64F0F
:100F0000B84206D14DF6FF77394046F48057394351
:100F100005E047F6FF57394044F480573943828350
:100F20000184F0BD828B4FF6F3731A408283828B6B
:100F30000A4382837047F0B50C4615460022002113
:100F40000026078C4FF6FF6C07EA0C070784828B9C
:100F5000018C4FF6FF7707EA04264FF60C773A40EC
:100F60004FF6FF7707EA03172F433A43B64FB842CD
:100F70000ED0B64FB8420BD0B0F1804F08D0B44F6E
:100F8000B84205D0B34FB84202D0B34FB84206D1F1
:100F90004FF6FF57394046F48077394305E04FF26A
:100FA000FF57394044F48077394382830184F0BD90
:100FB000028B4FF2FF331A400283028B4FF6FF730E
:100FC00003EA01231A4302837047F0B50C46154625
:100FD000002200210026078C4FF6EF7C07EA0C0761
:100FE0000784028B018C4FF6FF7707EA041640F660
:100FF000FF473A404FF6FF7707EA03373A434FF689
:10100000FF7707EA05273A438F4FB8420ED08F4F3C
:10101000B8420BD0B0F1804F08D08D4FB84205D008
:101020008C4FB84202D08C4FB84206D14FF6DF77D2
:10103000394046F01007394305E04FF65F773940F5
:1010400044F01007394302830184F0BD028B4FF650
:10105000F3731A400283028B0A4302837047F0B590
:101060000C46154600220021068C4FF6FE773E40C6
:101070000684028B018C4FF60C7632407E1C06EA09
:1010800003162E433243704EB0420ED06F4EB04224
:101090000BD0B0F1804F08D06D4EB04205D06D4EF0
:1010A000B04202D06C4EB04206D14FF6FD763140D0
:1010B00044F00106314305E04FF6F576314044F047
:1010C0000106314302830184F0BD70B505460C462C
:1010D0005D4885420ED05D4885420BD0B5F1804F0A
:1010E00008D05B48854205D05A48854202D05A480C
:1010F000854200D100E000BF208850B92389A28832
:1011000061882846FFF7ABFFE1882846FFF79EFF7E
:1011100025E0208804280AD12389A28861882846EE
:10112000FFF753FFE1882846FFF742FF17E02088CA
:1011300008280AD12389A28861882846FFF7FBFE88
:10114000E1882846FFF7EEFE09E02389A28861883E
:101150002846FFF7A6FEE1882846FFF795FE70BDFA
:101160002DE9F04105460C4600260127608808B9A4
:10117000022600E00026A088012801D1022700E015
:1011800001272088A0B92389A28861882846FFF713
:1011900066FFE1882846FFF759FF23893A46314622
:1011A0002846FFF712FFE1882846FFF701FF13E00A
:1011B0002389A28861882846FFF707FFE18828462F
:1011C000FFF7F6FE23893A4631462846FFF747FFE8
:1011D000E1882846FFF73AFFBDE8F0810A884B888E
:1011E0001A438B881A43CB881A430B891A434B89BD
:1011F0001A438B891A43A0F8442070474FF6FF71B9
:10120000818000210180C1804180017270470021EE
:10121000018041808180C180018141818181C181C2
:101220007047002101804180012181800021C1801F
:10123000018170470021018041808180C18001814E
:101240004181818170470000002C01400034014041
:101250000004004000080040000C004021B102885A
:1012600042F00102028004E002884FF6FE731A4049
:101270000280704731B1B0F8442042F40042A0F837
:10128000442005E0B0F84420C2F30E02A0F8442048
:1012900070471AB183890B43838102E083898B43B2
:1012A000838170478182704741EA0203A0F8483089
:1012B00070471AB183890B43838102E083898B4392
:1012C0008381704701894FF6F872114001817047A0
:1012D0000A46002101894FF68F731940114301819D
:1012E000704730B504460D4629462046FFF7F0FF0B
:1012F000208940F00700208130BD2DE9F0410446EF
:101300000D4616461F46602D06D13B46012231464A
:101310002046FFF75AFE05E03B46012231462046B3
:10132000FFF79DFE29462046FFF7D2FF208940F0B7
:1013300007002081BDE8F08130B50C46002101890D
:10134000C9B24FF6FF7505EA032515432543294326
:10135000018130BD2DE9F04105460E4617469846FD
:10136000002443463A4631462846FFF7E5FF2C89DC
:101370004FF6F870044044F007044FF68F700440B5
:1013800044F070042C81BDE8F081F0B504460D46B0
:1013900016461F463B46324629462046FFF7CCFFFD
:1013A000208940F480402081F0BD01858282704711
:1013B0000A46002101884FF68F73194011430180BE
:1013C0007047F0B50C4615461E460021002200234A
:1013D0000189028B038C4FF6F877394021434FF691
:1013E000FC473A4040F201173A434FF6DD773B4065
:1013F0004FF6FF7707EA06172F433B43018102832D
:101400000384F0BD0A460021018B4FF68F7319400B
:101410001143018370470A460021018B48F6FF7390
:1014200019404FF6FF7303EA022319430183704703
:101430000A460021818B4FF68F7319401143818337
:1014400070470A460021818B48F6FF7319404FF61A
:10145000FF7303EA022319438183704721B1028895
:1014600042F08002028004E002884FF67F731A4047
:101470000280704721B1828842F00402828004E039
:1014800082884FF6FB731A408280704721B18288B0
:1014900042F00802828004E082884FF6F7731A4017
:1014A0008280704721B1828842F00102828004E08C
:1014B00082884FF6FE731A40828070470A460021E8
:1014C000018B4FF6F77319401143018370470A46A9
:1014D0000021018B4FF2FF7319404FF6FF7303EAAF
:1014E00002231943018370470A460021818B4FF67E
:1014F000F77319401143818370470A460021818B9D
:101500004FF2FF7319404FF6FF7303EA02231943AA
:10151000818370470A460021018B4FF6FB73194007
:101520001143018370470A460021018B4FF6FF33B8
:1015300019404FF6FF7303EA0223194301837047F2
:101540000A460021818B4FF6FB73194011438183BA
:1015500070470A460021818B4FF6FF3319404FF642
:10156000FF7303EA02231943818370470A4600216F
:10157000018B4FF67F7319401143018370470A4670
:101580000021018BC1F30E014FF6FF7303EA022322
:101590001943018370470A460021818B4FF67F7300
:1015A00019401143818370470A460021818BC1F3A2
:1015B0000E014FF6FF7303EA02231943818370473C
:1015C0000A460021018C4FF6FD7319401143018436
:1015D00070470A460021018C4FF6F77319401143FA
:1015E000018470470A460021018C4FF6DF731940D1
:1015F0004FF6FF7303EA02131943018470470A464A
:101600000021018C4FF67F7319404FF6FF7303EAF8
:1016100002131943018470470A460021018C4FF6DA
:10162000FF5319404FF6FF7303EA02231943018465
:1016300070470A460021018C4FF2FF7319404FF6A4
:10164000FF7303EA02231943018470470A4600210D
:10165000018C4DF6FF7319404FF6FF7303EA023316
:1016600019430184704730B5002301248C40A3B294
:10167000048C9C430484048C02FA01F5ADB22C4323
:10168000048430BD30B5002304248C40A3B2048C04
:101690009C430484048C02FA01F5ADB22C4304840B
:1016A00030BD70B5034600200024184618300125CF
:1016B0008D40ACB21D8CA5431D8409B1082909D108
:1016C00000EB6100056825F07005056005681543AD
:1016D00005600EE00D1FC5F34E052844056825F48E
:1016E000E045056005684FF6FF7606EA02263543B9
:1016F000056070BD21B1028842F00202028004E060
:1017000002884FF6FD731A400280704721B10288AB
:1017100042F00402028004E002884FF6FB731A4094
:101720000280704721B1828842F08002828004E00A
:1017300082884FF67F731A408280704702884FF686
:10174000F7731A40028002880A4302807047828839
:101750004FF68F731A40828082880A4382807047D6
:1017600002894FF6F8731A40028102890A43028106
:10177000704702894FF67F731A40028102890A433B
:1017800002817047818470478185704781867047E8
:101790000187704781877047A0F840107047028822
:1017A0004FF6FF431A40028002880A4302807047C6
:1017B0000146888E70470146088F70470146888F22
:1017C00070470146B1F8400070470146888C704769
:1017D0000146088D704702460020138A0B400BB16A
:1017E000012000E000207047CA430282704730B5F4
:1017F0000246002000230024158A05EA010395898A
:1018000005EA010413B10CB1012000E0002030BD55
:10181000CA4302827047000010B50446FB48844268
:1018200009D101218803FFF79FF800214FF4804080
:10183000FFF79AF832E0F648844209D101214804C2
:10184000FFF79FF800214FF40030FFF79AF825E0EA
:10185000F048844209D101218804FFF792F8002161
:101860004FF48020FFF78DF818E0EB48844209D14F
:101870000121C804FFF785F800214FF40020FFF78D
:1018800080F80BE0E548844208D101210805FFF704
:1018900078F800214FF48010FFF773F810BD2DE9A0
:1018A000F04786B005460E460024A24600BFA1467A
:1018B0000027B08900B100BF2F462C8A4CF6FF707C
:1018C0000440F08804432C82AC894EF6F3100440A7
:1018D000B08831890843718908430443AC81AC8ADC
:1018E0004FF6FF400440B0890443AC8201A8FEF7E4
:1018F000B4FFC648874202D1DDF810A001E0DDF850
:101900000CA0A88900F4004040B10AEBCA0000EB2B
:101910000A1031684900B0FBF1F807E00AEBCA0091
:1019200000EB0A1031688900B0FBF1F86420B8FBC5
:10193000F0F004012009642101FB1089A88900F45A
:10194000004040B1322000EBC900B0FBF1F000F0E4
:101950000700044308E0322000EB09106421B0FBCB
:10196000F1F000F00F0004432C8106B0BDE8F087D1
:101970004FF41651016000218180C18001810C214A
:10198000418100218181704710B502460020108AF4
:101990004FF2FF0318400B884C8823438C88234365
:1019A000CC8823431843108210BD00210180418060
:1019B0008180C180704721B1828942F400528281C6
:1019C00004E082894DF6FF731A4082817047F0B5BA
:1019D0000346002400260025002040F66A17B9427D
:1019E00000D100BF1846C1F3421401F01F060127C1
:1019F00007FA06F5012C01D10C3004E0022C01D1CC
:101A0000103000E014301AB107682F43076002E07D
:101A10000768AF430760F0BD1AB1838A0B43838226
:101A200002E0838A8B4383827047028A4FF6F07309
:101A30001A400282028A0A430282704782894FF268
:101A4000FF731A40828182890A438281704721B1E3
:101A5000828942F00202828104E082894FF6FD739E
:101A60001A4082817047028A4FF6DF731A40028261
:101A7000028A0A430282704721B1028A42F48042FC
:101A8000028204E0028A4BF6FF731A40028270471A
:101A9000C1F308028280704701468888C0F30800BD
:101AA0007047818941F0010181817047028BD2B278
:101AB0000283028B42EA012202837047028B02F406
:101AC0007F420283028B0A430283704721B1828ADC
:101AD00042F02002828204E0828A4FF6DF731A40CD
:101AE0008282704721B1828A42F01002828204E031
:101AF000828A4FF6EF731A408282704721B1828A40
:101B000042F00802828204E0828A4FF6F7731A409C
:101B10008282704721B1828942F40042828103E0CF
:101B20008289C2F30E028281704721B1828A42F417
:101B30000062828204E0828A4FF2FF731A4082823E
:101B40007047828A4FF6FB731A408282828A0A4368
:101B50008282704721B1828A42F00202828204E0CE
:101B6000828A4FF6FD731A40828270470246002037
:101B7000B1F5007F00D100BF13880B400BB10120ED
:101B800000E00020704701F40072B2F5007F00D140
:101B900000BFCA430280704770B50246002400238C
:101BA0000025002040F66A16B14200D100BFC1F303
:101BB000421501F01F03012606FA03F3012D02D19D
:101BC0009689334006E0022D02D1168A334001E0A7
:101BD000968A33400C12012606FA04F41688344023
:101BE00013B10CB1012000E0002070BD10B500223F
:101BF000002340F66A14A14200D100BF0A1201245A
:101C00009440A3B2DC43048010BD000000380140C2
:101C10000044004000480040004C0040005000409C
:101C2000F8B506460C461546052E59D2DFE806F0F3
:101C300003142536470001210420FEF77BFEA0B2E5
:101C4000ADF800008DF8035003208DF802006946BE
:101C50005D48FEF7B3FB45E001210820FEF76AFE70
:101C6000A0B2ADF800008DF8035003208DF80200FB
:101C700069465648FEF7A2FB34E001211020FEF72A
:101C800059FEA0B2ADF800008DF8035003208DF886
:101C9000020069464E48FEF791FB23E00121202017
:101CA000FEF748FEA0B2ADF800008DF80350032007
:101CB0008DF8020069464748FEF780FB12E00121DB
:101CC0004020FEF737FEA0B2ADF800008DF80350BB
:101CD00003208DF8020069463F48FEF76FFB01E0E4
:101CE0000020F8BD00BF0120FBE705282FD2DFE868
:101CF00000F0030C151C25001AB1334B103319608A
:101D000002E0314B1433196022E01AB12F4B10332B
:101D1000196002E02D4B1433196019E012B12C4BFD
:101D2000196101E02A4B596112E01AB1294B1033B5
:101D3000196002E0274B1433196009E01AB1264BF1
:101D40001033196002E0244B1433196000E000BF27
:101D500000BF704702460020052A31D2DFE802F0BA
:101D6000030C151E2700184B08331B680B400BB1E2
:101D7000012000E0002024E0134B08331B680B40D7
:101D80000BB1012000E000201BE00F4B08331B6863
:101D90000B400BB1012000E0002012E00D4B083396
:101DA0001B680B400BB1012000E0002009E00A4B4A
:101DB00008331B680B400BB1012000E0002000E05D
:101DC00000BF00BF7047000000080140000C014048
:101DD00000100140001401400018014070B5044695
:101DE0000D46E1B2C748FFF753FE00BF4021C5488A
:101DF000FFF7BCFE0028F9D0204670BD00BFC148E7
:101E0000008800F020000028F9D0BE48001D00889E
:101E1000C0F3080070472DE9F04186B080460C46BB
:101E200015461E460C9FB8F1010F06D0B8F1020FFF
:101E30004ED0B8F1030F7CD194E0012144F20400AC
:101E4000FEF778FDAF48FFF7E7FC4FF40070ADF800
:101E5000140003208DF8160018208DF8170005A92E
:101E6000A948FEF7ABFA4FF48060ADF814000420E7
:101E70008DF8170005A9A448FEF7A0FA25208DF8D3
:101E80000000E8B28DF80100F0B28DF802008DF884
:101E900003706846FEF73BF901940020ADF8080096
:101EA000ADF80A00ADF80C00ADF810000C20ADF84C
:101EB0000E0001A99348FFF7F2FC3A4640F2255183
:101EC0009048FFF784FD01218E48FFF774FD00BFA5
:101ED00001218E48FEF72EFD8D48FFF79DFC042062
:101EE000ADF8140003208DF8160018208DF81700A7
:101EF00005A98548FEF762FA0820ADF81400042011
:101F00008DF8170005A98048FEF758FA26208DF8AD
:101F10000000E8B28DF80100F0B28DF802008DF8F3
:101F200003706846FEF7F3F801940020ADF808004E
:101F300000E061E0ADF80A00ADF80C00ADF810006B
:101F40000C20ADF80E0001A97148FFF7A8FC3A4635
:101F500040F225516E48FFF73AFD01216C48FFF72A
:101F60002AFD4DE001216B48FEF7E4FC6A48FFF7CB
:101F700053FC4FF48060ADF8140003208DF8160078
:101F800018208DF8170005A96448FEF717FA4FF4DA
:101F90000060ADF8140004208DF8170005A95F4813
:101FA000FEF70CFA27208DF80000E8B28DF801004A
:101FB000F0B28DF802008DF803706846FEF7A7F8BE
:101FC00001940020ADF80800ADF80A00ADF80C004F
:101FD000ADF810000C20ADF80E0001A94E48FFF737
:101FE0005EFC3A4640F225514648FFF7F0FC0121DD
:101FF0004948FFF7E0FC03E0002006B0BDE8F081AF
:1020000000BF0120F9E70246012A04D0022A09D0C4
:10201000032A15D10DE03B48001D0088C0F30800DD
:1020200008800FE03A48001D0088C0F308000880CF
:1020300008E03948001D0088C0F30800088001E06E
:102040000020704700BF0120FBE7012804D00228D0
:1020500008D0032812D10BE0C1F30802294B1B1D45
:102060001A800BE0C1F30802294B1B1D1A8005E002
:10207000C1F30802284B1B1D1A8000BF00BF704728
:1020800011B1274A42F82010704708B540F2255197
:102090001C48FFF781FD58B169460120FFF7B3FFE7
:1020A0001F48406820B11E484168BDF800008847BD
:1020B00008BD08B540F225511548FFF76DFD58B130
:1020C00069460220FFF79FFF1548806820B1144839
:1020D0008168BDF80000884708BD08B540F2255169
:1020E0000D48FFF759FD58B169460320FFF78BFFF4
:1020F0000B48C06820B10A48C168BDF80000884795
:1021000008BD000000380140000801400400020042
:10211000004400400800040000480040000C01405A
:102120002C0000202DE9FE4306460D461746984632
:10213000012000FA05F148223046FFF771FD012128
:102140000846FEF7F7FBE9B2F0B2FEF74DFA0120C0
:10215000A840019000208DF808000C208DF809009F
:1021600001208DF80A0001A8FEF748F8102D29D2A9
:10217000DFE805F0080A0C0E10121416181A1C1EBF
:102180002022242606241EE007241CE008241AE04E
:10219000092418E00A2416E0172414E0172412E09A
:1021A000172410E017240EE017240CE028240AE07E
:1021B000282408E0282406E0282404E0282402E05B
:1021C000282400E000BF00BFE0B28DF80000F8B2A4
:1021D0008DF8010008F0FF008DF8020001208DF855
:1021E00003006846FDF793FFBDE8FE83F8B5074698
:1021F0000D461646102D29D2DFE805F0080A0C0E10
:1022000010121416181A1C1E2022242606241EE062
:1022100007241CE008241AE0092418E00A2416E028
:10222000172414E0172412E0172410E017240EE0FE
:1022300017240CE028240AE0282408E0282406E0DB
:10224000282404E0282402E0282400E000BF00BF86
:10225000E0B28DF800008DF803606846FDF757FF87
:10226000F8BD11B1854A42F82010704710B5012021
:10227000FEF72AF8012808D18048006810B17F498C
:10228000086880470120FEF730F810BD10B5022025
:10229000FEF71AF8012808D17848406810B177494C
:1022A000486880470220FEF720F810BD10B50420D2
:1022B000FEF70AF8012808D17048806810B16F490C
:1022C000886880470420FEF710F810BD10B508207C
:1022D000FDF7FAFF012808D16848C06810B16749C6
:1022E000C86880470820FEF700F810BD10B5102020
:1022F000FDF7EAFF012808D16048006910B15F4985
:10230000086980471020FDF7F0FF10BD10B52020B0
:10231000FDF7DAFF012809D15848406910B1574943
:10232000486980472020FDF7E0FF3EE04020FDF7B0
:10233000CBFF012809D15148806910B14F49886904
:1023400080474020FDF7D1FF2FE08020FDF7BCFF44
:10235000012809D14948C06910B14849C869804776
:102360008020FDF7C2FF20E04FF48070FDF7ACFF46
:1023700001280AD14148006A10B14049086A8047E3
:102380004FF48070FDF7B1FF0FE04FF40070FDF7E0
:102390009BFF012809D13948406A10B13749486A82
:1023A00080474FF40070FDF7A0FF10BD10B54FF44B
:1023B0008060FDF789FF01280AD13048806A10B19A
:1023C0002E49886A80474FF48060FDF78EFF53E006
:1023D0004FF40060FDF778FF01280AD12748C06A52
:1023E00010B12649C86A80474FF40060FDF77DFFB1
:1023F00042E04FF48050FDF767FF01280AD11F48E3
:10240000006B10B11D49086B80474FF48050FDF7F9
:102410006CFF31E04FF40050FDF756FF01280AD160
:102420001648406B10B11549486B80474FF4005077
:10243000FDF75BFF20E04FF48040FDF745FF0128EA
:102440000AD10E48806B10B10C49886B80474FF45D
:102450008040FDF74AFF0FE04FF40040FDF734FFE6
:10246000012809D10548C06B10B10449C86B8047E9
:102470004FF40040FDF739FF10BD00003C00002084
:102480002DE9FF4F85B005468A469B46129F0AEB11
:10249000CA004FEAC00944F62060B9FBF0F084B2EC
:1024A000012C03DC00241FFA89F814E0012C0ADD5A
:1024B00042F21070844206DC601E84B2B9FBF4F074
:1024C0001FFA80F807E042F21070844203DD00201A
:1024D00009B0BDE8F08FB5F1804F05D11C26012170
:1024E0000846FEF734FA10E0FE48854205D11D2665
:1024F00001210220FEF72BFA07E0FB48854204D1B8
:102500001E2601210420FEF722FAADF80C80ADF85A
:1025100008400020ADF80E00ADF80A0002A92846D8
:10252000FEF740FB3A4628460799FEF7B2FEF0B2A6
:102530008DF8040000208DF805000BF0FF008DF8E9
:1025400006008DF8077001A8FDF7E1FD3946284621
:10255000FEF784FE0120BBE72DE9FF4F85B005465D
:102560008A469B46129FE1480AFB00F947F2305029
:10257000B9FBF0F084B2012C03DC00241FFA89F8C7
:1025800017E0012C0ADD49F64040844206DC601E5B
:1025900084B2B9FBF4F01FFA80F80AE044F6206038
:1025A000844206DDD2A000F0C5FC002009B0BDE8E1
:1025B000F08FB5F1804F05D11C2601210846FEF7AA
:1025C000C6F910E0C748854205D11D260121022029
:1025D000FEF7BDF907E0C448854204D11E2601215B
:1025E0000420FEF7B4F9ADF80C80ADF808400020E7
:1025F000ADF80E00ADF80A0002A92846FEF7D2FA9F
:102600003A4628460799FEF744FEF0B28DF80400DA
:1026100000208DF805000BF0FF008DF806008DF806
:10262000077001A8FDF773FD3A4628460799FEF7A3
:1026300030FE39462846FEF711FE0120B6E72DE9A7
:10264000F8430446884617461E4632464146204611
:10265000FEF71FFEB4F1804F01D11C2508E0A14810
:10266000844201D11D2503E09F48844200D11E25EC
:10267000E8B28DF8000000208DF80100F8B28DF866
:1026800002008DF803606846FDF741FDBDE8F88360
:102690007FB505460C466020ADF800000120ADF87E
:1026A00002000020ADF80800012C06D0022C0DD04D
:1026B000032C14D0042C24D11AE069462846FEF7D6
:1026C000AEFA08212846FEF7F9FE1BE069462846C7
:1026D000FEF7E7FA08212846FEF7F9FE12E0694600
:1026E0002846FEF72BFB08212846FEF7FDFE09E0F1
:1026F00069462846FEF76DFB08212846FEF7FDFED9
:1027000000E000BF00BF7FBD2DE9FE4305460E4639
:102710009146B04644F62060B8FBF0F084B2012C3C
:1027200005DC0024A8F10100804687B216E0012CE8
:102730000ADD42F21070844206DCB8FBF4F0401E61
:1027400087B2601E84B209E042F21070844205DD57
:102750006CA000F0EFFB0020BDE8FE83B5F1804FD8
:1027600004D101210846FEF7F2F80EE05D488542EB
:1027700004D101210220FEF7EAF806E05A4885421A
:1027800003D101210420FEF7E2F8ADF80470ADF8A2
:1027900000400020ADF80600ADF80200694628466A
:1027A000FEF700FA49462846FEF758FD0120D3E718
:1027B00070B505460C46B5F1804F22D1012C06D0EC
:1027C000022C0AD0032C0ED0042C18D111E01822B0
:1027D00001210020FFF724FA12E018220221002034
:1027E000FFF71EFA0CE0182204210020FFF718FA68
:1027F00006E0182208210020FFF712FA00E000BFCF
:102800004DE03848854222D1012C06D0022C0AD056
:10281000032C0ED0042C18D111E0182240210020E6
:10282000FFF7FEF912E0182280210020FFF7F8F9E7
:102830000CE0182201210846FFF7F2F906E0182201
:1028400002210120FFF7ECF900E000BF27E0264855
:10285000854224D1012C06D0022C0AD0032C0ED0A4
:10286000042C1AD112E0182240210120FFF7D8F9D8
:1028700014E0182280210120FFF7D2F90EE018227F
:102880004FF480710120FFF7CBF907E018224FF4D5
:1028900000710120FFF7C4F900E000BF00BF70BD68
:1028A0002DE9F0470746884614461D461A48B0FBF6
:1028B000F4F6B0FBF4F104FB1109B9EB540F00D3AB
:1028C000761C41463846FFF773FF2A4631463846A4
:1028D000FFF71AFF41463846FFF7DAFE2946384629
:1028E0001CE0000000040040000800404019010006
:1028F00054696D5F6D7320697320746F6F206D75FF
:102900006368000054696D5F757320697320746F8C
:102910006F206D756368000000A24A04FEF79EFCFC
:10292000BDE8F0872DE9F04105460E46144642F217
:102930001070844202D90020BDE8F081AF8D781C70
:10294000604342F21071B0FBF1F4012E06D0022E6A
:1029500009D0032E0CD0042E14D10EE0A1B22846CB
:10296000FEF714FF0FE0A1B22846FEF711FF0AE0C0
:10297000A1B22846FEF70EFF05E0A1B22846FEF7F9
:102980000BFF00E000BF00BF0120D5E72DE9FF47A6
:1029900004460E4617469846DDF83090B4F1804F55
:1029A00005D11C2501210846FDF7D1FF10E0D248D2
:1029B000844205D11D2501210220FDF7C8FF07E053
:1029C000CE48844204D11E2501210420FDF7BFFF1B
:1029D000ADF80860ADF804700020ADF80A00ADF85D
:1029E000060001A92046FEF7DDF8E8B28DF80000E8
:1029F00002208DF8010008F0FF008DF80200012090
:102A00008DF803006846FDF782FB49462046FEF735
:102A100025FC002004B0BDE8F0872DE9F041074611
:102A20000E46B7F1804F42D101210846FDF78FFFD6
:102A300001210420FDF77EFF012E06D0022E10D0CA
:102A4000032E1AD0042E30D123E0282201210020A9
:102A5000FFF7E6F80121AA48FDF75FFD00240225F3
:102A600024E0282202210020FFF7DAF80221A448FE
:102A7000FDF753FD0424042518E02822042100203A
:102A8000FFF7CEF804219E48FDF747FD08240825EE
:102A90000CE0282208210020FFF7C2F808219848FE
:102AA000FDF73BFD0C24102500E000BF93E09248A9
:102AB000874246D101210220FDF749FF012108206C
:102AC000FDF738FF01210420FDF734FF012E06D069
:102AD000022E10D0032E1AD0042E30D123E028224B
:102AE00040210020FFF79CF840218548FDF715FDA7
:102AF0000024022524E0282280210020FFF790F8FE
:102B000080217F48FDF709FD0424042518E02822D0
:102B100001210846FFF784F801217A48FDF7FDFC02
:102B2000082408250CE0282202210120FFF778F86C
:102B300002217448FDF7F1FC0C24102500E000BFD1
:102B400049E06E48874246D101210420FDF7FFFE8F
:102B500001210820FDF7EEFE012E06D0022E10D036
:102B6000032E1AD0042E34D125E028224021012042
:102B7000FFF756F840216348FDF7CFFC00240225FB
:102B800028E0282280210120FFF74AF880215D48B3
:102B9000FDF7C3FC042404251CE028224FF48071B7
:102BA0000120FFF73DF84FF480715648FDF7B5FC62
:102BB000082408250EE028224FF400710120FFF7B9
:102BC0002FF84FF400714F48FDF7A7FC0C24102597
:102BD00000E000BF00BF04EB0540BDE8F0812DE937
:102BE000FF4707460C4615461E46DDE90C8921467F
:102BF0003846FFF712FF1FFA80FA0120434632469B
:102C0000294600903846FFF7C1FE012C06D0022C61
:102C10000AD0032C0ED0042C18D111E0012203217C
:102C20003846FEF736FB12E0012205213846FEF752
:102C300030FB0CE0012209213846FEF72AFB06E0B2
:102C4000012211213846FEF724FB00E000BF00BF3F
:102C500001210A463846FEF71CFB0AF0FF00ADF8DA
:102C600004000020ADF806000120ADF808000020A7
:102C7000ADF80A00ADF80C9001A93846FEF725FA28
:102C800001213846FEF7EAFABDE8FF8711B11E4A76
:102C900042F82010704770B504460D46294620467C
:102CA000FEF7DCFA70BD10B51748806818B11649F8
:102CB0008868804704E003214FF08040FEF7A8FDBC
:102CC00010BD10B51048C06818B10F49C8688047DA
:102CD00003E003210848FEF79BFD10BD10B50A482C
:102CE000006918B108490869804703E003210348D7
:102CF000FEF78EFD10BD00000004004000080040FB
:102D000000080140000C01407C000020064880477C
:102D100006480047FEE7FEE7FEE7FEE7FEE7FEE7C0
:102D2000FEE7FEE7FEE7FEE70F2E0008ED000008D5
:102D30000CB50020019000906C48006840F4803091
:102D40006A49086000BF6948006800F400300090DC
:102D50000198401C0190009818B90198B0F5A06F37
:102D6000F1D16248006800F4003010B101200090F9
:102D700001E0002000900098012843D15C480068E1
:102D800040F010005A4908600846006820F003002F
:102D900008600846006840F0020008605348406838
:102DA000524948600846406848600846406840F418
:102DB000806048600846406820F47C1048600846FF
:102DC000406840F4E81048600846006840F08070B1
:102DD000086000BF4548006800F000700028F9D086
:102DE0004248406820F00300404948600846406877
:102DF00040F00200486000BF3C48406800F00C0012
:102E00000828F9D10CBD10B5FFF792FF10BD10B521
:102E10003648006840F001003449086008464068C0
:102E20003449084031494860084600683249084042
:102E30002E4908600846006820F480200860084693
:102E4000406820F4FE0048604FF41F008860FFF7E0
:102E5000DAFF4FF000602949086010BD10B500216D
:102E600000200022214B5B6803F00C0121B10429F2
:102E700006D0082928D107E0214B224C236027E007
:102E80001F4B204C236023E0184B5B6803F4701049
:102E9000164B5B6803F48032022303EB904022B9A7
:102EA000194B4343174C23600DE0104B5B6803F450
:102EB000003323B1144B4343124C236003E0104B07
:102EC0004343104C236003E00D4B0E4C236000BFC6
:102ED00000BF064B5B68C3F303130C4CE15C094B6A
:102EE0001B68CB40074C236010BD0000001002405F
:102EF000002002400000FFF8FFFFF6FE08ED00E0B2
:102F000000127A001400002000093D001800002083
:102F1000064C074D06E0E06840F0010394E8070026
:102F200098471034AC42F6D3FDF7E4F8842F00083C
:102F3000A42F0008014A024900F013B8DD1D000863
:102F40002800002002E008C8121F08C1002AFAD198
:102F500070477047002001E001C1121F002AFBD119
:102F600070472DE9F04116460F460446002503E060
:102F70003946B047641C6D1C20780028F8D12846DB
:102F8000BDE8F081A42F0008000000202C00000004
:102F9000442F0008D02F00082C0000206C040000F3
:102FA000542F000800000000010203040102030482
:102FB000060708090204060800A24A0400000000EF
:102FC00000000000010203040607080900000000D9
:04000005080000ED02
:00000001FF
